{
  "_format": "hh-sol-artifact-1",
  "contractName": "PoolChain_Simple",
  "sourceName": "contracts/PoolChain_Simple.sol",
  "abi": [
    {
      "inputs": [
        {
          "internalType": "address",
          "name": "_usdt",
          "type": "address"
        },
        {
          "internalType": "address",
          "name": "_platformWallet",
          "type": "address"
        }
      ],
      "stateMutability": "nonpayable",
      "type": "constructor"
    },
    {
      "inputs": [],
      "name": "ReentrancyGuardReentrantCall",
      "type": "error"
    },
    {
      "anonymous": false,
      "inputs": [
        {
          "indexed": true,
          "internalType": "uint256",
          "name": "round",
          "type": "uint256"
        },
        {
          "indexed": false,
          "internalType": "uint256",
          "name": "randomSeed",
          "type": "uint256"
        }
      ],
      "name": "DrawExecuted",
      "type": "event"
    },
    {
      "anonymous": false,
      "inputs": [
        {
          "indexed": true,
          "internalType": "uint256",
          "name": "round",
          "type": "uint256"
        },
        {
          "indexed": false,
          "internalType": "uint256",
          "name": "totalTickets",
          "type": "uint256"
        },
        {
          "indexed": false,
          "internalType": "uint256",
          "name": "timestamp",
          "type": "uint256"
        }
      ],
      "name": "PoolFilled",
      "type": "event"
    },
    {
      "anonymous": false,
      "inputs": [
        {
          "indexed": true,
          "internalType": "address",
          "name": "winner",
          "type": "address"
        },
        {
          "indexed": false,
          "internalType": "uint256",
          "name": "amount",
          "type": "uint256"
        },
        {
          "indexed": true,
          "internalType": "uint256",
          "name": "round",
          "type": "uint256"
        }
      ],
      "name": "PrizeClaimed",
      "type": "event"
    },
    {
      "anonymous": false,
      "inputs": [
        {
          "indexed": true,
          "internalType": "address",
          "name": "buyer",
          "type": "address"
        },
        {
          "indexed": false,
          "internalType": "uint256[]",
          "name": "positions",
          "type": "uint256[]"
        },
        {
          "indexed": false,
          "internalType": "uint256",
          "name": "quantity",
          "type": "uint256"
        },
        {
          "indexed": false,
          "internalType": "uint256",
          "name": "totalCost",
          "type": "uint256"
        },
        {
          "indexed": true,
          "internalType": "uint256",
          "name": "round",
          "type": "uint256"
        }
      ],
      "name": "TicketsPurchased",
      "type": "event"
    },
    {
      "anonymous": false,
      "inputs": [
        {
          "indexed": true,
          "internalType": "uint256",
          "name": "round",
          "type": "uint256"
        }
      ],
      "name": "WinnersSelected",
      "type": "event"
    },
    {
      "inputs": [],
      "name": "GAS_FEE_PERCENT",
      "outputs": [
        {
          "internalType": "uint256",
          "name": "",
          "type": "uint256"
        }
      ],
      "stateMutability": "view",
      "type": "function"
    },
    {
      "inputs": [],
      "name": "MAX_PARTICIPANTS",
      "outputs": [
        {
          "internalType": "uint256",
          "name": "",
          "type": "uint256"
        }
      ],
      "stateMutability": "view",
      "type": "function"
    },
    {
      "inputs": [],
      "name": "MAX_TICKETS_PER_PURCHASE",
      "outputs": [
        {
          "internalType": "uint256",
          "name": "",
          "type": "uint256"
        }
      ],
      "stateMutability": "view",
      "type": "function"
    },
    {
      "inputs": [],
      "name": "MAX_TICKETS_PER_USER",
      "outputs": [
        {
          "internalType": "uint256",
          "name": "",
          "type": "uint256"
        }
      ],
      "stateMutability": "view",
      "type": "function"
    },
    {
      "inputs": [],
      "name": "TICKET_PRICE",
      "outputs": [
        {
          "internalType": "uint256",
          "name": "",
          "type": "uint256"
        }
      ],
      "stateMutability": "view",
      "type": "function"
    },
    {
      "inputs": [
        {
          "internalType": "uint256[]",
          "name": "positions",
          "type": "uint256[]"
        }
      ],
      "name": "buySpecificPositions",
      "outputs": [],
      "stateMutability": "nonpayable",
      "type": "function"
    },
    {
      "inputs": [],
      "name": "claimPrize",
      "outputs": [],
      "stateMutability": "nonpayable",
      "type": "function"
    },
    {
      "inputs": [
        {
          "internalType": "address",
          "name": "",
          "type": "address"
        }
      ],
      "name": "claimable",
      "outputs": [
        {
          "internalType": "uint256",
          "name": "",
          "type": "uint256"
        }
      ],
      "stateMutability": "view",
      "type": "function"
    },
    {
      "inputs": [],
      "name": "currentRound",
      "outputs": [
        {
          "internalType": "uint256",
          "name": "",
          "type": "uint256"
        }
      ],
      "stateMutability": "view",
      "type": "function"
    },
    {
      "inputs": [],
      "name": "getGroupAWinners",
      "outputs": [
        {
          "internalType": "uint256[]",
          "name": "",
          "type": "uint256[]"
        }
      ],
      "stateMutability": "view",
      "type": "function"
    },
    {
      "inputs": [],
      "name": "getGroupBWinners",
      "outputs": [
        {
          "internalType": "uint256[]",
          "name": "",
          "type": "uint256[]"
        }
      ],
      "stateMutability": "view",
      "type": "function"
    },
    {
      "inputs": [],
      "name": "getGroupCWinners",
      "outputs": [
        {
          "internalType": "uint256[]",
          "name": "",
          "type": "uint256[]"
        }
      ],
      "stateMutability": "view",
      "type": "function"
    },
    {
      "inputs": [],
      "name": "getGroupDWinners",
      "outputs": [
        {
          "internalType": "uint256[]",
          "name": "",
          "type": "uint256[]"
        }
      ],
      "stateMutability": "view",
      "type": "function"
    },
    {
      "inputs": [
        {
          "internalType": "address",
          "name": "user",
          "type": "address"
        }
      ],
      "name": "getUserPositions",
      "outputs": [
        {
          "internalType": "uint256[]",
          "name": "",
          "type": "uint256[]"
        }
      ],
      "stateMutability": "view",
      "type": "function"
    },
    {
      "inputs": [
        {
          "internalType": "uint256",
          "name": "",
          "type": "uint256"
        }
      ],
      "name": "groupAWinners",
      "outputs": [
        {
          "internalType": "uint256",
          "name": "",
          "type": "uint256"
        }
      ],
      "stateMutability": "view",
      "type": "function"
    },
    {
      "inputs": [
        {
          "internalType": "uint256",
          "name": "",
          "type": "uint256"
        }
      ],
      "name": "groupBWinners",
      "outputs": [
        {
          "internalType": "uint256",
          "name": "",
          "type": "uint256"
        }
      ],
      "stateMutability": "view",
      "type": "function"
    },
    {
      "inputs": [
        {
          "internalType": "uint256",
          "name": "",
          "type": "uint256"
        }
      ],
      "name": "groupCWinners",
      "outputs": [
        {
          "internalType": "uint256",
          "name": "",
          "type": "uint256"
        }
      ],
      "stateMutability": "view",
      "type": "function"
    },
    {
      "inputs": [
        {
          "internalType": "uint256",
          "name": "",
          "type": "uint256"
        }
      ],
      "name": "groupDWinners",
      "outputs": [
        {
          "internalType": "uint256",
          "name": "",
          "type": "uint256"
        }
      ],
      "stateMutability": "view",
      "type": "function"
    },
    {
      "inputs": [],
      "name": "platformWallet",
      "outputs": [
        {
          "internalType": "address",
          "name": "",
          "type": "address"
        }
      ],
      "stateMutability": "view",
      "type": "function"
    },
    {
      "inputs": [],
      "name": "poolFilled",
      "outputs": [
        {
          "internalType": "bool",
          "name": "",
          "type": "bool"
        }
      ],
      "stateMutability": "view",
      "type": "function"
    },
    {
      "inputs": [
        {
          "internalType": "uint256",
          "name": "",
          "type": "uint256"
        }
      ],
      "name": "positionToAddress",
      "outputs": [
        {
          "internalType": "address",
          "name": "",
          "type": "address"
        }
      ],
      "stateMutability": "view",
      "type": "function"
    },
    {
      "inputs": [],
      "name": "randomSeed",
      "outputs": [
        {
          "internalType": "uint256",
          "name": "",
          "type": "uint256"
        }
      ],
      "stateMutability": "view",
      "type": "function"
    },
    {
      "inputs": [],
      "name": "ticketsSold",
      "outputs": [
        {
          "internalType": "uint256",
          "name": "",
          "type": "uint256"
        }
      ],
      "stateMutability": "view",
      "type": "function"
    },
    {
      "inputs": [],
      "name": "usdt",
      "outputs": [
        {
          "internalType": "contract IERC20",
          "name": "",
          "type": "address"
        }
      ],
      "stateMutability": "view",
      "type": "function"
    },
    {
      "inputs": [
        {
          "internalType": "address",
          "name": "",
          "type": "address"
        },
        {
          "internalType": "uint256",
          "name": "",
          "type": "uint256"
        }
      ],
      "name": "userPositions",
      "outputs": [
        {
          "internalType": "uint256",
          "name": "",
          "type": "uint256"
        }
      ],
      "stateMutability": "view",
      "type": "function"
    },
    {
      "inputs": [
        {
          "internalType": "address",
          "name": "",
          "type": "address"
        }
      ],
      "name": "userTicketCount",
      "outputs": [
        {
          "internalType": "uint256",
          "name": "",
          "type": "uint256"
        }
      ],
      "stateMutability": "view",
      "type": "function"
    },
    {
      "inputs": [],
      "name": "winnersSelected",
      "outputs": [
        {
          "internalType": "bool",
          "name": "",
          "type": "bool"
        }
      ],
      "stateMutability": "view",
      "type": "function"
    }
  ],
  "bytecode": "0x60c060405260018055600060028190556003805461ffff191690556004553480156200002a57600080fd5b50604051620017bd380380620017bd8339810160408190526200004d916200011b565b60016000556001600160a01b0382166200009d5760405162461bcd60e51b815260206004820152600c60248201526b125b9d985b1a59081554d11560a21b60448201526064015b60405180910390fd5b6001600160a01b038116620000e65760405162461bcd60e51b815260206004820152600e60248201526d125b9d985b1a59081dd85b1b195d60921b604482015260640162000094565b6001600160a01b039182166080521660a05262000153565b80516001600160a01b03811681146200011657600080fd5b919050565b600080604083850312156200012f57600080fd5b6200013a83620000fe565b91506200014a60208401620000fe565b90509250929050565b60805160a051611628620001956000396000818161039e01526111df0152600081816101f9015281816105c1015281816109f6015261121101526116286000f3fe608060405234801561001057600080fd5b50600436106101a95760003560e01c8063808511a1116100f95780639ff860f511610097578063c421a16e11610071578063c421a16e1461035e578063cb87ce6714610371578063f3baf07014610391578063fa2af9da1461039957600080fd5b80639ff860f514610330578063b7738cc514610338578063c1f8d5cc1461034b57600080fd5b80638c44f715116100d35780638c44f715146102e35780638f15024f146102f6578063902ab510146102ff578063924d46961461032857600080fd5b8063808511a1146102ab5780638a19c8bc146102c85780638bc53285146102d157600080fd5b80635e1b4d99116101665780636bd5dfce116101405780636bd5dfce1461027e5780636c6e99d7146102865780636f4e031c1461028e57806370740ac9146102a157600080fd5b80635e1b4d991461025b5780635f6f0e631461026e578063652826e01461027657600080fd5b80630b747d91146101ae5780631a95f15f146101ca5780632a6bc2dd146101d45780632f48ab7d146101f45780632f6f81d914610233578063402914f51461023b575b600080fd5b6101b760045481565b6040519081526020015b60405180910390f35b6101b7621e848081565b6101e76101e23660046113b8565b6103c0565b6040516101c191906113da565b61021b7f000000000000000000000000000000000000000000000000000000000000000081565b6040516001600160a01b0390911681526020016101c1565b6101b7600381565b6101b76102493660046113b8565b600c6020526000908152604090205481565b6101b761026936600461141e565b61042c565b6101b7600a81565b6101b7601481565b6101e761045d565b6101e76104b5565b6101b761029c366004611448565b61050b565b6102a961052c565b005b6003546102b89060ff1681565b60405190151581526020016101c1565b6101b760015481565b6003546102b890610100900460ff1681565b6101b76102f1366004611448565b6106b9565b6101b760025481565b61021b61030d366004611448565b6005602052600090815260409020546001600160a01b031681565b6101e76106c9565b6101e761071f565b6102a9610346366004611461565b610775565b6101b7610359366004611448565b610b59565b6101b761036c366004611448565b610b69565b6101b761037f3660046113b8565b60076020526000908152604090205481565b6101b7606481565b61021b7f000000000000000000000000000000000000000000000000000000000000000081565b6001600160a01b03811660009081526006602090815260409182902080548351818402810184019094528084526060939283018282801561042057602002820191906000526020600020905b81548152602001906001019080831161040c575b50505050509050919050565b6006602052816000526040600020818154811061044857600080fd5b90600052602060002001600091509150505481565b606060088054806020026020016040519081016040528092919081815260200182805480156104ab57602002820191906000526020600020905b815481526020019060010190808311610497575b5050505050905090565b606060098054806020026020016040519081016040528092919081815260200182805480156104ab5760200282019190600052602060002090815481526020019060010190808311610497575050505050905090565b600a818154811061051b57600080fd5b600091825260209091200154905081565b610534610b79565b336000908152600c6020526040902054806105895760405162461bcd60e51b815260206004820152601060248201526f4e6f7468696e6720746f20636c61696d60801b60448201526064015b60405180910390fd5b336000818152600c6020526040808220919091555163a9059cbb60e01b81526004810191909152602481018290526001600160a01b037f0000000000000000000000000000000000000000000000000000000000000000169063a9059cbb906044016020604051808303816000875af115801561060a573d6000803e3d6000fd5b505050506040513d601f19601f8201168201806040525081019061062e91906114d6565b6106695760405162461bcd60e51b815260206004820152600c60248201526b10db185a5b4819985a5b195960a21b6044820152606401610580565b60018054610677919061150e565b60405182815233907f256642a903d86ec186d0ad895b74bdbe7f9e5a72db568f4c4d58c2fa38b39e1c9060200160405180910390a3506106b76001600055565b565b600b818154811061051b57600080fd5b6060600a8054806020026020016040519081016040528092919081815260200182805480156104ab5760200282019190600052602060002090815481526020019060010190808311610497575050505050905090565b6060600b8054806020026020016040519081016040528092919081815260200182805480156104ab5760200282019190600052602060002090815481526020019060010190808311610497575050505050905090565b61077d610b79565b801580159061078d5750600a8111155b6107ca5760405162461bcd60e51b815260206004820152600e60248201526d312d313020706f736974696f6e7360901b6044820152606401610580565b60035460ff16156108095760405162461bcd60e51b8152602060048201526009602482015268141bdbdb08199d5b1b60ba1b6044820152606401610580565b33600090815260076020526040902054601490610827908390611527565b11156108665760405162461bcd60e51b815260206004820152600e60248201526d4d6178203230207469636b65747360901b6044820152606401610580565b60005b818110156109825760008383838181106108855761088561153a565b905060200201359050600181101580156108a0575060648111155b6108df5760405162461bcd60e51b815260206004820152601060248201526f24b73b30b634b2103837b9b4ba34b7b760811b6044820152606401610580565b6000818152600560205260409020546001600160a01b0316156109355760405162461bcd60e51b815260206004820152600e60248201526d2837b9b4ba34b7b7103a30b5b2b760911b6044820152606401610580565b600081815260056020908152604080832080546001600160a01b0319163390811790915583526006825282208054600181018255908352912001558061097a81611550565b915050610869565b5033600090815260076020526040812080548392906109a2908490611527565b9091555050600280548291906000906109bc908490611527565b90915550600090506109d182621e8480611569565b6040516323b872dd60e01b8152336004820152306024820152604481018290529091507f00000000000000000000000000000000000000000000000000000000000000006001600160a01b0316906323b872dd906064016020604051808303816000875af1158015610a47573d6000803e3d6000fd5b505050506040513d601f19601f82011682018060405250810190610a6b91906114d6565b610aa95760405162461bcd60e51b815260206004820152600f60248201526e151c985b9cd9995c8819985a5b1959608a1b6044820152606401610580565b60015460405133907f1dae28b421b911a4474c89d602190e4ced33fc059a827a657b2e8afe37a4e95e90610ae4908790879081908890611580565b60405180910390a3606460025410610b4a576003805460ff1916600190811790915554600254604080519182524260208301527f2f175f06e9e98a031b67651e940b202eb5594b8c635aeb92bdac6fce470183d4910160405180910390a2610b4a610ba3565b50610b556001600055565b5050565b6009818154811061051b57600080fd5b6008818154811061051b57600080fd5b600260005403610b9c57604051633ee5aeb560e01b815260040160405180910390fd5b6002600055565b60035460ff16610be55760405162461bcd60e51b815260206004820152600d60248201526c141bdbdb081b9bdd08199d5b1b609a1b6044820152606401610580565b600354610100900460ff1615610c2d5760405162461bcd60e51b815260206004820152600d60248201526c20b63932b0b23c90323930bbb760991b6044820152606401610580565b6002546040805144602082015242918101919091524360608083019190915233901b6bffffffffffffffffffffffff1916608082015260948101919091524760b482015260d40160408051808303601f190181529082905280516020918201206004819055600154908352917fb3094e2a3faa3b724d86e73fb8a956c3922ab12785102095a669ade4cb943bab910160405180910390a2604080516064808252610ca0820190925260009160208201610c808036833701905050905060005b6064811015610d2f57610d00816001611527565b828281518110610d1257610d1261153a565b602090810291909101015280610d2781611550565b915050610cec565b506000610d3e6001606461150e565b90505b8015610e11576000610d54826001611527565b60045460408051602081019290925281018490526060016040516020818303038152906040528051906020012060001c610d8e91906115dc565b9050828181518110610da257610da261153a565b6020026020010151838381518110610dbc57610dbc61153a565b6020026020010151848481518110610dd657610dd661153a565b60200260200101858481518110610def57610def61153a565b6020908102919091010191909152525080610e09816115f0565b915050610d41565b5060005b600a811015610ef3576008828281518110610e3257610e3261153a565b602090810291909101810151825460018101845560009384529183209091015582516005908290859085908110610e6b57610e6b61153a565b6020908102919091018101518252810191909152604001600020546001600160a01b031690508015610ee0576064610ea8621e8480610123611569565b610eb29190611607565b6001600160a01b0382166000908152600c602052604081208054909190610eda908490611527565b90915550505b5080610eeb81611550565b915050610e15565b50600a5b601e811015610fd6576009828281518110610f1457610f1461153a565b602090810291909101810151825460018101845560009384529183209091015582516005908290859085908110610f4d57610f4d61153a565b6020908102919091018101518252810191909152604001600020546001600160a01b031690508015610fc3576103e8610f8b621e84806105af611569565b610f959190611607565b6001600160a01b0382166000908152600c602052604081208054909190610fbd908490611527565b90915550505b5080610fce81611550565b915050610ef7565b50601e5b603c8110156110b957600a828281518110610ff757610ff761153a565b6020908102919091018101518254600181018455600093845291832090910155825160059082908590859081106110305761103061153a565b6020908102919091018101518252810191909152604001600020546001600160a01b0316905080156110a6576103e861106e621e8480610285611569565b6110789190611607565b6001600160a01b0382166000908152600c6020526040812080549091906110a0908490611527565b90915550505b50806110b181611550565b915050610fda565b50603c5b606481101561119c57600b8282815181106110da576110da61153a565b6020908102919091018101518254600181018455600093845291832090910155825160059082908590859081106111135761111361153a565b6020908102919091018101518252810191909152604001600020546001600160a01b031690508015611189576103e8611151621e84806101e5611569565b61115b9190611607565b6001600160a01b0382166000908152600c602052604081208054909190611183908490611527565b90915550505b508061119481611550565b9150506110bd565b5060006111ad6064621e8480611569565b9050600060646111be600384611569565b6111c89190611607565b60405163a9059cbb60e01b81526001600160a01b037f000000000000000000000000000000000000000000000000000000000000000081166004830152602482018390529192507f00000000000000000000000000000000000000000000000000000000000000009091169063a9059cbb906044016020604051808303816000875af115801561125c573d6000803e3d6000fd5b505050506040513d601f19601f8201168201806040525081019061128091906114d6565b6112c25760405162461bcd60e51b8152602060048201526013602482015272119959481d1c985b9cd9995c8819985a5b1959606a1b6044820152606401610580565b6003805461ff0019166101001790556001546040517fd37381c1ec1cdf2d4348fef712c65ca96809fc0b3f174f686061afac71dd2e6c90600090a261130561130a565b505050565b6001805490600061131a83611550565b9091555050600060028190556003805461ffff19169055600481905561134290600890611362565b61134e60096000611362565b61135a600a6000611362565b6106b7600b60005b50805460008255906000526020600020908101906113809190611383565b50565b5b808211156113985760008155600101611384565b5090565b80356001600160a01b03811681146113b357600080fd5b919050565b6000602082840312156113ca57600080fd5b6113d38261139c565b9392505050565b6020808252825182820181905260009190848201906040850190845b81811015611412578351835292840192918401916001016113f6565b50909695505050505050565b6000806040838503121561143157600080fd5b61143a8361139c565b946020939093013593505050565b60006020828403121561145a57600080fd5b5035919050565b6000806020838503121561147457600080fd5b823567ffffffffffffffff8082111561148c57600080fd5b818501915085601f8301126114a057600080fd5b8135818111156114af57600080fd5b8660208260051b85010111156114c457600080fd5b60209290920196919550909350505050565b6000602082840312156114e857600080fd5b815180151581146113d357600080fd5b634e487b7160e01b600052601160045260246000fd5b81810381811115611521576115216114f8565b92915050565b80820180821115611521576115216114f8565b634e487b7160e01b600052603260045260246000fd5b600060018201611562576115626114f8565b5060010190565b8082028115828204841417611521576115216114f8565b6060808252810184905260006001600160fb1b038511156115a057600080fd5b8460051b8087608085013760208301949094525060408101919091520160800192915050565b634e487b7160e01b600052601260045260246000fd5b6000826115eb576115eb6115c6565b500690565b6000816115ff576115ff6114f8565b506000190190565b600082611616576116166115c6565b50049056fea164736f6c6343000814000a",
  "linkReferences": {},
  "deployedLinkReferences": {}
}