{
  "_format": "hh-sol-artifact-1",
  "contractName": "PoolChain_Hybrid_Auto",
  "sourceName": "contracts/PoolChain_Hybrid_Auto.sol",
  "abi": [
    {
      "inputs": [
        {
          "internalType": "address",
          "name": "_usdt",
          "type": "address"
        },
        {
          "internalType": "address",
          "name": "_platformWallet",
          "type": "address"
        },
        {
          "internalType": "address",
          "name": "_vrfCoordinator",
          "type": "address"
        },
        {
          "internalType": "uint256",
          "name": "_subscriptionId",
          "type": "uint256"
        },
        {
          "internalType": "bytes32",
          "name": "_keyHash",
          "type": "bytes32"
        }
      ],
      "stateMutability": "nonpayable",
      "type": "constructor"
    },
    {
      "inputs": [
        {
          "internalType": "address",
          "name": "have",
          "type": "address"
        },
        {
          "internalType": "address",
          "name": "want",
          "type": "address"
        }
      ],
      "name": "OnlyCoordinatorCanFulfill",
      "type": "error"
    },
    {
      "inputs": [
        {
          "internalType": "address",
          "name": "have",
          "type": "address"
        },
        {
          "internalType": "address",
          "name": "owner",
          "type": "address"
        },
        {
          "internalType": "address",
          "name": "coordinator",
          "type": "address"
        }
      ],
      "name": "OnlyOwnerOrCoordinator",
      "type": "error"
    },
    {
      "inputs": [],
      "name": "ReentrancyGuardReentrantCall",
      "type": "error"
    },
    {
      "inputs": [
        {
          "internalType": "address",
          "name": "token",
          "type": "address"
        }
      ],
      "name": "SafeERC20FailedOperation",
      "type": "error"
    },
    {
      "inputs": [],
      "name": "ZeroAddress",
      "type": "error"
    },
    {
      "anonymous": false,
      "inputs": [
        {
          "indexed": false,
          "internalType": "address",
          "name": "vrfCoordinator",
          "type": "address"
        }
      ],
      "name": "CoordinatorSet",
      "type": "event"
    },
    {
      "anonymous": false,
      "inputs": [
        {
          "indexed": true,
          "internalType": "address",
          "name": "from",
          "type": "address"
        },
        {
          "indexed": true,
          "internalType": "address",
          "name": "to",
          "type": "address"
        }
      ],
      "name": "OwnershipTransferRequested",
      "type": "event"
    },
    {
      "anonymous": false,
      "inputs": [
        {
          "indexed": true,
          "internalType": "address",
          "name": "from",
          "type": "address"
        },
        {
          "indexed": true,
          "internalType": "address",
          "name": "to",
          "type": "address"
        }
      ],
      "name": "OwnershipTransferred",
      "type": "event"
    },
    {
      "anonymous": false,
      "inputs": [
        {
          "indexed": true,
          "internalType": "uint256",
          "name": "round",
          "type": "uint256"
        },
        {
          "indexed": false,
          "internalType": "uint256",
          "name": "totalTickets",
          "type": "uint256"
        },
        {
          "indexed": false,
          "internalType": "uint256",
          "name": "timestamp",
          "type": "uint256"
        }
      ],
      "name": "PoolFilled",
      "type": "event"
    },
    {
      "anonymous": false,
      "inputs": [
        {
          "indexed": true,
          "internalType": "address",
          "name": "winner",
          "type": "address"
        },
        {
          "indexed": false,
          "internalType": "uint256",
          "name": "amount",
          "type": "uint256"
        },
        {
          "indexed": false,
          "internalType": "uint256",
          "name": "round",
          "type": "uint256"
        },
        {
          "indexed": false,
          "internalType": "uint256",
          "name": "timestamp",
          "type": "uint256"
        }
      ],
      "name": "PrizeClaimed",
      "type": "event"
    },
    {
      "anonymous": false,
      "inputs": [
        {
          "indexed": true,
          "internalType": "uint256",
          "name": "newRound",
          "type": "uint256"
        },
        {
          "indexed": false,
          "internalType": "uint256",
          "name": "timestamp",
          "type": "uint256"
        }
      ],
      "name": "RoundReset",
      "type": "event"
    },
    {
      "anonymous": false,
      "inputs": [
        {
          "indexed": true,
          "internalType": "address",
          "name": "buyer",
          "type": "address"
        },
        {
          "indexed": false,
          "internalType": "uint256[]",
          "name": "positions",
          "type": "uint256[]"
        },
        {
          "indexed": false,
          "internalType": "uint256",
          "name": "quantity",
          "type": "uint256"
        },
        {
          "indexed": false,
          "internalType": "uint256",
          "name": "totalCost",
          "type": "uint256"
        },
        {
          "indexed": true,
          "internalType": "uint256",
          "name": "round",
          "type": "uint256"
        }
      ],
      "name": "TicketsPurchased",
      "type": "event"
    },
    {
      "anonymous": false,
      "inputs": [
        {
          "indexed": true,
          "internalType": "address",
          "name": "executor",
          "type": "address"
        },
        {
          "indexed": false,
          "internalType": "uint256",
          "name": "amount",
          "type": "uint256"
        },
        {
          "indexed": true,
          "internalType": "uint256",
          "name": "round",
          "type": "uint256"
        }
      ],
      "name": "TriggerRewardPaid",
      "type": "event"
    },
    {
      "anonymous": false,
      "inputs": [
        {
          "indexed": true,
          "internalType": "uint256",
          "name": "round",
          "type": "uint256"
        },
        {
          "indexed": false,
          "internalType": "uint256",
          "name": "randomWord",
          "type": "uint256"
        }
      ],
      "name": "VRFReceived",
      "type": "event"
    },
    {
      "anonymous": false,
      "inputs": [
        {
          "indexed": true,
          "internalType": "uint256",
          "name": "round",
          "type": "uint256"
        },
        {
          "indexed": false,
          "internalType": "uint256",
          "name": "requestId",
          "type": "uint256"
        }
      ],
      "name": "VRFRequested",
      "type": "event"
    },
    {
      "anonymous": false,
      "inputs": [
        {
          "indexed": true,
          "internalType": "uint256",
          "name": "round",
          "type": "uint256"
        },
        {
          "indexed": false,
          "internalType": "uint256[]",
          "name": "groupA",
          "type": "uint256[]"
        },
        {
          "indexed": false,
          "internalType": "uint256[]",
          "name": "groupB",
          "type": "uint256[]"
        },
        {
          "indexed": false,
          "internalType": "uint256[]",
          "name": "groupC",
          "type": "uint256[]"
        },
        {
          "indexed": false,
          "internalType": "uint256[]",
          "name": "groupD",
          "type": "uint256[]"
        }
      ],
      "name": "WinnersSelected",
      "type": "event"
    },
    {
      "inputs": [],
      "name": "COORDINATOR",
      "outputs": [
        {
          "internalType": "contract IVRFCoordinatorV2Plus",
          "name": "",
          "type": "address"
        }
      ],
      "stateMutability": "view",
      "type": "function"
    },
    {
      "inputs": [],
      "name": "GAS_FEE_PERCENT",
      "outputs": [
        {
          "internalType": "uint256",
          "name": "",
          "type": "uint256"
        }
      ],
      "stateMutability": "view",
      "type": "function"
    },
    {
      "inputs": [],
      "name": "GROUP_A_COUNT",
      "outputs": [
        {
          "internalType": "uint256",
          "name": "",
          "type": "uint256"
        }
      ],
      "stateMutability": "view",
      "type": "function"
    },
    {
      "inputs": [],
      "name": "GROUP_A_PERCENT",
      "outputs": [
        {
          "internalType": "uint256",
          "name": "",
          "type": "uint256"
        }
      ],
      "stateMutability": "view",
      "type": "function"
    },
    {
      "inputs": [],
      "name": "GROUP_B_COUNT",
      "outputs": [
        {
          "internalType": "uint256",
          "name": "",
          "type": "uint256"
        }
      ],
      "stateMutability": "view",
      "type": "function"
    },
    {
      "inputs": [],
      "name": "GROUP_B_PERCENT",
      "outputs": [
        {
          "internalType": "uint256",
          "name": "",
          "type": "uint256"
        }
      ],
      "stateMutability": "view",
      "type": "function"
    },
    {
      "inputs": [],
      "name": "GROUP_C_COUNT",
      "outputs": [
        {
          "internalType": "uint256",
          "name": "",
          "type": "uint256"
        }
      ],
      "stateMutability": "view",
      "type": "function"
    },
    {
      "inputs": [],
      "name": "GROUP_C_PERCENT",
      "outputs": [
        {
          "internalType": "uint256",
          "name": "",
          "type": "uint256"
        }
      ],
      "stateMutability": "view",
      "type": "function"
    },
    {
      "inputs": [],
      "name": "GROUP_D_COUNT",
      "outputs": [
        {
          "internalType": "uint256",
          "name": "",
          "type": "uint256"
        }
      ],
      "stateMutability": "view",
      "type": "function"
    },
    {
      "inputs": [],
      "name": "GROUP_D_PERCENT",
      "outputs": [
        {
          "internalType": "uint256",
          "name": "",
          "type": "uint256"
        }
      ],
      "stateMutability": "view",
      "type": "function"
    },
    {
      "inputs": [],
      "name": "MAX_PARTICIPANTS",
      "outputs": [
        {
          "internalType": "uint256",
          "name": "",
          "type": "uint256"
        }
      ],
      "stateMutability": "view",
      "type": "function"
    },
    {
      "inputs": [],
      "name": "MAX_PURCHASES_PER_BLOCK",
      "outputs": [
        {
          "internalType": "uint256",
          "name": "",
          "type": "uint256"
        }
      ],
      "stateMutability": "view",
      "type": "function"
    },
    {
      "inputs": [],
      "name": "MAX_TICKETS_PER_PURCHASE",
      "outputs": [
        {
          "internalType": "uint256",
          "name": "",
          "type": "uint256"
        }
      ],
      "stateMutability": "view",
      "type": "function"
    },
    {
      "inputs": [],
      "name": "MAX_TICKETS_PER_USER_PER_ROUND",
      "outputs": [
        {
          "internalType": "uint256",
          "name": "",
          "type": "uint256"
        }
      ],
      "stateMutability": "view",
      "type": "function"
    },
    {
      "inputs": [],
      "name": "TICKET_PRICE",
      "outputs": [
        {
          "internalType": "uint256",
          "name": "",
          "type": "uint256"
        }
      ],
      "stateMutability": "view",
      "type": "function"
    },
    {
      "inputs": [],
      "name": "TRIGGER_REWARD_PERCENT",
      "outputs": [
        {
          "internalType": "uint256",
          "name": "",
          "type": "uint256"
        }
      ],
      "stateMutability": "view",
      "type": "function"
    },
    {
      "inputs": [],
      "name": "acceptOwnership",
      "outputs": [],
      "stateMutability": "nonpayable",
      "type": "function"
    },
    {
      "inputs": [
        {
          "internalType": "uint256",
          "name": "",
          "type": "uint256"
        }
      ],
      "name": "allTickets",
      "outputs": [
        {
          "internalType": "uint256",
          "name": "position",
          "type": "uint256"
        },
        {
          "internalType": "address",
          "name": "owner",
          "type": "address"
        },
        {
          "internalType": "uint256",
          "name": "purchaseTime",
          "type": "uint256"
        },
        {
          "internalType": "uint256",
          "name": "roundNumber",
          "type": "uint256"
        }
      ],
      "stateMutability": "view",
      "type": "function"
    },
    {
      "inputs": [],
      "name": "areWinnersSelected",
      "outputs": [
        {
          "internalType": "bool",
          "name": "",
          "type": "bool"
        }
      ],
      "stateMutability": "view",
      "type": "function"
    },
    {
      "inputs": [
        {
          "internalType": "uint256[]",
          "name": "positions",
          "type": "uint256[]"
        }
      ],
      "name": "buySpecificPositions",
      "outputs": [],
      "stateMutability": "nonpayable",
      "type": "function"
    },
    {
      "inputs": [],
      "name": "callbackGasLimit",
      "outputs": [
        {
          "internalType": "uint32",
          "name": "",
          "type": "uint32"
        }
      ],
      "stateMutability": "view",
      "type": "function"
    },
    {
      "inputs": [],
      "name": "claim",
      "outputs": [],
      "stateMutability": "nonpayable",
      "type": "function"
    },
    {
      "inputs": [
        {
          "internalType": "address",
          "name": "",
          "type": "address"
        }
      ],
      "name": "claimable",
      "outputs": [
        {
          "internalType": "uint256",
          "name": "",
          "type": "uint256"
        }
      ],
      "stateMutability": "view",
      "type": "function"
    },
    {
      "inputs": [],
      "name": "currentRound",
      "outputs": [
        {
          "internalType": "uint256",
          "name": "",
          "type": "uint256"
        }
      ],
      "stateMutability": "view",
      "type": "function"
    },
    {
      "inputs": [],
      "name": "getAllTickets",
      "outputs": [
        {
          "components": [
            {
              "internalType": "uint256",
              "name": "position",
              "type": "uint256"
            },
            {
              "internalType": "address",
              "name": "owner",
              "type": "address"
            },
            {
              "internalType": "uint256",
              "name": "purchaseTime",
              "type": "uint256"
            },
            {
              "internalType": "uint256",
              "name": "roundNumber",
              "type": "uint256"
            }
          ],
          "internalType": "struct PoolChain_Hybrid_Auto.Ticket[]",
          "name": "",
          "type": "tuple[]"
        }
      ],
      "stateMutability": "view",
      "type": "function"
    },
    {
      "inputs": [],
      "name": "getAvailablePositions",
      "outputs": [
        {
          "internalType": "uint256[]",
          "name": "",
          "type": "uint256[]"
        }
      ],
      "stateMutability": "view",
      "type": "function"
    },
    {
      "inputs": [
        {
          "internalType": "address",
          "name": "user",
          "type": "address"
        }
      ],
      "name": "getClaimable",
      "outputs": [
        {
          "internalType": "uint256",
          "name": "",
          "type": "uint256"
        }
      ],
      "stateMutability": "view",
      "type": "function"
    },
    {
      "inputs": [],
      "name": "getCurrentPool",
      "outputs": [
        {
          "internalType": "uint256",
          "name": "",
          "type": "uint256"
        }
      ],
      "stateMutability": "view",
      "type": "function"
    },
    {
      "inputs": [],
      "name": "getGroupAWinners",
      "outputs": [
        {
          "internalType": "uint256[]",
          "name": "",
          "type": "uint256[]"
        }
      ],
      "stateMutability": "view",
      "type": "function"
    },
    {
      "inputs": [],
      "name": "getGroupBWinners",
      "outputs": [
        {
          "internalType": "uint256[]",
          "name": "",
          "type": "uint256[]"
        }
      ],
      "stateMutability": "view",
      "type": "function"
    },
    {
      "inputs": [],
      "name": "getGroupCWinners",
      "outputs": [
        {
          "internalType": "uint256[]",
          "name": "",
          "type": "uint256[]"
        }
      ],
      "stateMutability": "view",
      "type": "function"
    },
    {
      "inputs": [],
      "name": "getGroupDWinners",
      "outputs": [
        {
          "internalType": "uint256[]",
          "name": "",
          "type": "uint256[]"
        }
      ],
      "stateMutability": "view",
      "type": "function"
    },
    {
      "inputs": [],
      "name": "getRandomWord",
      "outputs": [
        {
          "internalType": "uint256",
          "name": "",
          "type": "uint256"
        }
      ],
      "stateMutability": "view",
      "type": "function"
    },
    {
      "inputs": [
        {
          "internalType": "address",
          "name": "user",
          "type": "address"
        }
      ],
      "name": "getUserPositions",
      "outputs": [
        {
          "internalType": "uint256[]",
          "name": "",
          "type": "uint256[]"
        }
      ],
      "stateMutability": "view",
      "type": "function"
    },
    {
      "inputs": [
        {
          "internalType": "address",
          "name": "user",
          "type": "address"
        }
      ],
      "name": "getUserTicketCount",
      "outputs": [
        {
          "internalType": "uint256",
          "name": "",
          "type": "uint256"
        }
      ],
      "stateMutability": "view",
      "type": "function"
    },
    {
      "inputs": [
        {
          "internalType": "uint256",
          "name": "",
          "type": "uint256"
        }
      ],
      "name": "groupAWinners",
      "outputs": [
        {
          "internalType": "uint256",
          "name": "",
          "type": "uint256"
        }
      ],
      "stateMutability": "view",
      "type": "function"
    },
    {
      "inputs": [
        {
          "internalType": "uint256",
          "name": "",
          "type": "uint256"
        }
      ],
      "name": "groupBWinners",
      "outputs": [
        {
          "internalType": "uint256",
          "name": "",
          "type": "uint256"
        }
      ],
      "stateMutability": "view",
      "type": "function"
    },
    {
      "inputs": [
        {
          "internalType": "uint256",
          "name": "",
          "type": "uint256"
        }
      ],
      "name": "groupCWinners",
      "outputs": [
        {
          "internalType": "uint256",
          "name": "",
          "type": "uint256"
        }
      ],
      "stateMutability": "view",
      "type": "function"
    },
    {
      "inputs": [
        {
          "internalType": "uint256",
          "name": "",
          "type": "uint256"
        }
      ],
      "name": "groupDWinners",
      "outputs": [
        {
          "internalType": "uint256",
          "name": "",
          "type": "uint256"
        }
      ],
      "stateMutability": "view",
      "type": "function"
    },
    {
      "inputs": [],
      "name": "isPoolFilled",
      "outputs": [
        {
          "internalType": "bool",
          "name": "",
          "type": "bool"
        }
      ],
      "stateMutability": "view",
      "type": "function"
    },
    {
      "inputs": [
        {
          "internalType": "uint256",
          "name": "",
          "type": "uint256"
        }
      ],
      "name": "isPositionTaken",
      "outputs": [
        {
          "internalType": "bool",
          "name": "",
          "type": "bool"
        }
      ],
      "stateMutability": "view",
      "type": "function"
    },
    {
      "inputs": [],
      "name": "isVRFRequested",
      "outputs": [
        {
          "internalType": "bool",
          "name": "",
          "type": "bool"
        }
      ],
      "stateMutability": "view",
      "type": "function"
    },
    {
      "inputs": [],
      "name": "keyHash",
      "outputs": [
        {
          "internalType": "bytes32",
          "name": "",
          "type": "bytes32"
        }
      ],
      "stateMutability": "view",
      "type": "function"
    },
    {
      "inputs": [
        {
          "internalType": "address",
          "name": "",
          "type": "address"
        }
      ],
      "name": "lastPurchaseBlock",
      "outputs": [
        {
          "internalType": "uint256",
          "name": "",
          "type": "uint256"
        }
      ],
      "stateMutability": "view",
      "type": "function"
    },
    {
      "inputs": [],
      "name": "numWords",
      "outputs": [
        {
          "internalType": "uint32",
          "name": "",
          "type": "uint32"
        }
      ],
      "stateMutability": "view",
      "type": "function"
    },
    {
      "inputs": [],
      "name": "owner",
      "outputs": [
        {
          "internalType": "address",
          "name": "",
          "type": "address"
        }
      ],
      "stateMutability": "view",
      "type": "function"
    },
    {
      "inputs": [],
      "name": "platformWallet",
      "outputs": [
        {
          "internalType": "address",
          "name": "",
          "type": "address"
        }
      ],
      "stateMutability": "view",
      "type": "function"
    },
    {
      "inputs": [],
      "name": "poolFilled",
      "outputs": [
        {
          "internalType": "bool",
          "name": "",
          "type": "bool"
        }
      ],
      "stateMutability": "view",
      "type": "function"
    },
    {
      "inputs": [],
      "name": "randomWord",
      "outputs": [
        {
          "internalType": "uint256",
          "name": "",
          "type": "uint256"
        }
      ],
      "stateMutability": "view",
      "type": "function"
    },
    {
      "inputs": [
        {
          "internalType": "uint256",
          "name": "requestId",
          "type": "uint256"
        },
        {
          "internalType": "uint256[]",
          "name": "randomWords",
          "type": "uint256[]"
        }
      ],
      "name": "rawFulfillRandomWords",
      "outputs": [],
      "stateMutability": "nonpayable",
      "type": "function"
    },
    {
      "inputs": [],
      "name": "requestConfirmations",
      "outputs": [
        {
          "internalType": "uint16",
          "name": "",
          "type": "uint16"
        }
      ],
      "stateMutability": "view",
      "type": "function"
    },
    {
      "inputs": [],
      "name": "s_vrfCoordinator",
      "outputs": [
        {
          "internalType": "contract IVRFCoordinatorV2Plus",
          "name": "",
          "type": "address"
        }
      ],
      "stateMutability": "view",
      "type": "function"
    },
    {
      "inputs": [
        {
          "internalType": "address",
          "name": "_vrfCoordinator",
          "type": "address"
        }
      ],
      "name": "setCoordinator",
      "outputs": [],
      "stateMutability": "nonpayable",
      "type": "function"
    },
    {
      "inputs": [],
      "name": "subscriptionId",
      "outputs": [
        {
          "internalType": "uint256",
          "name": "",
          "type": "uint256"
        }
      ],
      "stateMutability": "view",
      "type": "function"
    },
    {
      "inputs": [],
      "name": "ticketsSold",
      "outputs": [
        {
          "internalType": "uint256",
          "name": "",
          "type": "uint256"
        }
      ],
      "stateMutability": "view",
      "type": "function"
    },
    {
      "inputs": [
        {
          "internalType": "address",
          "name": "to",
          "type": "address"
        }
      ],
      "name": "transferOwnership",
      "outputs": [],
      "stateMutability": "nonpayable",
      "type": "function"
    },
    {
      "inputs": [],
      "name": "triggerDraw",
      "outputs": [],
      "stateMutability": "nonpayable",
      "type": "function"
    },
    {
      "inputs": [],
      "name": "usdt",
      "outputs": [
        {
          "internalType": "contract IERC20",
          "name": "",
          "type": "address"
        }
      ],
      "stateMutability": "view",
      "type": "function"
    },
    {
      "inputs": [
        {
          "internalType": "address",
          "name": "",
          "type": "address"
        },
        {
          "internalType": "uint256",
          "name": "",
          "type": "uint256"
        }
      ],
      "name": "userPositions",
      "outputs": [
        {
          "internalType": "uint256",
          "name": "",
          "type": "uint256"
        }
      ],
      "stateMutability": "view",
      "type": "function"
    },
    {
      "inputs": [
        {
          "internalType": "address",
          "name": "",
          "type": "address"
        }
      ],
      "name": "userTicketCount",
      "outputs": [
        {
          "internalType": "uint256",
          "name": "",
          "type": "uint256"
        }
      ],
      "stateMutability": "view",
      "type": "function"
    },
    {
      "inputs": [],
      "name": "vrfRequested",
      "outputs": [
        {
          "internalType": "bool",
          "name": "",
          "type": "bool"
        }
      ],
      "stateMutability": "view",
      "type": "function"
    },
    {
      "inputs": [],
      "name": "winnersSelected",
      "outputs": [
        {
          "internalType": "bool",
          "name": "",
          "type": "bool"
        }
      ],
      "stateMutability": "view",
      "type": "function"
    }
  ],
  "bytecode": "0x61012060405260016004553480156200001757600080fd5b5060405162002ca738038062002ca78339810160408190526200003a9162000306565b60016000908155839033908190816200009a5760405162461bcd60e51b815260206004820152601860248201527f43616e6e6f7420736574206f776e657220746f207a65726f000000000000000060448201526064015b60405180910390fd5b600180546001600160a01b0319166001600160a01b0384811691909117909155811615620000cd57620000cd816200023d565b5050506001600160a01b038116620000f85760405163d92e233d60e01b815260040160405180910390fd5b600380546001600160a01b0319166001600160a01b039283161790558516620001645760405162461bcd60e51b815260206004820152601460248201527f496e76616c696420555344542061646472657373000000000000000000000000604482015260640162000091565b6001600160a01b038416620001bc5760405162461bcd60e51b815260206004820152601760248201527f496e76616c696420706c6174666f726d2077616c6c6574000000000000000000604482015260640162000091565b6001600160a01b038316620002145760405162461bcd60e51b815260206004820152601760248201527f496e76616c69642056524620636f6f7264696e61746f72000000000000000000604482015260640162000091565b6001600160a01b0394851660e05292841661010052921660805260a09190915260c05262000363565b336001600160a01b03821603620002975760405162461bcd60e51b815260206004820152601760248201527f43616e6e6f74207472616e7366657220746f2073656c66000000000000000000604482015260640162000091565b600280546001600160a01b0319166001600160a01b03838116918217909255600154604051919216907fed8889f560326eb138920d842192f0eb3dd22b4f139c87a2c57538e05bae127890600090a350565b80516001600160a01b03811681146200030157600080fd5b919050565b600080600080600060a086880312156200031f57600080fd5b6200032a86620002e9565b94506200033a60208701620002e9565b93506200034a60408701620002e9565b6060870151608090970151959894975095949392505050565b60805160a05160c05160e051610100516128c7620003e0600039600081816107fe0152611f75015260008181610485015281816109f401528181610d5c015281816114c80152611f5301526000818161055b01526118bb0152600081816103e201526118e10152600081816104e9015261188101526128c76000f3fe608060405234801561001057600080fd5b50600436106103ba5760003560e01c80638a6cd886116101f4578063b7738cc51161011a578063e23e3b51116100ad578063f2fde38b1161007c578063f2fde38b146107d5578063f3baf070146107e8578063f5684183146107f0578063fa2af9da146107f957600080fd5b8063e23e3b51146107b2578063e535dce8146105b0578063ecf33f2a146105a0578063f15ed4fa146105a057600080fd5b8063cb87ce67116100e9578063cb87ce671461073c578063d0a753af1461075c578063d4a66ca014610797578063df265a9f146107a757600080fd5b8063b7738cc514610703578063c1f8d5cc14610716578063c38ec990146105b0578063c421a16e1461072957600080fd5b8063963ef2a2116101925780639ff860f5116101615780639ff860f5146106af578063a583024b146106b7578063a75454f4146106e0578063b0fb162f146106e857600080fd5b8063963ef2a21461066b5780639bf4bdf6146106945780639d3260d71461054e5780639eccacf61461069c57600080fd5b80638da5cb5b116101ce5780638da5cb5b146106365780638ea98117146106475780638f15024f1461065a578063924d46961461066357600080fd5b80638a6cd886146105fe5780638bc53285146106105780638c44f7151461062357600080fd5b80635e1b4d99116102e457806379ba509711610277578063825d2ab711610246578063825d2ab7146105cd578063842a6f9d146105b057806386cbf53a146105d55780638a19c8bc146105f557600080fd5b806379ba5097146105a85780637c457888146105b05780637ccfd7fc146105b8578063808511a1146105c057600080fd5b80636bd5dfce116102b35780636bd5dfce1461057d5780636c6e99d7146105855780636f4e031c1461058d578063766c3e67146105a057600080fd5b80635e1b4d991461053b5780635ecc1df11461054e5780635f6f0e631461052b57806361728f391461055657600080fd5b80632e4e9ea11161035c5780633b2bcbf11161032b5780633b2bcbf1146104e4578063402914f51461050b578063452dac3a1461052b5780634e71d92d1461053357600080fd5b80632e4e9ea1146104785780632f48ab7d146104805780632f6f81d9146104bf578063338bd511146104c757600080fd5b80631a95f15f116103985780631a95f15f1461041a5780631fe543e31461042457806324f74697146104395780632a6bc2dd1461045857600080fd5b806303e96fe3146103bf57806309c1ba2e146103dd5780631a595f6514610412575b600080fd5b6103c7610820565b6040516103d49190612428565b60405180910390f35b6104047f000000000000000000000000000000000000000000000000000000000000000081565b6040519081526020016103d4565b6104046108aa565b610404621e848081565b6104376104323660046124e1565b6108c2565b005b6104436207a12081565b60405163ffffffff90911681526020016103d4565b61046b610466366004612549565b610917565b6040516103d4919061256b565b610404602881565b6104a77f000000000000000000000000000000000000000000000000000000000000000081565b6040516001600160a01b0390911681526020016103d4565b610404600381565b60065462010000900460ff165b60405190151581526020016103d4565b6104a77f000000000000000000000000000000000000000000000000000000000000000081565b610404610519366004612549565b60116020526000908152604090205481565b610404600a81565b610437610983565b6104046105493660046125af565b610a8a565b610404600181565b6104047f000000000000000000000000000000000000000000000000000000000000000081565b61046b610abb565b61046b610b13565b61040461059b3660046125d9565b610b69565b610404601e81565b610437610b8a565b610404601481565b610443600181565b6006546104d49060ff1681565b610437610c38565b6104046105e3366004612549565b600c6020526000908152604090205481565b61040460045481565b6006546104d490610100900460ff1681565b6006546104d49062010000900460ff1681565b6104046106313660046125d9565b610dcf565b6001546001600160a01b03166104a7565b610437610655366004612549565b610ddf565b61040460055481565b61046b610ed1565b610404610679366004612549565b6001600160a01b03166000908152600b602052604090205490565b61046b610f27565b6003546104a7906001600160a01b031681565b61046b610fed565b6104046106c5366004612549565b6001600160a01b031660009081526011602052604090205490565b600754610404565b6106f0600381565b60405161ffff90911681526020016103d4565b6104376107113660046125f2565b611043565b6104046107243660046125d9565b611596565b6104046107373660046125d9565b6115a6565b61040461074a366004612549565b600b6020526000908152604090205481565b61076f61076a3660046125d9565b6115b6565b604080519485526001600160a01b0390931660208501529183015260608201526080016103d4565b600654610100900460ff166104d4565b60065460ff166104d4565b6104d46107c03660046125d9565b60096020526000908152604090205460ff1681565b6104376107e3366004612549565b6115f9565b610404606481565b61040460075481565b6104a77f000000000000000000000000000000000000000000000000000000000000000081565b60606008805480602002602001604051908101604052809291908181526020016000905b828210156108a15760008481526020908190206040805160808101825260048602909201805483526001808201546001600160a01b0316848601526002820154928401929092526003015460608301529083529092019101610844565b50505050905090565b6000600554621e84806108bd919061264a565b905090565b6003546001600160a01b031633146109075760035460405163073e64fd60e21b81523360048201526001600160a01b0390911660248201526044015b60405180910390fd5b61091283838361160d565b505050565b6001600160a01b0381166000908152600a602090815260409182902080548351818402810184019094528084526060939283018282801561097757602002820191906000526020600020905b815481526020019060010190808311610963575b50505050509050919050565b61098b611760565b33600090815260116020526040902054806109de5760405162461bcd60e51b8152602060048201526013602482015272139bc818db185a5b58589b1948185b5bdd5b9d606a1b60448201526064016108fe565b33600081815260116020526040812055610a23907f00000000000000000000000000000000000000000000000000000000000000006001600160a01b0316908361178a565b336001600160a01b03167f701a77bd5e0b7b1ffffe478c3c19e3caadca855782127fca812c7ccd9646cdc4826001600454610a5e9190612667565b604080519283526020830191909152429082015260600160405180910390a250610a886001600055565b565b600a6020528160005260406000208181548110610aa657600080fd5b90600052602060002001600091509150505481565b6060600d805480602002602001604051908101604052809291908181526020018280548015610b0957602002820191906000526020600020905b815481526020019060010190808311610af5575b5050505050905090565b6060600e805480602002602001604051908101604052809291908181526020018280548015610b095760200282019190600052602060002090815481526020019060010190808311610af5575050505050905090565b600f8181548110610b7957600080fd5b600091825260209091200154905081565b6002546001600160a01b03163314610bdd5760405162461bcd60e51b815260206004820152601660248201527526bab9ba10313290383937b837b9b2b21037bbb732b960511b60448201526064016108fe565b600180546001600160a01b0319808216339081179093556002805490911690556040516001600160a01b03909116919082907f8be0079c531659141344cd1fd0a4f28419497f9722a3daafe3b4186f6b6457e090600090a350565b610c40611760565b60065460ff16610c885760405162461bcd60e51b8152602060048201526013602482015272141bdbdb081b9bdd08199a5b1b1959081e595d606a1b60448201526064016108fe565b600654610100900460ff1615610cd85760405162461bcd60e51b815260206004820152601560248201527415949188185b1c9958591e481c995c5d595cdd1959605a1b60448201526064016108fe565b606460055414610d215760405162461bcd60e51b8152602060048201526014602482015273125b9d985b1a59081d1a58dad95d0818dbdd5b9d60621b60448201526064016108fe565b6000610d316064621e848061264a565b905060006103e8610d4360018461264a565b610d4d9190612690565b9050610d836001600160a01b037f000000000000000000000000000000000000000000000000000000000000000016338361178a565b610d8b6117e9565b60045460405182815233907f30cd2845bf40e778f971b7a6136902d91de01053b2aa9914ddb9e396204f706d9060200160405180910390a35050610a886001600055565b60108181548110610b7957600080fd5b6001546001600160a01b03163314801590610e0557506003546001600160a01b03163314155b15610e565733610e1d6001546001600160a01b031690565b60035460405163061db9c160e01b81526001600160a01b03938416600482015291831660248301529190911660448201526064016108fe565b6001600160a01b038116610e7d5760405163d92e233d60e01b815260040160405180910390fd5b600380546001600160a01b0319166001600160a01b0383169081179091556040519081527fd1a6a14209a385a964d036e404cb5cfb71f4000cdb03c9366292430787261be69060200160405180910390a150565b6060600f805480602002602001604051908101604052809291908181526020018280548015610b095760200282019190600052602060002090815481526020019060010190808311610af5575050505050905090565b606060006005546064610f3a9190612667565b905060008167ffffffffffffffff811115610f5757610f576126a4565b604051908082528060200260200182016040528015610f80578160200160208202803683370190505b509050600060015b60648111610fe45760008181526009602052604090205460ff16610fd25780838381518110610fb957610fb96126ba565b602090810291909101015281610fce816126d0565b9250505b80610fdc816126d0565b915050610f88565b50909392505050565b60606010805480602002602001604051908101604052809291908181526020018280548015610b095760200282019190600052602060002090815481526020019060010190808311610af5575050505050905090565b61104b611760565b60065460ff161561108d5760405162461bcd60e51b815260206004820152600c60248201526b141bdbdb081a5cc8199d5b1b60a21b60448201526064016108fe565b600654610100900460ff16156110d85760405162461bcd60e51b815260206004820152601060248201526f4472617720696e2070726f677265737360801b60448201526064016108fe565b80158015906110e85750600a8111155b61112c5760405162461bcd60e51b81526020600482015260156024820152744d7573742062757920312d3130207469636b65747360581b60448201526064016108fe565b60055460649061113d9083906126e9565b111561118b5760405162461bcd60e51b815260206004820152601860248201527f45786365656473206d6178207061727469636970616e7473000000000000000060448201526064016108fe565b336000908152600c602052604090205443116111e95760405162461bcd60e51b815260206004820152601f60248201527f4d6178207075726368617365732070657220626c6f636b20726561636865640060448201526064016108fe565b336000908152600c60209081526040808320439055600b9091529020546014906112149083906126e9565b11156112625760405162461bcd60e51b815260206004820152601f60248201527f45786365656473206d6178203230207469636b6574732070657220757365720060448201526064016108fe565b60005b8181101561146a576000838383818110611281576112816126ba565b9050602002013590506001811015801561129c575060648111155b6112db5760405162461bcd60e51b815260206004820152601060248201526f24b73b30b634b2103837b9b4ba34b7b760811b60448201526064016108fe565b60008181526009602052604090205460ff16156113335760405162461bcd60e51b81526020600482015260166024820152752837b9b4ba34b7b71030b63932b0b23c903a30b5b2b760511b60448201526064016108fe565b6000818152600960209081526040808320805460ff1916600190811790915533808552600a845282852080548084018255908652848620018690558251608081018452958652928501928352429185019182526004805460608701908152600880549384018155909552945194027ff3f7a9fe364faab93b216da50a3214154f22a0a2b415b23a84c8169e8b636ee381019490945590517ff3f7a9fe364faab93b216da50a3214154f22a0a2b415b23a84c8169e8b636ee4840180546001600160a01b03929092166001600160a01b0319909216919091179055517ff3f7a9fe364faab93b216da50a3214154f22a0a2b415b23a84c8169e8b636ee5830155517ff3f7a9fe364faab93b216da50a3214154f22a0a2b415b23a84c8169e8b636ee69091015580611462816126d0565b915050611265565b50336000908152600b60205260408120805483929061148a9084906126e9565b9091555050600580548291906000906114a49084906126e9565b90915550600090506114b982621e848061264a565b90506114f06001600160a01b037f0000000000000000000000000000000000000000000000000000000000000000163330846119fb565b60045460405133907f1dae28b421b911a4474c89d602190e4ced33fc059a827a657b2e8afe37a4e95e9061152b9087908790819088906126fc565b60405180910390a3606460055403611587576006805460ff1916600117905560045460408051606481524260208201527f2f175f06e9e98a031b67651e940b202eb5594b8c635aeb92bdac6fce470183d4910160405180910390a25b506115926001600055565b5050565b600e8181548110610b7957600080fd5b600d8181548110610b7957600080fd5b600881815481106115c657600080fd5b600091825260209091206004909102018054600182015460028301546003909301549193506001600160a01b0316919084565b611601611a3a565b61160a81611a8d565b50565b600654610100900460ff166116585760405162461bcd60e51b8152602060048201526011602482015270159491881b9bdd081c995c5d595cdd1959607a1b60448201526064016108fe565b60065462010000900460ff16156116b15760405162461bcd60e51b815260206004820152601860248201527f57696e6e65727320616c72656164792073656c6563746564000000000000000060448201526064016108fe565b6064600554146116fa5760405162461bcd60e51b8152602060048201526014602482015273125b9d985b1a59081d1a58dad95d0818dbdd5b9d60621b60448201526064016108fe565b8181600081811061170d5761170d6126ba565b905060200201356007819055506004547f936fe18cf1ae151e1bc53947d9b72671fb007ae8fb2ec8ad96d98a23c8d51dc160075460405161175091815260200190565b60405180910390a2610912611b37565b60026000540361178357604051633ee5aeb560e01b815260040160405180910390fd5b6002600055565b6040516001600160a01b0383811660248301526044820183905261091291859182169063a9059cbb906064015b604051602081830303815290604052915060e01b6020820180516001600160e01b038381831617835250505050612004565b60065460ff1661182d5760405162461bcd60e51b815260206004820152600f60248201526e141bdbdb081b9bdd08199a5b1b1959608a1b60448201526064016108fe565b600654610100900460ff161561187d5760405162461bcd60e51b815260206004820152601560248201527415949188185b1c9958591e481c995c5d595cdd1959605a1b60448201526064016108fe565b60007f00000000000000000000000000000000000000000000000000000000000000006001600160a01b0316639b1c385e6040518060c001604052807f000000000000000000000000000000000000000000000000000000000000000081526020017f00000000000000000000000000000000000000000000000000000000000000008152602001600361ffff1681526020016207a12063ffffffff168152602001600163ffffffff168152602001611946604051806020016040528060001515815250612075565b8152506040518263ffffffff1660e01b81526004016119659190612742565b6020604051808303816000875af1158015611984573d6000803e3d6000fd5b505050506040513d601f19601f820116820180604052508101906119a891906127de565b6006805461ff001916610100179055600454604051919250907fc6f253de430148d7581a940518a73a6d98efc85ea9162887a3918443ba67c212906119f09084815260200190565b60405180910390a250565b6040516001600160a01b038481166024830152838116604483015260648201839052611a349186918216906323b872dd906084016117b7565b50505050565b6001546001600160a01b03163314610a885760405162461bcd60e51b815260206004820152601660248201527527b7363c9031b0b63630b1363290313c9037bbb732b960511b60448201526064016108fe565b336001600160a01b03821603611ae55760405162461bcd60e51b815260206004820152601760248201527f43616e6e6f74207472616e7366657220746f2073656c6600000000000000000060448201526064016108fe565b600280546001600160a01b0319166001600160a01b03838116918217909255600154604051919216907fed8889f560326eb138920d842192f0eb3dd22b4f139c87a2c57538e05bae127890600090a350565b6000611b416120e6565b90506000611b536064621e848061264a565b905060006103e8611b6560018461264a565b611b6f9190612690565b905060006064611b8060038561264a565b611b8a9190612690565b9050600082611b998386612667565b611ba39190612667565b90506000600a6064611bb6601e8561264a565b611bc09190612690565b611bca9190612690565b9050600060146064611bdd601e8661264a565b611be79190612690565b611bf19190612690565b90506000601e6064611c0460148761264a565b611c0e9190612690565b611c189190612690565b9050600060286064611c2b60148861264a565b611c359190612690565b611c3f9190612690565b90506000805b600a811015611d025760008b8381518110611c6257611c626126ba565b6020908102919091010151600d805460018101825560009182527fd7b6990105719101dabeb77144f2a3385c8033acd3af97e9423a695e81ad1eb501829055909150611cad8261223d565b6001600160a01b038116600090815260116020526040812080549293508a92909190611cda9084906126e9565b90915550849050611cea816126d0565b94505050508080611cfa906126d0565b915050611c45565b5060005b6014811015611dc35760008b8381518110611d2357611d236126ba565b6020908102919091010151600e805460018101825560009182527fbb7b4a454dc3493923482f07822329ed19e8244eff582cc204f8554c3620c3fd01829055909150611d6e8261223d565b6001600160a01b038116600090815260116020526040812080549293508992909190611d9b9084906126e9565b90915550849050611dab816126d0565b94505050508080611dbb906126d0565b915050611d06565b5060005b601e811015611e845760008b8381518110611de457611de46126ba565b6020908102919091010151600f805460018101825560009182527f8d1108e10bcb7c27dddfc02ed9d693a074039d026cf4ea4240b40f7d581ac80201829055909150611e2f8261223d565b6001600160a01b038116600090815260116020526040812080549293508892909190611e5c9084906126e9565b90915550849050611e6c816126d0565b94505050508080611e7c906126d0565b915050611dc7565b5060005b6028811015611f455760008b8381518110611ea557611ea56126ba565b60209081029190910101516010805460018101825560009182527f1b6847dc741a1b0cd08d278845f9d819d87b734759afb55fe2de5cb82a9ae67201829055909150611ef08261223d565b6001600160a01b038116600090815260116020526040812080549293508792909190611f1d9084906126e9565b90915550849050611f2d816126d0565b94505050508080611f3d906126d0565b915050611e88565b50611f9a6001600160a01b037f0000000000000000000000000000000000000000000000000000000000000000167f00000000000000000000000000000000000000000000000000000000000000008961178a565b6006805462ff00001916620100001790556004546040517fd8bcf583aca15996ae7bc790ea5ea477ec328b9e7c092799726f67c5d1404fb990611fe890600d90600e90600f90601090612837565b60405180910390a2611ff86122fd565b50505050505050505050565b600080602060008451602086016000885af180612027576040513d6000823e3d81fd5b50506000513d9150811561203f57806001141561204c565b6001600160a01b0384163b155b15611a3457604051635274afe760e01b81526001600160a01b03851660048201526024016108fe565b60607f92fd13387c7fe7befbc38d303d6468778fb9731bc4583f17d92989c6fcfdeaaa826040516024016120ae91511515815260200190565b60408051601f198184030181529190526020810180516001600160e01b03166001600160e01b03199093169290921790915292915050565b604080516064808252610ca082019092526060916000919060208201610c808036833701905050905060005b6064811015612155576121268160016126e9565b828281518110612138576121386126ba565b60209081029190910101528061214d816126d0565b915050612112565b50600061216460016064612667565b90505b801561223757600061217a8260016126e9565b60075460408051602081019290925281018490526060016040516020818303038152906040528051906020012060001c6121b4919061288f565b90508281815181106121c8576121c86126ba565b60200260200101518383815181106121e2576121e26126ba565b60200260200101518484815181106121fc576121fc6126ba565b60200260200101858481518110612215576122156126ba565b602090810291909101019190915252508061222f816128a3565b915050612167565b50919050565b6000805b6008548110156122bf57826008828154811061225f5761225f6126ba565b906000526020600020906004020160000154036122ad5760088181548110612289576122896126ba565b60009182526020909120600160049092020101546001600160a01b03169392505050565b806122b7816126d0565b915050612241565b5060405162461bcd60e51b8152602060048201526012602482015271141bdcda5d1a5bdb881b9bdd08199bdd5b9960721b60448201526064016108fe565b6123096008600061239c565b612315600d60006123bd565b612321600e60006123bd565b61232d600f60006123bd565b612339601060006123bd565b6006805462ffffff19169055600060078190556005819055600480549161235f836126d0565b90915550506004546040514281527fb5d9dd711deaba429a82837af3c0430f5046e7668c98075d5ac89f63530a563a9060200160405180910390a2565b508054600082556004029060005260206000209081019061160a91906123db565b508054600082559060005260206000209081019061160a9190612413565b5b8082111561240f5760008082556001820180546001600160a01b03191690556002820181905560038201556004016123dc565b5090565b5b8082111561240f5760008155600101612414565b602080825282518282018190526000919060409081850190868401855b8281101561248857815180518552868101516001600160a01b03168786015285810151868601526060908101519085015260809093019290850190600101612445565b5091979650505050505050565b60008083601f8401126124a757600080fd5b50813567ffffffffffffffff8111156124bf57600080fd5b6020830191508360208260051b85010111156124da57600080fd5b9250929050565b6000806000604084860312156124f657600080fd5b83359250602084013567ffffffffffffffff81111561251457600080fd5b61252086828701612495565b9497909650939450505050565b80356001600160a01b038116811461254457600080fd5b919050565b60006020828403121561255b57600080fd5b6125648261252d565b9392505050565b6020808252825182820181905260009190848201906040850190845b818110156125a357835183529284019291840191600101612587565b50909695505050505050565b600080604083850312156125c257600080fd5b6125cb8361252d565b946020939093013593505050565b6000602082840312156125eb57600080fd5b5035919050565b6000806020838503121561260557600080fd5b823567ffffffffffffffff81111561261c57600080fd5b61262885828601612495565b90969095509350505050565b634e487b7160e01b600052601160045260246000fd5b808202811582820484141761266157612661612634565b92915050565b8181038181111561266157612661612634565b634e487b7160e01b600052601260045260246000fd5b60008261269f5761269f61267a565b500490565b634e487b7160e01b600052604160045260246000fd5b634e487b7160e01b600052603260045260246000fd5b6000600182016126e2576126e2612634565b5060010190565b8082018082111561266157612661612634565b6060808252810184905260006001600160fb1b0385111561271c57600080fd5b8460051b8087608085013760208301949094525060408101919091520160800192915050565b6000602080835283518184015280840151604084015261ffff6040850151166060840152606084015163ffffffff80821660808601528060808701511660a0860152505060a084015160c08085015280518060e086015260005b818110156127b9578281018401518682016101000152830161279c565b506101009250600083828701015282601f19601f830116860101935050505092915050565b6000602082840312156127f057600080fd5b5051919050565b6000815480845260208085019450836000528060002060005b8381101561282c57815487529582019560019182019101612810565b509495945050505050565b60808152600061284a60808301876127f7565b828103602084015261285c81876127f7565b9050828103604084015261287081866127f7565b9050828103606084015261288481856127f7565b979650505050505050565b60008261289e5761289e61267a565b500690565b6000816128b2576128b2612634565b50600019019056fea164736f6c6343000814000a",
  "linkReferences": {},
  "deployedLinkReferences": {}
}