{
  "_format": "hh-sol-artifact-1",
  "contractName": "PoolChain_Micro_PositionSelect",
  "sourceName": "contracts/PoolChain_Micro_PositionSelect.sol",
  "abi": [
    {
      "inputs": [
        {
          "internalType": "address",
          "name": "_usdt",
          "type": "address"
        },
        {
          "internalType": "address",
          "name": "_platformWallet",
          "type": "address"
        }
      ],
      "stateMutability": "nonpayable",
      "type": "constructor"
    },
    {
      "inputs": [],
      "name": "EnforcedPause",
      "type": "error"
    },
    {
      "inputs": [],
      "name": "ExpectedPause",
      "type": "error"
    },
    {
      "inputs": [
        {
          "internalType": "address",
          "name": "owner",
          "type": "address"
        }
      ],
      "name": "OwnableInvalidOwner",
      "type": "error"
    },
    {
      "inputs": [
        {
          "internalType": "address",
          "name": "account",
          "type": "address"
        }
      ],
      "name": "OwnableUnauthorizedAccount",
      "type": "error"
    },
    {
      "inputs": [],
      "name": "ReentrancyGuardReentrantCall",
      "type": "error"
    },
    {
      "inputs": [
        {
          "internalType": "address",
          "name": "token",
          "type": "address"
        }
      ],
      "name": "SafeERC20FailedOperation",
      "type": "error"
    },
    {
      "anonymous": false,
      "inputs": [
        {
          "indexed": true,
          "internalType": "uint256",
          "name": "round",
          "type": "uint256"
        },
        {
          "indexed": false,
          "internalType": "uint256",
          "name": "timestamp",
          "type": "uint256"
        }
      ],
      "name": "DrawExecuted",
      "type": "event"
    },
    {
      "anonymous": false,
      "inputs": [
        {
          "indexed": true,
          "internalType": "address",
          "name": "previousOwner",
          "type": "address"
        },
        {
          "indexed": true,
          "internalType": "address",
          "name": "newOwner",
          "type": "address"
        }
      ],
      "name": "OwnershipTransferred",
      "type": "event"
    },
    {
      "anonymous": false,
      "inputs": [
        {
          "indexed": false,
          "internalType": "address",
          "name": "account",
          "type": "address"
        }
      ],
      "name": "Paused",
      "type": "event"
    },
    {
      "anonymous": false,
      "inputs": [
        {
          "indexed": true,
          "internalType": "uint256",
          "name": "round",
          "type": "uint256"
        },
        {
          "indexed": false,
          "internalType": "uint256",
          "name": "totalTickets",
          "type": "uint256"
        },
        {
          "indexed": false,
          "internalType": "uint256",
          "name": "timestamp",
          "type": "uint256"
        }
      ],
      "name": "PoolFilled",
      "type": "event"
    },
    {
      "anonymous": false,
      "inputs": [
        {
          "indexed": true,
          "internalType": "address",
          "name": "winner",
          "type": "address"
        },
        {
          "indexed": false,
          "internalType": "uint256",
          "name": "amount",
          "type": "uint256"
        },
        {
          "indexed": false,
          "internalType": "uint256",
          "name": "round",
          "type": "uint256"
        },
        {
          "indexed": false,
          "internalType": "uint256",
          "name": "timestamp",
          "type": "uint256"
        }
      ],
      "name": "PrizeClaimed",
      "type": "event"
    },
    {
      "anonymous": false,
      "inputs": [
        {
          "indexed": true,
          "internalType": "uint256",
          "name": "newRound",
          "type": "uint256"
        },
        {
          "indexed": false,
          "internalType": "uint256",
          "name": "timestamp",
          "type": "uint256"
        }
      ],
      "name": "RoundReset",
      "type": "event"
    },
    {
      "anonymous": false,
      "inputs": [
        {
          "indexed": true,
          "internalType": "address",
          "name": "buyer",
          "type": "address"
        },
        {
          "indexed": false,
          "internalType": "uint256[]",
          "name": "positions",
          "type": "uint256[]"
        },
        {
          "indexed": false,
          "internalType": "uint256",
          "name": "quantity",
          "type": "uint256"
        },
        {
          "indexed": false,
          "internalType": "uint256",
          "name": "totalCost",
          "type": "uint256"
        },
        {
          "indexed": false,
          "internalType": "uint256",
          "name": "round",
          "type": "uint256"
        }
      ],
      "name": "TicketsPurchased",
      "type": "event"
    },
    {
      "anonymous": false,
      "inputs": [
        {
          "indexed": false,
          "internalType": "address",
          "name": "account",
          "type": "address"
        }
      ],
      "name": "Unpaused",
      "type": "event"
    },
    {
      "anonymous": false,
      "inputs": [
        {
          "indexed": true,
          "internalType": "uint256",
          "name": "position",
          "type": "uint256"
        },
        {
          "indexed": true,
          "internalType": "address",
          "name": "winner",
          "type": "address"
        },
        {
          "indexed": false,
          "internalType": "uint8",
          "name": "group",
          "type": "uint8"
        },
        {
          "indexed": false,
          "internalType": "uint256",
          "name": "prize",
          "type": "uint256"
        },
        {
          "indexed": false,
          "internalType": "uint256",
          "name": "round",
          "type": "uint256"
        }
      ],
      "name": "WinnerSelected",
      "type": "event"
    },
    {
      "inputs": [],
      "name": "GAS_FEE_PERCENT",
      "outputs": [
        {
          "internalType": "uint256",
          "name": "",
          "type": "uint256"
        }
      ],
      "stateMutability": "view",
      "type": "function"
    },
    {
      "inputs": [],
      "name": "GROUP_A_COUNT",
      "outputs": [
        {
          "internalType": "uint256",
          "name": "",
          "type": "uint256"
        }
      ],
      "stateMutability": "view",
      "type": "function"
    },
    {
      "inputs": [],
      "name": "GROUP_A_PERCENT",
      "outputs": [
        {
          "internalType": "uint256",
          "name": "",
          "type": "uint256"
        }
      ],
      "stateMutability": "view",
      "type": "function"
    },
    {
      "inputs": [],
      "name": "GROUP_B_COUNT",
      "outputs": [
        {
          "internalType": "uint256",
          "name": "",
          "type": "uint256"
        }
      ],
      "stateMutability": "view",
      "type": "function"
    },
    {
      "inputs": [],
      "name": "GROUP_B_PERCENT",
      "outputs": [
        {
          "internalType": "uint256",
          "name": "",
          "type": "uint256"
        }
      ],
      "stateMutability": "view",
      "type": "function"
    },
    {
      "inputs": [],
      "name": "GROUP_C_COUNT",
      "outputs": [
        {
          "internalType": "uint256",
          "name": "",
          "type": "uint256"
        }
      ],
      "stateMutability": "view",
      "type": "function"
    },
    {
      "inputs": [],
      "name": "GROUP_C_PERCENT",
      "outputs": [
        {
          "internalType": "uint256",
          "name": "",
          "type": "uint256"
        }
      ],
      "stateMutability": "view",
      "type": "function"
    },
    {
      "inputs": [],
      "name": "GROUP_D_COUNT",
      "outputs": [
        {
          "internalType": "uint256",
          "name": "",
          "type": "uint256"
        }
      ],
      "stateMutability": "view",
      "type": "function"
    },
    {
      "inputs": [],
      "name": "GROUP_D_PERCENT",
      "outputs": [
        {
          "internalType": "uint256",
          "name": "",
          "type": "uint256"
        }
      ],
      "stateMutability": "view",
      "type": "function"
    },
    {
      "inputs": [],
      "name": "MAX_PARTICIPANTS",
      "outputs": [
        {
          "internalType": "uint256",
          "name": "",
          "type": "uint256"
        }
      ],
      "stateMutability": "view",
      "type": "function"
    },
    {
      "inputs": [],
      "name": "MAX_PURCHASES_PER_BLOCK",
      "outputs": [
        {
          "internalType": "uint256",
          "name": "",
          "type": "uint256"
        }
      ],
      "stateMutability": "view",
      "type": "function"
    },
    {
      "inputs": [],
      "name": "MAX_TICKETS_PER_PURCHASE",
      "outputs": [
        {
          "internalType": "uint256",
          "name": "",
          "type": "uint256"
        }
      ],
      "stateMutability": "view",
      "type": "function"
    },
    {
      "inputs": [],
      "name": "MAX_TICKETS_PER_USER_PER_ROUND",
      "outputs": [
        {
          "internalType": "uint256",
          "name": "",
          "type": "uint256"
        }
      ],
      "stateMutability": "view",
      "type": "function"
    },
    {
      "inputs": [],
      "name": "TICKET_PRICE",
      "outputs": [
        {
          "internalType": "uint256",
          "name": "",
          "type": "uint256"
        }
      ],
      "stateMutability": "view",
      "type": "function"
    },
    {
      "inputs": [],
      "name": "areWinnersSelected",
      "outputs": [
        {
          "internalType": "bool",
          "name": "",
          "type": "bool"
        }
      ],
      "stateMutability": "view",
      "type": "function"
    },
    {
      "inputs": [
        {
          "internalType": "uint256[]",
          "name": "positions",
          "type": "uint256[]"
        }
      ],
      "name": "buySpecificPositions",
      "outputs": [],
      "stateMutability": "nonpayable",
      "type": "function"
    },
    {
      "inputs": [],
      "name": "claim",
      "outputs": [],
      "stateMutability": "nonpayable",
      "type": "function"
    },
    {
      "inputs": [
        {
          "internalType": "address",
          "name": "",
          "type": "address"
        }
      ],
      "name": "claimable",
      "outputs": [
        {
          "internalType": "uint256",
          "name": "",
          "type": "uint256"
        }
      ],
      "stateMutability": "view",
      "type": "function"
    },
    {
      "inputs": [],
      "name": "currentRound",
      "outputs": [
        {
          "internalType": "uint256",
          "name": "",
          "type": "uint256"
        }
      ],
      "stateMutability": "view",
      "type": "function"
    },
    {
      "inputs": [],
      "name": "emergencyWithdraw",
      "outputs": [],
      "stateMutability": "nonpayable",
      "type": "function"
    },
    {
      "inputs": [],
      "name": "executeDraw",
      "outputs": [],
      "stateMutability": "nonpayable",
      "type": "function"
    },
    {
      "inputs": [],
      "name": "getAvailablePositions",
      "outputs": [
        {
          "internalType": "uint256[]",
          "name": "",
          "type": "uint256[]"
        }
      ],
      "stateMutability": "view",
      "type": "function"
    },
    {
      "inputs": [
        {
          "internalType": "address",
          "name": "user",
          "type": "address"
        }
      ],
      "name": "getClaimable",
      "outputs": [
        {
          "internalType": "uint256",
          "name": "",
          "type": "uint256"
        }
      ],
      "stateMutability": "view",
      "type": "function"
    },
    {
      "inputs": [],
      "name": "getCurrentPool",
      "outputs": [
        {
          "internalType": "uint256",
          "name": "",
          "type": "uint256"
        }
      ],
      "stateMutability": "view",
      "type": "function"
    },
    {
      "inputs": [],
      "name": "getGroupAWinners",
      "outputs": [
        {
          "internalType": "address[]",
          "name": "",
          "type": "address[]"
        }
      ],
      "stateMutability": "view",
      "type": "function"
    },
    {
      "inputs": [],
      "name": "getGroupBWinners",
      "outputs": [
        {
          "internalType": "address[]",
          "name": "",
          "type": "address[]"
        }
      ],
      "stateMutability": "view",
      "type": "function"
    },
    {
      "inputs": [],
      "name": "getGroupCWinners",
      "outputs": [
        {
          "internalType": "address[]",
          "name": "",
          "type": "address[]"
        }
      ],
      "stateMutability": "view",
      "type": "function"
    },
    {
      "inputs": [],
      "name": "getGroupDWinners",
      "outputs": [
        {
          "internalType": "address[]",
          "name": "",
          "type": "address[]"
        }
      ],
      "stateMutability": "view",
      "type": "function"
    },
    {
      "inputs": [
        {
          "internalType": "uint256",
          "name": "position",
          "type": "uint256"
        }
      ],
      "name": "getTicketAtPosition",
      "outputs": [
        {
          "components": [
            {
              "internalType": "uint256",
              "name": "position",
              "type": "uint256"
            },
            {
              "internalType": "address",
              "name": "owner",
              "type": "address"
            },
            {
              "internalType": "uint256",
              "name": "purchaseTime",
              "type": "uint256"
            },
            {
              "internalType": "uint256",
              "name": "roundNumber",
              "type": "uint256"
            }
          ],
          "internalType": "struct PoolChain_Micro_PositionSelect.Ticket",
          "name": "",
          "type": "tuple"
        }
      ],
      "stateMutability": "view",
      "type": "function"
    },
    {
      "inputs": [],
      "name": "getTicketCount",
      "outputs": [
        {
          "internalType": "uint256",
          "name": "",
          "type": "uint256"
        }
      ],
      "stateMutability": "view",
      "type": "function"
    },
    {
      "inputs": [
        {
          "internalType": "address",
          "name": "user",
          "type": "address"
        }
      ],
      "name": "getUserPositions",
      "outputs": [
        {
          "internalType": "uint256[]",
          "name": "",
          "type": "uint256[]"
        }
      ],
      "stateMutability": "view",
      "type": "function"
    },
    {
      "inputs": [
        {
          "internalType": "address",
          "name": "user",
          "type": "address"
        }
      ],
      "name": "getUserTicketCount",
      "outputs": [
        {
          "internalType": "uint256",
          "name": "",
          "type": "uint256"
        }
      ],
      "stateMutability": "view",
      "type": "function"
    },
    {
      "inputs": [
        {
          "internalType": "uint256",
          "name": "",
          "type": "uint256"
        }
      ],
      "name": "groupAWinners",
      "outputs": [
        {
          "internalType": "address",
          "name": "",
          "type": "address"
        }
      ],
      "stateMutability": "view",
      "type": "function"
    },
    {
      "inputs": [
        {
          "internalType": "uint256",
          "name": "",
          "type": "uint256"
        }
      ],
      "name": "groupBWinners",
      "outputs": [
        {
          "internalType": "address",
          "name": "",
          "type": "address"
        }
      ],
      "stateMutability": "view",
      "type": "function"
    },
    {
      "inputs": [
        {
          "internalType": "uint256",
          "name": "",
          "type": "uint256"
        }
      ],
      "name": "groupCWinners",
      "outputs": [
        {
          "internalType": "address",
          "name": "",
          "type": "address"
        }
      ],
      "stateMutability": "view",
      "type": "function"
    },
    {
      "inputs": [
        {
          "internalType": "uint256",
          "name": "",
          "type": "uint256"
        }
      ],
      "name": "groupDWinners",
      "outputs": [
        {
          "internalType": "address",
          "name": "",
          "type": "address"
        }
      ],
      "stateMutability": "view",
      "type": "function"
    },
    {
      "inputs": [],
      "name": "isPoolFilled",
      "outputs": [
        {
          "internalType": "bool",
          "name": "",
          "type": "bool"
        }
      ],
      "stateMutability": "view",
      "type": "function"
    },
    {
      "inputs": [
        {
          "internalType": "uint256",
          "name": "",
          "type": "uint256"
        }
      ],
      "name": "isPositionOccupied",
      "outputs": [
        {
          "internalType": "bool",
          "name": "",
          "type": "bool"
        }
      ],
      "stateMutability": "view",
      "type": "function"
    },
    {
      "inputs": [
        {
          "internalType": "uint256",
          "name": "",
          "type": "uint256"
        }
      ],
      "name": "isWinningPosition",
      "outputs": [
        {
          "internalType": "bool",
          "name": "",
          "type": "bool"
        }
      ],
      "stateMutability": "view",
      "type": "function"
    },
    {
      "inputs": [
        {
          "internalType": "address",
          "name": "",
          "type": "address"
        }
      ],
      "name": "lastPurchaseBlock",
      "outputs": [
        {
          "internalType": "uint256",
          "name": "",
          "type": "uint256"
        }
      ],
      "stateMutability": "view",
      "type": "function"
    },
    {
      "inputs": [],
      "name": "owner",
      "outputs": [
        {
          "internalType": "address",
          "name": "",
          "type": "address"
        }
      ],
      "stateMutability": "view",
      "type": "function"
    },
    {
      "inputs": [],
      "name": "pause",
      "outputs": [],
      "stateMutability": "nonpayable",
      "type": "function"
    },
    {
      "inputs": [],
      "name": "paused",
      "outputs": [
        {
          "internalType": "bool",
          "name": "",
          "type": "bool"
        }
      ],
      "stateMutability": "view",
      "type": "function"
    },
    {
      "inputs": [],
      "name": "platformWallet",
      "outputs": [
        {
          "internalType": "address",
          "name": "",
          "type": "address"
        }
      ],
      "stateMutability": "view",
      "type": "function"
    },
    {
      "inputs": [],
      "name": "poolFilled",
      "outputs": [
        {
          "internalType": "bool",
          "name": "",
          "type": "bool"
        }
      ],
      "stateMutability": "view",
      "type": "function"
    },
    {
      "inputs": [
        {
          "internalType": "uint256",
          "name": "",
          "type": "uint256"
        }
      ],
      "name": "positionToTicket",
      "outputs": [
        {
          "internalType": "uint256",
          "name": "position",
          "type": "uint256"
        },
        {
          "internalType": "address",
          "name": "owner",
          "type": "address"
        },
        {
          "internalType": "uint256",
          "name": "purchaseTime",
          "type": "uint256"
        },
        {
          "internalType": "uint256",
          "name": "roundNumber",
          "type": "uint256"
        }
      ],
      "stateMutability": "view",
      "type": "function"
    },
    {
      "inputs": [
        {
          "internalType": "uint256",
          "name": "",
          "type": "uint256"
        }
      ],
      "name": "positionWinnerGroup",
      "outputs": [
        {
          "internalType": "uint8",
          "name": "",
          "type": "uint8"
        }
      ],
      "stateMutability": "view",
      "type": "function"
    },
    {
      "inputs": [
        {
          "internalType": "address",
          "name": "",
          "type": "address"
        }
      ],
      "name": "purchasesInCurrentBlock",
      "outputs": [
        {
          "internalType": "uint256",
          "name": "",
          "type": "uint256"
        }
      ],
      "stateMutability": "view",
      "type": "function"
    },
    {
      "inputs": [],
      "name": "renounceOwnership",
      "outputs": [],
      "stateMutability": "nonpayable",
      "type": "function"
    },
    {
      "inputs": [],
      "name": "resetRound",
      "outputs": [],
      "stateMutability": "nonpayable",
      "type": "function"
    },
    {
      "inputs": [],
      "name": "ticketsSold",
      "outputs": [
        {
          "internalType": "uint256",
          "name": "",
          "type": "uint256"
        }
      ],
      "stateMutability": "view",
      "type": "function"
    },
    {
      "inputs": [
        {
          "internalType": "address",
          "name": "newOwner",
          "type": "address"
        }
      ],
      "name": "transferOwnership",
      "outputs": [],
      "stateMutability": "nonpayable",
      "type": "function"
    },
    {
      "inputs": [],
      "name": "unpause",
      "outputs": [],
      "stateMutability": "nonpayable",
      "type": "function"
    },
    {
      "inputs": [],
      "name": "usdt",
      "outputs": [
        {
          "internalType": "contract IERC20",
          "name": "",
          "type": "address"
        }
      ],
      "stateMutability": "view",
      "type": "function"
    },
    {
      "inputs": [
        {
          "internalType": "address",
          "name": "",
          "type": "address"
        },
        {
          "internalType": "uint256",
          "name": "",
          "type": "uint256"
        }
      ],
      "name": "userPositions",
      "outputs": [
        {
          "internalType": "uint256",
          "name": "",
          "type": "uint256"
        }
      ],
      "stateMutability": "view",
      "type": "function"
    },
    {
      "inputs": [],
      "name": "winnersSelected",
      "outputs": [
        {
          "internalType": "bool",
          "name": "",
          "type": "bool"
        }
      ],
      "stateMutability": "view",
      "type": "function"
    }
  ],
  "bytecode": "0x60c060405260016003553480156200001657600080fd5b50604051620025e1380380620025e18339810160408190526200003991620001a6565b33806200006157604051631e4fbdf760e01b8152600060048201526024015b60405180910390fd5b6200006c8162000139565b50600180556001600160a01b038216620000c95760405162461bcd60e51b815260206004820152601460248201527f496e76616c696420555344542061646472657373000000000000000000000000604482015260640162000058565b6001600160a01b038116620001215760405162461bcd60e51b815260206004820152601760248201527f496e76616c696420706c6174666f726d2077616c6c6574000000000000000000604482015260640162000058565b6001600160a01b039182166080521660a052620001de565b600080546001600160a01b038381166001600160a01b0319831681178455604051919092169283917f8be0079c531659141344cd1fd0a4f28419497f9722a3daafe3b4186f6b6457e09190a35050565b80516001600160a01b0381168114620001a157600080fd5b919050565b60008060408385031215620001ba57600080fd5b620001c58362000189565b9150620001d56020840162000189565b90509250929050565b60805160a0516123b36200022e600039600081816107950152610b9001526000818161041401528181610b6e01528181610c960152818161152501528181611781015261181501526123b36000f3fe608060405234801561001057600080fd5b50600436106103785760003560e01c80638456cb59116101d3578063a583024b11610104578063e535dce8116100a2578063f15ed4fa1161007c578063f15ed4fa1461051f578063f2fde38b14610775578063f3baf07014610788578063fa2af9da1461079057600080fd5b8063e535dce814610527578063eacce63b14610726578063ecf33f2a1461051f57600080fd5b8063c38ec990116100de578063c38ec99014610527578063c421a16e14610700578063db2e21bc14610713578063df265a9f1461071b57600080fd5b8063a583024b146106b1578063b7738cc5146106da578063c1f8d5cc146106ed57600080fd5b80638e3059d5116101715780639574f3591161014b5780639574f35914610643578063963ef2a2146106785780639bf4bdf6146106a15780639ff860f5146106a957600080fd5b80638e3059d5146106125780638f15024f14610632578063924d46961461063b57600080fd5b80638a19c8bc116101ad5780638a19c8bc146105d35780638bc53285146105dc5780638c44f715146105ee5780638da5cb5b1461060157600080fd5b80638456cb59146105a357806384d452ff146105ab57806386cbf53a146105b357600080fd5b80635c975abb116102ad578063715018a61161024b5780637c457888116102255780637c457888146105275780637d3ce7d01461052f578063808511a114610596578063842a6f9d1461052757600080fd5b8063715018a6146104f457806374fa5e18146104fc578063766c3e671461051f57600080fd5b80635f6f0e63116102875780635f6f0e631461048e5780636bd5dfce146104c45780636c6e99d7146104d95780636f4e031c146104e157600080fd5b80635c975abb1461049e5780635e1b4d99146104a95780635ecc1df1146104bc57600080fd5b80632f48ab7d1161031a5780633f4ba83a116102f45780633f4ba83a14610466578063402914f51461046e578063452dac3a1461048e5780634e71d92d1461049657600080fd5b80632f48ab7d1461040f5780632f6f81d91461044e578063338bd5111461045657600080fd5b806321c63a471161035657806321c63a47146103d55780632a6bc2dd146103dd5780632d49a7bf146103fd5780632e4e9ea11461040757600080fd5b80630fba97811461037d5780631a595f65146103b55780631a95f15f146103cb575b600080fd5b6103a061038b3660046120ab565b60066020526000908152604090205460ff1681565b60405190151581526020015b60405180910390f35b6103bd6107b7565b6040519081526020016103ac565b6103bd621e848081565b600f546103bd565b6103f06103eb3660046120e0565b6107cf565b6040516103ac9190612102565b61040561083b565b005b6103bd602881565b6104367f000000000000000000000000000000000000000000000000000000000000000081565b6040516001600160a01b0390911681526020016103ac565b6103bd600381565b600454610100900460ff166103a0565b610405610c15565b6103bd61047c3660046120e0565b600e6020526000908152604090205481565b6103bd600a81565b610405610c25565b60025460ff166103a0565b6103bd6104b7366004612146565b610d15565b6103bd600181565b6104cc610d46565b6040516103ac9190612170565b6104cc610da8565b6104366104ef3660046120ab565b610e08565b610405610e32565b6103a061050a3660046120ab565b600c6020526000908152604090205460ff1681565b6103bd601e81565b6103bd601481565b61056e61053d3660046120ab565b600560205260009081526040902080546001820154600283015460039093015491926001600160a01b039091169184565b604080519485526001600160a01b0390931660208501529183015260608201526080016103ac565b6004546103a09060ff1681565b610405610e44565b610405610e54565b6103bd6105c13660046120e0565b60106020526000908152604090205481565b6103bd60035481565b6004546103a090610100900460ff1681565b6104366105fc3660046120ab565b610fac565b6000546001600160a01b0316610436565b6103bd6106203660046120e0565b60116020526000908152604090205481565b6103bd600f5481565b6104cc610fbc565b6106666106513660046120ab565b600d6020526000908152604090205460ff1681565b60405160ff90911681526020016103ac565b6103bd6106863660046120e0565b6001600160a01b03166000908152600b602052604090205490565b6103f061101c565b6104cc6110e2565b6103bd6106bf3660046120e0565b6001600160a01b03166000908152600e602052604090205490565b6104056106e83660046121b1565b611142565b6104366106fb3660046120ab565b6116e9565b61043661070e3660046120ab565b6116f9565b610405611709565b60045460ff166103a0565b6107396107343660046120ab565b61183f565b6040516103ac9190815181526020808301516001600160a01b031690820152604080830151908201526060918201519181019190915260800190565b6104056107833660046120e0565b611968565b6103bd606481565b6104367f000000000000000000000000000000000000000000000000000000000000000081565b6000600f54621e84806107ca919061223c565b905090565b6001600160a01b0381166000908152600b602090815260409182902080548351818402810184019094528084526060939283018282801561082f57602002820191906000526020600020905b81548152602001906001019080831161081b575b50505050509050919050565b6108436119a3565b61084b6119d0565b60045460ff166108945760405162461bcd60e51b815260206004820152600f60248201526e141bdbdb081b9bdd08199a5b1b1959608a1b60448201526064015b60405180910390fd5b600454610100900460ff16156108ec5760405162461bcd60e51b815260206004820152601860248201527f57696e6e65727320616c72656164792073656c65637465640000000000000000604482015260640161088b565b6064600f54146109355760405162461bcd60e51b8152602060048201526014602482015273125b9d985b1a59081d1a58dad95d0818dbdd5b9d60621b604482015260640161088b565b600061093f6119fa565b905060006109516064621e848061223c565b90506000606461096260038461223c565b61096c919061226f565b9050600061097a8284612283565b90506000600a606461098d601e8561223c565b610997919061226f565b6109a1919061226f565b90506000601460646109b4601e8661223c565b6109be919061226f565b6109c8919061226f565b90506000601e60646109db60148761223c565b6109e5919061226f565b6109ef919061226f565b9050600060286064610a0260148861223c565b610a0c919061226f565b610a16919061226f565b90506000805b600a811015610a6a57610a4a8a8381518110610a3a57610a3a612296565b6020026020010151600188611b8c565b81610a54816122ac565b9250508080610a62906122ac565b915050610a1c565b5060005b6014811015610abc57610a9c8a8381518110610a8c57610a8c612296565b6020026020010151600287611b8c565b81610aa6816122ac565b9250508080610ab4906122ac565b915050610a6e565b5060005b601e811015610b0e57610aee8a8381518110610ade57610ade612296565b6020026020010151600386611b8c565b81610af8816122ac565b9250508080610b06906122ac565b915050610ac0565b5060005b6028811015610b6057610b408a8381518110610b3057610b30612296565b6020026020010151600485611b8c565b81610b4a816122ac565b9250508080610b58906122ac565b915050610b12565b50610bb56001600160a01b037f0000000000000000000000000000000000000000000000000000000000000000167f000000000000000000000000000000000000000000000000000000000000000089611e3f565b6004805461ff0019166101001790556003546040517fb3094e2a3faa3b724d86e73fb8a956c3922ab12785102095a669ade4cb943bab90610bf99042815260200190565b60405180910390a2505050505050505050610c1360018055565b565b610c1d6119a3565b610c13611ea3565b610c2d6119d0565b336000908152600e602052604090205480610c805760405162461bcd60e51b8152602060048201526013602482015272139bc818db185a5b58589b1948185b5bdd5b9d606a1b604482015260640161088b565b336000818152600e6020526040812055610cc5907f00000000000000000000000000000000000000000000000000000000000000006001600160a01b03169083611e3f565b600354604080518381526020810192909252429082015233907f701a77bd5e0b7b1ffffe478c3c19e3caadca855782127fca812c7ccd9646cdc49060600160405180910390a250610c1360018055565b600b6020528160005260406000208181548110610d3157600080fd5b90600052602060002001600091509150505481565b60606007805480602002602001604051908101604052809291908181526020018280548015610d9e57602002820191906000526020600020905b81546001600160a01b03168152600190910190602001808311610d80575b5050505050905090565b60606008805480602002602001604051908101604052809291908181526020018280548015610d9e576020028201919060005260206000209081546001600160a01b03168152600190910190602001808311610d80575050505050905090565b60098181548110610e1857600080fd5b6000918252602090912001546001600160a01b0316905081565b610e3a6119a3565b610c136000611ef5565b610e4c6119a3565b610c13611f45565b610e5c6119a3565b600454610100900460ff16610ea75760405162461bcd60e51b8152602060048201526011602482015270111c985dc81b9bdd08195e1958dd5d1959607a1b604482015260640161088b565b60015b60648111610f1e5760008181526006602052604090205460ff1615610f0c5760008181526005602090815260408083208381556001810180546001600160a01b03191690556002810184905560030183905560069091529020805460ff191690555b80610f16816122ac565b915050610eaa565b50610f2b60076000612079565b610f3760086000612079565b610f4360096000612079565b610f4f600a6000612079565b6004805461ffff191690556000600f8190556003805491610f6f836122ac565b90915550506003546040514281527fb5d9dd711deaba429a82837af3c0430f5046e7668c98075d5ac89f63530a563a9060200160405180910390a2565b600a8181548110610e1857600080fd5b60606009805480602002602001604051908101604052809291908181526020018280548015610d9e576020028201919060005260206000209081546001600160a01b03168152600190910190602001808311610d80575050505050905090565b60606000600f54606461102f9190612283565b905060008167ffffffffffffffff81111561104c5761104c6122c5565b604051908082528060200260200182016040528015611075578160200160208202803683370190505b509050600060015b606481116110d95760008181526006602052604090205460ff166110c757808383815181106110ae576110ae612296565b6020908102919091010152816110c3816122ac565b9250505b806110d1816122ac565b91505061107d565b50909392505050565b6060600a805480602002602001604051908101604052809291908181526020018280548015610d9e576020028201919060005260206000209081546001600160a01b03168152600190910190602001808311610d80575050505050905090565b61114a6119d0565b611152611f82565b600454819060ff16156111965760405162461bcd60e51b815260206004820152600c60248201526b141bdbdb081a5cc8199d5b1b60a21b604482015260640161088b565b6000811180156111a75750600a8111155b6111eb5760405162461bcd60e51b81526020600482015260156024820152744d7573742062757920312d3130207469636b65747360581b604482015260640161088b565b606481600f546111fb91906122db565b11156112495760405162461bcd60e51b815260206004820152601860248201527f45786365656473206d6178207061727469636970616e74730000000000000000604482015260640161088b565b336000908152600b60205260409020546014906112679083906122db565b11156112bf5760405162461bcd60e51b815260206004820152602160248201527f45786365656473206d6178207469636b657473207065722075736572202832306044820152602960f81b606482015260840161088b565b33600090815260106020526040902054430361135957336000908152601160205260409020546001116113345760405162461bcd60e51b815260206004820152601f60248201527f4d6178207075726368617365732070657220626c6f636b207265616368656400604482015260640161088b565b33600090815260116020526040812080549161134f836122ac565b919050555061137a565b33600090815260106020908152604080832043905560119091529020600190555b60005b8181101561150657600084848381811061139957611399612296565b905060200201359050600181101580156113b4575060648111155b6113f35760405162461bcd60e51b815260206004820152601060248201526f24b73b30b634b2103837b9b4ba34b7b760811b604482015260640161088b565b60008181526006602052604090205460ff16156114525760405162461bcd60e51b815260206004820152601960248201527f506f736974696f6e20616c7265616479206f6363757069656400000000000000604482015260640161088b565b600061145f8360016122db565b90505b838110156114f15785858281811061147c5761147c612296565b9050602002013586868581811061149557611495612296565b90506020020135036114df5760405162461bcd60e51b81526020600482015260136024820152724475706c696361746520706f736974696f6e7360681b604482015260640161088b565b806114e9816122ac565b915050611462565b505080806114fe906122ac565b91505061137d565b50600061151682621e848061223c565b905061154d6001600160a01b037f000000000000000000000000000000000000000000000000000000000000000016333084611fa6565b60005b8281101561163a57600085858381811061156c5761156c612296565b604080516080810182526020928302949094013580855233838601818152428785019081526003805460608a019081526000868152600589528781209a518b5593516001808c0180546001600160a01b0319166001600160a01b0390931692909217909155925160028b01555198019790975560068552838120805460ff191688179055908152600b8452918220805495860181558252918120909301819055600f80549194509092909150611621836122ac565b9190505550508080611632906122ac565b915050611550565b50336001600160a01b03167f1dae28b421b911a4474c89d602190e4ced33fc059a827a657b2e8afe37a4e95e8585858560035460405161167e9594939291906122ee565b60405180910390a26064600f54036116da576004805460ff1916600117905560035460408051606481524260208201527f2f175f06e9e98a031b67651e940b202eb5594b8c635aeb92bdac6fce470183d4910160405180910390a25b50506116e560018055565b5050565b60088181548110610e1857600080fd5b60078181548110610e1857600080fd5b6117116119a3565b600454610100900460ff16156117695760405162461bcd60e51b815260206004820152601a60248201527f43616e6e6f742077697468647261772061667465722064726177000000000000604482015260640161088b565b6040516370a0823160e01b81523060048201526000907f00000000000000000000000000000000000000000000000000000000000000006001600160a01b0316906370a0823190602401602060405180830381865afa1580156117d0573d6000803e3d6000fd5b505050506040513d601f19601f820116820180604052508101906117f49190612339565b905061183c61180b6000546001600160a01b031690565b6001600160a01b037f0000000000000000000000000000000000000000000000000000000000000000169083611e3f565b50565b61187360405180608001604052806000815260200160006001600160a01b0316815260200160008152602001600081525090565b60018210158015611885575060648211155b6118c45760405162461bcd60e51b815260206004820152601060248201526f24b73b30b634b2103837b9b4ba34b7b760811b604482015260640161088b565b60008281526006602052604090205460ff1661191a5760405162461bcd60e51b8152602060048201526015602482015274141bdcda5d1a5bdb881b9bdd081bd8d8dd5c1a5959605a1b604482015260640161088b565b5060009081526005602090815260409182902082516080810184528154815260018201546001600160a01b031692810192909252600281015492820192909252600390910154606082015290565b6119706119a3565b6001600160a01b03811661199a57604051631e4fbdf760e01b81526000600482015260240161088b565b61183c81611ef5565b6000546001600160a01b03163314610c135760405163118cdaa760e01b815233600482015260240161088b565b6002600154036119f357604051633ee5aeb560e01b815260040160405180910390fd5b6002600155565b604080516064808252610ca082019092526060916000919060208201610c808036833701905050905060005b6064811015611a6957611a3a8160016122db565b828281518110611a4c57611a4c612296565b602090810291909101015280611a61816122ac565b915050611a26565b50600f54604080514260208083019190915244828401524360608301526080808301949094528251808303909401845260a090910190915281519101206000611ab460016064612283565b90505b8015611b84576000611aca8260016122db565b60408051602081018690529081018490526060016040516020818303038152906040528051906020012060001c611b019190612352565b9050838181518110611b1557611b15612296565b6020026020010151848381518110611b2f57611b2f612296565b6020026020010151858481518110611b4957611b49612296565b60200260200101868481518110611b6257611b62612296565b6020908102919091010191909152525080611b7c81612366565b915050611ab7565b509092915050565b60008381526006602052604090205460ff16611be25760405162461bcd60e51b8152602060048201526015602482015274141bdcda5d1a5bdb881b9bdd081bd8d8dd5c1a5959605a1b604482015260640161088b565b60008381526005602090815260408083208151608081018352815481526001808301546001600160a01b03168286018190526002840154838601526003909301546060830152888652600c8552838620805460ff199081168317909155600d90955292909420805460ff8816941684179055919003611cab57600780546001810182556000919091527fa66cc928b5edb82af9bd49922954155ab7b0942694bea4ce44661d9a8736c6880180546001600160a01b0319166001600160a01b038316179055611db8565b8360ff16600203611d0657600880546001810182556000919091527ff3f7a9fe364faab93b216da50a3214154f22a0a2b415b23a84c8169e8b636ee30180546001600160a01b0319166001600160a01b038316179055611db8565b8360ff16600303611d6157600980546001810182556000919091527f6e1540171b6c0c960b71a7020d9f60077f6af931a8bbf590da0223dacf75c7af0180546001600160a01b0319166001600160a01b038316179055611db8565b8360ff16600403611db857600a80546001810182556000919091527fc65a7bb8d6351c1cf70c95a316cc6a92839c986682d98bc35f958f4883f9d2a80180546001600160a01b0319166001600160a01b0383161790555b6001600160a01b0381166000908152600e602052604081208054859290611de09084906122db565b90915550506003546040805160ff871681526020810186905280820192909252516001600160a01b0383169187917f1755c3bc2f488f345faa37394ee735f4b7d57208d1745cb8b8aae4ed03f943b89181900360600190a35050505050565b6040516001600160a01b03838116602483015260448201839052611e9e91859182169063a9059cbb906064015b604051602081830303815290604052915060e01b6020820180516001600160e01b038381831617835250505050611fe5565b505050565b611eab612056565b6002805460ff191690557f5db9ee0a495bf2e6ff9c91a7834c1ba4fdd244a5e8aa4e537bd38aeae4b073aa335b6040516001600160a01b03909116815260200160405180910390a1565b600080546001600160a01b038381166001600160a01b0319831681178455604051919092169283917f8be0079c531659141344cd1fd0a4f28419497f9722a3daafe3b4186f6b6457e09190a35050565b611f4d611f82565b6002805460ff191660011790557f62e78cea01bee320cd4e420270b5ea74000d11b0c9f74754ebdbfc544b05a258611ed83390565b60025460ff1615610c135760405163d93c066560e01b815260040160405180910390fd5b6040516001600160a01b038481166024830152838116604483015260648201839052611fdf9186918216906323b872dd90608401611e6c565b50505050565b600080602060008451602086016000885af180612008576040513d6000823e3d81fd5b50506000513d9150811561202057806001141561202d565b6001600160a01b0384163b155b15611fdf57604051635274afe760e01b81526001600160a01b038516600482015260240161088b565b60025460ff16610c1357604051638dfc202b60e01b815260040160405180910390fd5b508054600082559060005260206000209081019061183c91905b808211156120a75760008155600101612093565b5090565b6000602082840312156120bd57600080fd5b5035919050565b80356001600160a01b03811681146120db57600080fd5b919050565b6000602082840312156120f257600080fd5b6120fb826120c4565b9392505050565b6020808252825182820181905260009190848201906040850190845b8181101561213a5783518352928401929184019160010161211e565b50909695505050505050565b6000806040838503121561215957600080fd5b612162836120c4565b946020939093013593505050565b6020808252825182820181905260009190848201906040850190845b8181101561213a5783516001600160a01b03168352928401929184019160010161218c565b600080602083850312156121c457600080fd5b823567ffffffffffffffff808211156121dc57600080fd5b818501915085601f8301126121f057600080fd5b8135818111156121ff57600080fd5b8660208260051b850101111561221457600080fd5b60209290920196919550909350505050565b634e487b7160e01b600052601160045260246000fd5b808202811582820484141761225357612253612226565b92915050565b634e487b7160e01b600052601260045260246000fd5b60008261227e5761227e612259565b500490565b8181038181111561225357612253612226565b634e487b7160e01b600052603260045260246000fd5b6000600182016122be576122be612226565b5060010190565b634e487b7160e01b600052604160045260246000fd5b8082018082111561225357612253612226565b6080808252810185905260006001600160fb1b0386111561230e57600080fd5b8560051b808860a0850137602083019590955250604081019290925260608201520160a00192915050565b60006020828403121561234b57600080fd5b5051919050565b60008261236157612361612259565b500690565b60008161237557612375612226565b50600019019056fea26469706673582212207050d6e1ef249a5488ac576612842659a0a1856c738a77edae798c926a4a46bb64736f6c63430008140033",
  "linkReferences": {},
  "deployedLinkReferences": {}
}