{
  "_format": "hh-sol-artifact-1",
  "contractName": "PoolChain_Final",
  "sourceName": "contracts/PoolChain_Final.sol",
  "abi": [
    {
      "inputs": [
        {
          "internalType": "address",
          "name": "_usdt",
          "type": "address"
        },
        {
          "internalType": "address",
          "name": "_platformWallet",
          "type": "address"
        }
      ],
      "stateMutability": "nonpayable",
      "type": "constructor"
    },
    {
      "inputs": [],
      "name": "ReentrancyGuardReentrantCall",
      "type": "error"
    },
    {
      "anonymous": false,
      "inputs": [
        {
          "indexed": true,
          "internalType": "uint256",
          "name": "round",
          "type": "uint256"
        },
        {
          "indexed": false,
          "internalType": "uint256",
          "name": "commitBlock",
          "type": "uint256"
        }
      ],
      "name": "DrawCommitted",
      "type": "event"
    },
    {
      "anonymous": false,
      "inputs": [
        {
          "indexed": true,
          "internalType": "uint256",
          "name": "round",
          "type": "uint256"
        },
        {
          "indexed": false,
          "internalType": "uint256",
          "name": "randomSeed",
          "type": "uint256"
        }
      ],
      "name": "DrawExecuted",
      "type": "event"
    },
    {
      "anonymous": false,
      "inputs": [
        {
          "indexed": true,
          "internalType": "uint256",
          "name": "round",
          "type": "uint256"
        },
        {
          "indexed": false,
          "internalType": "uint256",
          "name": "totalTickets",
          "type": "uint256"
        },
        {
          "indexed": false,
          "internalType": "uint256",
          "name": "timestamp",
          "type": "uint256"
        }
      ],
      "name": "PoolFilled",
      "type": "event"
    },
    {
      "anonymous": false,
      "inputs": [
        {
          "indexed": true,
          "internalType": "address",
          "name": "winner",
          "type": "address"
        },
        {
          "indexed": false,
          "internalType": "uint256",
          "name": "amount",
          "type": "uint256"
        },
        {
          "indexed": true,
          "internalType": "uint256",
          "name": "round",
          "type": "uint256"
        }
      ],
      "name": "PrizeClaimed",
      "type": "event"
    },
    {
      "anonymous": false,
      "inputs": [
        {
          "indexed": true,
          "internalType": "uint256",
          "name": "newRound",
          "type": "uint256"
        }
      ],
      "name": "RoundReset",
      "type": "event"
    },
    {
      "anonymous": false,
      "inputs": [
        {
          "indexed": true,
          "internalType": "address",
          "name": "buyer",
          "type": "address"
        },
        {
          "indexed": false,
          "internalType": "uint256[]",
          "name": "positions",
          "type": "uint256[]"
        },
        {
          "indexed": false,
          "internalType": "uint256",
          "name": "quantity",
          "type": "uint256"
        },
        {
          "indexed": false,
          "internalType": "uint256",
          "name": "totalCost",
          "type": "uint256"
        },
        {
          "indexed": true,
          "internalType": "uint256",
          "name": "round",
          "type": "uint256"
        }
      ],
      "name": "TicketsPurchased",
      "type": "event"
    },
    {
      "anonymous": false,
      "inputs": [
        {
          "indexed": true,
          "internalType": "uint256",
          "name": "round",
          "type": "uint256"
        }
      ],
      "name": "WinnersSelected",
      "type": "event"
    },
    {
      "inputs": [],
      "name": "COMMIT_DELAY",
      "outputs": [
        {
          "internalType": "uint256",
          "name": "",
          "type": "uint256"
        }
      ],
      "stateMutability": "view",
      "type": "function"
    },
    {
      "inputs": [],
      "name": "GAS_FEE_PERCENT",
      "outputs": [
        {
          "internalType": "uint256",
          "name": "",
          "type": "uint256"
        }
      ],
      "stateMutability": "view",
      "type": "function"
    },
    {
      "inputs": [],
      "name": "MAX_PARTICIPANTS",
      "outputs": [
        {
          "internalType": "uint256",
          "name": "",
          "type": "uint256"
        }
      ],
      "stateMutability": "view",
      "type": "function"
    },
    {
      "inputs": [],
      "name": "MAX_TICKETS_PER_PURCHASE",
      "outputs": [
        {
          "internalType": "uint256",
          "name": "",
          "type": "uint256"
        }
      ],
      "stateMutability": "view",
      "type": "function"
    },
    {
      "inputs": [],
      "name": "MAX_TICKETS_PER_USER",
      "outputs": [
        {
          "internalType": "uint256",
          "name": "",
          "type": "uint256"
        }
      ],
      "stateMutability": "view",
      "type": "function"
    },
    {
      "inputs": [],
      "name": "TICKET_PRICE",
      "outputs": [
        {
          "internalType": "uint256",
          "name": "",
          "type": "uint256"
        }
      ],
      "stateMutability": "view",
      "type": "function"
    },
    {
      "inputs": [
        {
          "internalType": "uint256[]",
          "name": "positions",
          "type": "uint256[]"
        }
      ],
      "name": "buySpecificPositions",
      "outputs": [],
      "stateMutability": "nonpayable",
      "type": "function"
    },
    {
      "inputs": [],
      "name": "claimPrize",
      "outputs": [],
      "stateMutability": "nonpayable",
      "type": "function"
    },
    {
      "inputs": [
        {
          "internalType": "address",
          "name": "",
          "type": "address"
        }
      ],
      "name": "claimable",
      "outputs": [
        {
          "internalType": "uint256",
          "name": "",
          "type": "uint256"
        }
      ],
      "stateMutability": "view",
      "type": "function"
    },
    {
      "inputs": [],
      "name": "commitBlock",
      "outputs": [
        {
          "internalType": "uint256",
          "name": "",
          "type": "uint256"
        }
      ],
      "stateMutability": "view",
      "type": "function"
    },
    {
      "inputs": [],
      "name": "currentRound",
      "outputs": [
        {
          "internalType": "uint256",
          "name": "",
          "type": "uint256"
        }
      ],
      "stateMutability": "view",
      "type": "function"
    },
    {
      "inputs": [
        {
          "internalType": "address",
          "name": "user",
          "type": "address"
        }
      ],
      "name": "getClaimable",
      "outputs": [
        {
          "internalType": "uint256",
          "name": "",
          "type": "uint256"
        }
      ],
      "stateMutability": "view",
      "type": "function"
    },
    {
      "inputs": [],
      "name": "getGroupAWinners",
      "outputs": [
        {
          "internalType": "uint256[]",
          "name": "",
          "type": "uint256[]"
        }
      ],
      "stateMutability": "view",
      "type": "function"
    },
    {
      "inputs": [],
      "name": "getGroupBWinners",
      "outputs": [
        {
          "internalType": "uint256[]",
          "name": "",
          "type": "uint256[]"
        }
      ],
      "stateMutability": "view",
      "type": "function"
    },
    {
      "inputs": [],
      "name": "getGroupCWinners",
      "outputs": [
        {
          "internalType": "uint256[]",
          "name": "",
          "type": "uint256[]"
        }
      ],
      "stateMutability": "view",
      "type": "function"
    },
    {
      "inputs": [],
      "name": "getGroupDWinners",
      "outputs": [
        {
          "internalType": "uint256[]",
          "name": "",
          "type": "uint256[]"
        }
      ],
      "stateMutability": "view",
      "type": "function"
    },
    {
      "inputs": [
        {
          "internalType": "address",
          "name": "user",
          "type": "address"
        }
      ],
      "name": "getUserPositions",
      "outputs": [
        {
          "internalType": "uint256[]",
          "name": "",
          "type": "uint256[]"
        }
      ],
      "stateMutability": "view",
      "type": "function"
    },
    {
      "inputs": [
        {
          "internalType": "uint256",
          "name": "",
          "type": "uint256"
        }
      ],
      "name": "groupAWinners",
      "outputs": [
        {
          "internalType": "uint256",
          "name": "",
          "type": "uint256"
        }
      ],
      "stateMutability": "view",
      "type": "function"
    },
    {
      "inputs": [
        {
          "internalType": "uint256",
          "name": "",
          "type": "uint256"
        }
      ],
      "name": "groupBWinners",
      "outputs": [
        {
          "internalType": "uint256",
          "name": "",
          "type": "uint256"
        }
      ],
      "stateMutability": "view",
      "type": "function"
    },
    {
      "inputs": [
        {
          "internalType": "uint256",
          "name": "",
          "type": "uint256"
        }
      ],
      "name": "groupCWinners",
      "outputs": [
        {
          "internalType": "uint256",
          "name": "",
          "type": "uint256"
        }
      ],
      "stateMutability": "view",
      "type": "function"
    },
    {
      "inputs": [
        {
          "internalType": "uint256",
          "name": "",
          "type": "uint256"
        }
      ],
      "name": "groupDWinners",
      "outputs": [
        {
          "internalType": "uint256",
          "name": "",
          "type": "uint256"
        }
      ],
      "stateMutability": "view",
      "type": "function"
    },
    {
      "inputs": [],
      "name": "performDraw",
      "outputs": [],
      "stateMutability": "nonpayable",
      "type": "function"
    },
    {
      "inputs": [],
      "name": "platformWallet",
      "outputs": [
        {
          "internalType": "address",
          "name": "",
          "type": "address"
        }
      ],
      "stateMutability": "view",
      "type": "function"
    },
    {
      "inputs": [],
      "name": "poolFilled",
      "outputs": [
        {
          "internalType": "bool",
          "name": "",
          "type": "bool"
        }
      ],
      "stateMutability": "view",
      "type": "function"
    },
    {
      "inputs": [
        {
          "internalType": "uint256",
          "name": "",
          "type": "uint256"
        }
      ],
      "name": "positionToAddress",
      "outputs": [
        {
          "internalType": "address",
          "name": "",
          "type": "address"
        }
      ],
      "stateMutability": "view",
      "type": "function"
    },
    {
      "inputs": [],
      "name": "resetRound",
      "outputs": [],
      "stateMutability": "nonpayable",
      "type": "function"
    },
    {
      "inputs": [],
      "name": "ticketsSold",
      "outputs": [
        {
          "internalType": "uint256",
          "name": "",
          "type": "uint256"
        }
      ],
      "stateMutability": "view",
      "type": "function"
    },
    {
      "inputs": [],
      "name": "usdt",
      "outputs": [
        {
          "internalType": "contract IERC20",
          "name": "",
          "type": "address"
        }
      ],
      "stateMutability": "view",
      "type": "function"
    },
    {
      "inputs": [
        {
          "internalType": "address",
          "name": "",
          "type": "address"
        },
        {
          "internalType": "uint256",
          "name": "",
          "type": "uint256"
        }
      ],
      "name": "userPositions",
      "outputs": [
        {
          "internalType": "uint256",
          "name": "",
          "type": "uint256"
        }
      ],
      "stateMutability": "view",
      "type": "function"
    },
    {
      "inputs": [
        {
          "internalType": "address",
          "name": "",
          "type": "address"
        }
      ],
      "name": "userTicketCount",
      "outputs": [
        {
          "internalType": "uint256",
          "name": "",
          "type": "uint256"
        }
      ],
      "stateMutability": "view",
      "type": "function"
    },
    {
      "inputs": [],
      "name": "winnersSelected",
      "outputs": [
        {
          "internalType": "bool",
          "name": "",
          "type": "bool"
        }
      ],
      "stateMutability": "view",
      "type": "function"
    }
  ],
  "bytecode": "0x60c060405260018055600060028190556003805461ffff191690556004553480156200002a57600080fd5b5060405162001acc38038062001acc8339810160408190526200004d916200011b565b60016000556001600160a01b0382166200009d5760405162461bcd60e51b815260206004820152600c60248201526b125b9d985b1a59081554d11560a21b60448201526064015b60405180910390fd5b6001600160a01b038116620000e65760405162461bcd60e51b815260206004820152600e60248201526d125b9d985b1a59081dd85b1b195d60921b604482015260640162000094565b6001600160a01b039182166080521660a05262000153565b80516001600160a01b03811681146200011657600080fd5b919050565b600080604083850312156200012f57600080fd5b6200013a83620000fe565b91506200014a60208401620000fe565b90509250929050565b60805160a0516119376200019560003960008181610413015261154d015260008181610235015281816108b601528181610e45015261157f01526119376000f3fe608060405234801561001057600080fd5b50600436106101e55760003560e01c8063808511a11161010f5780639ff860f5116100a2578063c421a16e11610071578063c421a16e146103d3578063cb87ce67146103e6578063f3baf07014610406578063fa2af9da1461040e57600080fd5b80639ff860f51461037c578063a583024b14610384578063b7738cc5146103ad578063c1f8d5cc146103c057600080fd5b80638c44f715116100de5780638c44f7151461032f5780638f15024f14610342578063902ab5101461034b578063924d46961461037457600080fd5b8063808511a1146102ef57806384d452ff1461030c5780638a19c8bc146103145780638bc532851461031d57600080fd5b806350857fb2116101875780636bd5dfce116101565780636bd5dfce146102c45780636c6e99d7146102cc5780636f4e031c146102d457806370740ac9146102e757600080fd5b806350857fb21461026f5780635e1b4d99146102a15780635f6f0e63146102b4578063652826e0146102bc57600080fd5b80632f48ab7d116101c35780632f48ab7d146102305780632f6f81d91461026f578063402914f5146102775780634cdb5d401461029757600080fd5b80630f9a9b98146101ea5780631a95f15f146102065780632a6bc2dd14610210575b600080fd5b6101f360045481565b6040519081526020015b60405180910390f35b6101f3621e848081565b61022361021e3660046116c7565b610435565b6040516101fd91906116e9565b6102577f000000000000000000000000000000000000000000000000000000000000000081565b6040516001600160a01b0390911681526020016101fd565b6101f3600381565b6101f36102853660046116c7565b60086020526000908152604090205481565b61029f6104a1565b005b6101f36102af36600461172d565b610726565b6101f3600a81565b6101f3601481565b610223610757565b6102236107af565b6101f36102e2366004611757565b610805565b61029f610826565b6003546102fc9060ff1681565b60405190151581526020016101fd565b61029f6109a1565b6101f360015481565b6003546102fc90610100900460ff1681565b6101f361033d366004611757565b610b08565b6101f360025481565b610257610359366004611757565b6005602052600090815260409020546001600160a01b031681565b610223610b18565b610223610b6e565b6101f36103923660046116c7565b6001600160a01b031660009081526008602052604090205490565b61029f6103bb366004611770565b610bc4565b6101f36103ce366004611757565b610feb565b6101f36103e1366004611757565b610ffb565b6101f36103f43660046116c7565b60076020526000908152604090205481565b6101f3606481565b6102577f000000000000000000000000000000000000000000000000000000000000000081565b6001600160a01b03811660009081526006602090815260409182902080548351818402810184019094528084526060939283018282801561049557602002820191906000526020600020905b815481526020019060010190808311610481575b50505050509050919050565b6104a961100b565b60035460ff166104f25760405162461bcd60e51b815260206004820152600f60248201526e141bdbdb081b9bdd08199a5b1b1959608a1b60448201526064015b60405180910390fd5b600354610100900460ff161561053d5760405162461bcd60e51b815260206004820152601060248201526f105b1c9958591e48195e1958dd5d195960821b60448201526064016104e9565b60045443116105825760405162461bcd60e51b81526020600482015260116024820152705761697420636f6d6d697420626c6f636b60781b60448201526064016104e9565b6000600454116105c65760405162461bcd60e51b815260206004820152600f60248201526e4e6f20636f6d6d697420626c6f636b60881b60448201526064016104e9565b6004544080610684576105da6003436117fb565b6004819055600154604051918252907fc688e77166c5a65405a53f2e45b435a6733613484bcd9ed42a33f4ad76bedd7d9060200160405180910390a260405162461bcd60e51b815260206004820152603a60248201527f436f6d6d697420657870697265642e204e657720636f6d6d697420637265617460448201527f65642e2054727920616761696e20696e203320626c6f636b732e00000000000060648201526084016104e9565b600081306001546040516020016106c09392919092835260609190911b6bffffffffffffffffffffffff19166020830152603482015260540190565b60408051601f198184030181528282528051602091820120600154818552925190945084937fb3094e2a3faa3b724d86e73fb8a956c3922ab12785102095a669ade4cb943bab92908290030190a261071781611035565b5050506107246001600055565b565b6006602052816000526040600020818154811061074257600080fd5b90600052602060002001600091509150505481565b606060098054806020026020016040519081016040528092919081815260200182805480156107a557602002820191906000526020600020905b815481526020019060010190808311610791575b5050505050905090565b6060600a8054806020026020016040519081016040528092919081815260200182805480156107a55760200282019190600052602060002090815481526020019060010190808311610791575050505050905090565b600b818154811061081557600080fd5b600091825260209091200154905081565b61082e61100b565b336000908152600860205260409020548061087e5760405162461bcd60e51b815260206004820152601060248201526f4e6f7468696e6720746f20636c61696d60801b60448201526064016104e9565b33600081815260086020526040808220919091555163a9059cbb60e01b81526004810191909152602481018290526001600160a01b037f0000000000000000000000000000000000000000000000000000000000000000169063a9059cbb906044016020604051808303816000875af11580156108ff573d6000803e3d6000fd5b505050506040513d601f19601f820116820180604052508101906109239190611814565b61095e5760405162461bcd60e51b815260206004820152600c60248201526b10db185a5b4819985a5b195960a21b60448201526064016104e9565b60015460405182815233907f256642a903d86ec186d0ad895b74bdbe7f9e5a72db568f4c4d58c2fa38b39e1c9060200160405180910390a3506107246001600055565b600354610100900460ff166109f85760405162461bcd60e51b815260206004820152601860248201527f57696e6e657273206e6f742073656c656374656420796574000000000000000060448201526064016104e9565b60015b60648111610a7f576000818152600560205260409020546001600160a01b03168015610a6c576001600160a01b038116600090815260076020908152604080832083905560069091528120610a4f91611671565b600082815260056020526040902080546001600160a01b03191690555b5080610a7781611836565b9150506109fb565b50610a8c60096000611671565b610a98600a6000611671565b610aa4600b6000611671565b610ab0600c6000611671565b600060028190556003805461ffff1916905560048190556001805491610ad583611836565b90915550506001546040517fa14e030bc63f5404d974bacfb0984480dc43ee50f5ffb6b6e7364356ee147f0b90600090a2565b600c818154811061081557600080fd5b6060600b8054806020026020016040519081016040528092919081815260200182805480156107a55760200282019190600052602060002090815481526020019060010190808311610791575050505050905090565b6060600c8054806020026020016040519081016040528092919081815260200182805480156107a55760200282019190600052602060002090815481526020019060010190808311610791575050505050905090565b610bcc61100b565b8015801590610bdc5750600a8111155b610c195760405162461bcd60e51b815260206004820152600e60248201526d312d313020706f736974696f6e7360901b60448201526064016104e9565b60035460ff1615610c585760405162461bcd60e51b8152602060048201526009602482015268141bdbdb08199d5b1b60ba1b60448201526064016104e9565b33600090815260076020526040902054601490610c769083906117fb565b1115610cb55760405162461bcd60e51b815260206004820152600e60248201526d4d6178203230207469636b65747360901b60448201526064016104e9565b60005b81811015610dd1576000838383818110610cd457610cd461184f565b90506020020135905060018110158015610cef575060648111155b610d2e5760405162461bcd60e51b815260206004820152601060248201526f24b73b30b634b2103837b9b4ba34b7b760811b60448201526064016104e9565b6000818152600560205260409020546001600160a01b031615610d845760405162461bcd60e51b815260206004820152600e60248201526d2837b9b4ba34b7b7103a30b5b2b760911b60448201526064016104e9565b600081815260056020908152604080832080546001600160a01b03191633908117909155835260068252822080546001810182559083529120015580610dc981611836565b915050610cb8565b503360009081526007602052604081208054839290610df19084906117fb565b909155505060028054829190600090610e0b9084906117fb565b9091555060009050610e2082621e8480611865565b6040516323b872dd60e01b8152336004820152306024820152604481018290529091507f00000000000000000000000000000000000000000000000000000000000000006001600160a01b0316906323b872dd906064016020604051808303816000875af1158015610e96573d6000803e3d6000fd5b505050506040513d601f19601f82011682018060405250810190610eba9190611814565b610ef85760405162461bcd60e51b815260206004820152600f60248201526e151c985b9cd9995c8819985a5b1959608a1b60448201526064016104e9565b60015460405133907f1dae28b421b911a4474c89d602190e4ced33fc059a827a657b2e8afe37a4e95e90610f3390879087908190889061187c565b60405180910390a3606460025403610fdc576003805460ff19166001178155610f5c90436117fb565b600455600154600254604080519182524260208301527f2f175f06e9e98a031b67651e940b202eb5594b8c635aeb92bdac6fce470183d4910160405180910390a26001547fc688e77166c5a65405a53f2e45b435a6733613484bcd9ed42a33f4ad76bedd7d600454604051610fd391815260200190565b60405180910390a25b50610fe76001600055565b5050565b600a818154811061081557600080fd5b6009818154811061081557600080fd5b60026000540361102e57604051633ee5aeb560e01b815260040160405180910390fd5b6002600055565b604080516064808252610ca0820190925260009160208201610c808036833701905050905060005b60648110156110a0576110718160016117fb565b8282815181106110835761108361184f565b60209081029190910101528061109881611836565b91505061105d565b5060006110af600160646118c2565b90505b801561117f5760006110c58260016117fb565b60408051602081018790529081018490526060016040516020818303038152906040528051906020012060001c6110fc91906118eb565b90508281815181106111105761111061184f565b602002602001015183838151811061112a5761112a61184f565b60200260200101518484815181106111445761114461184f565b6020026020010185848151811061115d5761115d61184f565b6020908102919091010191909152525080611177816118ff565b9150506110b2565b5060005b600a8110156112615760098282815181106111a0576111a061184f565b6020908102919091018101518254600181018455600093845291832090910155825160059082908590859081106111d9576111d961184f565b6020908102919091018101518252810191909152604001600020546001600160a01b03169050801561124e576064611216621e8480610123611865565b6112209190611916565b6001600160a01b038216600090815260086020526040812080549091906112489084906117fb565b90915550505b508061125981611836565b915050611183565b50600a5b601e81101561134457600a8282815181106112825761128261184f565b6020908102919091018101518254600181018455600093845291832090910155825160059082908590859081106112bb576112bb61184f565b6020908102919091018101518252810191909152604001600020546001600160a01b031690508015611331576103e86112f9621e84806105af611865565b6113039190611916565b6001600160a01b0382166000908152600860205260408120805490919061132b9084906117fb565b90915550505b508061133c81611836565b915050611265565b50601e5b603c81101561142757600b8282815181106113655761136561184f565b60209081029190910181015182546001810184556000938452918320909101558251600590829085908590811061139e5761139e61184f565b6020908102919091018101518252810191909152604001600020546001600160a01b031690508015611414576103e86113dc621e8480610285611865565b6113e69190611916565b6001600160a01b0382166000908152600860205260408120805490919061140e9084906117fb565b90915550505b508061141f81611836565b915050611348565b50603c5b606481101561150a57600c8282815181106114485761144861184f565b6020908102919091018101518254600181018455600093845291832090910155825160059082908590859081106114815761148161184f565b6020908102919091018101518252810191909152604001600020546001600160a01b0316905080156114f7576103e86114bf621e84806101e5611865565b6114c99190611916565b6001600160a01b038216600090815260086020526040812080549091906114f19084906117fb565b90915550505b508061150281611836565b91505061142b565b50600061151b6064621e8480611865565b90506000606461152c600384611865565b6115369190611916565b60405163a9059cbb60e01b81526001600160a01b037f000000000000000000000000000000000000000000000000000000000000000081166004830152602482018390529192507f00000000000000000000000000000000000000000000000000000000000000009091169063a9059cbb906044016020604051808303816000875af11580156115ca573d6000803e3d6000fd5b505050506040513d601f19601f820116820180604052508101906115ee9190611814565b6116305760405162461bcd60e51b8152602060048201526013602482015272119959481d1c985b9cd9995c8819985a5b1959606a1b60448201526064016104e9565b6003805461ff0019166101001790556001546040517fd37381c1ec1cdf2d4348fef712c65ca96809fc0b3f174f686061afac71dd2e6c90600090a250505050565b508054600082559060005260206000209081019061168f9190611692565b50565b5b808211156116a75760008155600101611693565b5090565b80356001600160a01b03811681146116c257600080fd5b919050565b6000602082840312156116d957600080fd5b6116e2826116ab565b9392505050565b6020808252825182820181905260009190848201906040850190845b8181101561172157835183529284019291840191600101611705565b50909695505050505050565b6000806040838503121561174057600080fd5b611749836116ab565b946020939093013593505050565b60006020828403121561176957600080fd5b5035919050565b6000806020838503121561178357600080fd5b823567ffffffffffffffff8082111561179b57600080fd5b818501915085601f8301126117af57600080fd5b8135818111156117be57600080fd5b8660208260051b85010111156117d357600080fd5b60209290920196919550909350505050565b634e487b7160e01b600052601160045260246000fd5b8082018082111561180e5761180e6117e5565b92915050565b60006020828403121561182657600080fd5b815180151581146116e257600080fd5b600060018201611848576118486117e5565b5060010190565b634e487b7160e01b600052603260045260246000fd5b808202811582820484141761180e5761180e6117e5565b6060808252810184905260006001600160fb1b0385111561189c57600080fd5b8460051b8087608085013760208301949094525060408101919091520160800192915050565b8181038181111561180e5761180e6117e5565b634e487b7160e01b600052601260045260246000fd5b6000826118fa576118fa6118d5565b500690565b60008161190e5761190e6117e5565b506000190190565b600082611925576119256118d5565b50049056fea164736f6c6343000814000a",
  "linkReferences": {},
  "deployedLinkReferences": {}
}