{
  "_format": "hh-sol-artifact-1",
  "contractName": "PoolChain_Hybrid_Auto",
  "sourceName": "contracts/PoolChain_Hybrid_Auto.sol",
  "abi": [
    {
      "inputs": [
        {
          "internalType": "address",
          "name": "_usdt",
          "type": "address"
        },
        {
          "internalType": "address",
          "name": "_platformWallet",
          "type": "address"
        },
        {
          "internalType": "address",
          "name": "_vrfCoordinator",
          "type": "address"
        },
        {
          "internalType": "uint256",
          "name": "_subscriptionId",
          "type": "uint256"
        },
        {
          "internalType": "bytes32",
          "name": "_keyHash",
          "type": "bytes32"
        }
      ],
      "stateMutability": "nonpayable",
      "type": "constructor"
    },
    {
      "inputs": [
        {
          "internalType": "address",
          "name": "have",
          "type": "address"
        },
        {
          "internalType": "address",
          "name": "want",
          "type": "address"
        }
      ],
      "name": "OnlyCoordinatorCanFulfill",
      "type": "error"
    },
    {
      "inputs": [
        {
          "internalType": "address",
          "name": "have",
          "type": "address"
        },
        {
          "internalType": "address",
          "name": "owner",
          "type": "address"
        },
        {
          "internalType": "address",
          "name": "coordinator",
          "type": "address"
        }
      ],
      "name": "OnlyOwnerOrCoordinator",
      "type": "error"
    },
    {
      "inputs": [],
      "name": "ReentrancyGuardReentrantCall",
      "type": "error"
    },
    {
      "inputs": [
        {
          "internalType": "address",
          "name": "token",
          "type": "address"
        }
      ],
      "name": "SafeERC20FailedOperation",
      "type": "error"
    },
    {
      "inputs": [],
      "name": "ZeroAddress",
      "type": "error"
    },
    {
      "anonymous": false,
      "inputs": [
        {
          "indexed": false,
          "internalType": "address",
          "name": "vrfCoordinator",
          "type": "address"
        }
      ],
      "name": "CoordinatorSet",
      "type": "event"
    },
    {
      "anonymous": false,
      "inputs": [
        {
          "indexed": true,
          "internalType": "address",
          "name": "from",
          "type": "address"
        },
        {
          "indexed": true,
          "internalType": "address",
          "name": "to",
          "type": "address"
        }
      ],
      "name": "OwnershipTransferRequested",
      "type": "event"
    },
    {
      "anonymous": false,
      "inputs": [
        {
          "indexed": true,
          "internalType": "address",
          "name": "from",
          "type": "address"
        },
        {
          "indexed": true,
          "internalType": "address",
          "name": "to",
          "type": "address"
        }
      ],
      "name": "OwnershipTransferred",
      "type": "event"
    },
    {
      "anonymous": false,
      "inputs": [
        {
          "indexed": true,
          "internalType": "uint256",
          "name": "round",
          "type": "uint256"
        },
        {
          "indexed": false,
          "internalType": "uint256",
          "name": "totalTickets",
          "type": "uint256"
        },
        {
          "indexed": false,
          "internalType": "uint256",
          "name": "timestamp",
          "type": "uint256"
        }
      ],
      "name": "PoolFilled",
      "type": "event"
    },
    {
      "anonymous": false,
      "inputs": [
        {
          "indexed": true,
          "internalType": "address",
          "name": "winner",
          "type": "address"
        },
        {
          "indexed": false,
          "internalType": "uint256",
          "name": "amount",
          "type": "uint256"
        },
        {
          "indexed": false,
          "internalType": "uint256",
          "name": "round",
          "type": "uint256"
        },
        {
          "indexed": false,
          "internalType": "uint256",
          "name": "timestamp",
          "type": "uint256"
        }
      ],
      "name": "PrizeClaimed",
      "type": "event"
    },
    {
      "anonymous": false,
      "inputs": [
        {
          "indexed": true,
          "internalType": "uint256",
          "name": "newRound",
          "type": "uint256"
        },
        {
          "indexed": false,
          "internalType": "uint256",
          "name": "timestamp",
          "type": "uint256"
        }
      ],
      "name": "RoundReset",
      "type": "event"
    },
    {
      "anonymous": false,
      "inputs": [
        {
          "indexed": true,
          "internalType": "address",
          "name": "buyer",
          "type": "address"
        },
        {
          "indexed": false,
          "internalType": "uint256[]",
          "name": "positions",
          "type": "uint256[]"
        },
        {
          "indexed": false,
          "internalType": "uint256",
          "name": "quantity",
          "type": "uint256"
        },
        {
          "indexed": false,
          "internalType": "uint256",
          "name": "totalCost",
          "type": "uint256"
        },
        {
          "indexed": true,
          "internalType": "uint256",
          "name": "round",
          "type": "uint256"
        }
      ],
      "name": "TicketsPurchased",
      "type": "event"
    },
    {
      "anonymous": false,
      "inputs": [
        {
          "indexed": true,
          "internalType": "uint256",
          "name": "round",
          "type": "uint256"
        },
        {
          "indexed": false,
          "internalType": "uint256",
          "name": "randomWord",
          "type": "uint256"
        }
      ],
      "name": "VRFReceived",
      "type": "event"
    },
    {
      "anonymous": false,
      "inputs": [
        {
          "indexed": true,
          "internalType": "uint256",
          "name": "round",
          "type": "uint256"
        },
        {
          "indexed": false,
          "internalType": "uint256",
          "name": "requestId",
          "type": "uint256"
        }
      ],
      "name": "VRFRequested",
      "type": "event"
    },
    {
      "anonymous": false,
      "inputs": [
        {
          "indexed": true,
          "internalType": "uint256",
          "name": "round",
          "type": "uint256"
        },
        {
          "indexed": false,
          "internalType": "uint256[]",
          "name": "groupA",
          "type": "uint256[]"
        },
        {
          "indexed": false,
          "internalType": "uint256[]",
          "name": "groupB",
          "type": "uint256[]"
        },
        {
          "indexed": false,
          "internalType": "uint256[]",
          "name": "groupC",
          "type": "uint256[]"
        },
        {
          "indexed": false,
          "internalType": "uint256[]",
          "name": "groupD",
          "type": "uint256[]"
        }
      ],
      "name": "WinnersSelected",
      "type": "event"
    },
    {
      "inputs": [],
      "name": "COORDINATOR",
      "outputs": [
        {
          "internalType": "contract IVRFCoordinatorV2Plus",
          "name": "",
          "type": "address"
        }
      ],
      "stateMutability": "view",
      "type": "function"
    },
    {
      "inputs": [],
      "name": "GAS_FEE_PERCENT",
      "outputs": [
        {
          "internalType": "uint256",
          "name": "",
          "type": "uint256"
        }
      ],
      "stateMutability": "view",
      "type": "function"
    },
    {
      "inputs": [],
      "name": "GROUP_A_COUNT",
      "outputs": [
        {
          "internalType": "uint256",
          "name": "",
          "type": "uint256"
        }
      ],
      "stateMutability": "view",
      "type": "function"
    },
    {
      "inputs": [],
      "name": "GROUP_A_PERCENT",
      "outputs": [
        {
          "internalType": "uint256",
          "name": "",
          "type": "uint256"
        }
      ],
      "stateMutability": "view",
      "type": "function"
    },
    {
      "inputs": [],
      "name": "GROUP_B_COUNT",
      "outputs": [
        {
          "internalType": "uint256",
          "name": "",
          "type": "uint256"
        }
      ],
      "stateMutability": "view",
      "type": "function"
    },
    {
      "inputs": [],
      "name": "GROUP_B_PERCENT",
      "outputs": [
        {
          "internalType": "uint256",
          "name": "",
          "type": "uint256"
        }
      ],
      "stateMutability": "view",
      "type": "function"
    },
    {
      "inputs": [],
      "name": "GROUP_C_COUNT",
      "outputs": [
        {
          "internalType": "uint256",
          "name": "",
          "type": "uint256"
        }
      ],
      "stateMutability": "view",
      "type": "function"
    },
    {
      "inputs": [],
      "name": "GROUP_C_PERCENT",
      "outputs": [
        {
          "internalType": "uint256",
          "name": "",
          "type": "uint256"
        }
      ],
      "stateMutability": "view",
      "type": "function"
    },
    {
      "inputs": [],
      "name": "GROUP_D_COUNT",
      "outputs": [
        {
          "internalType": "uint256",
          "name": "",
          "type": "uint256"
        }
      ],
      "stateMutability": "view",
      "type": "function"
    },
    {
      "inputs": [],
      "name": "GROUP_D_PERCENT",
      "outputs": [
        {
          "internalType": "uint256",
          "name": "",
          "type": "uint256"
        }
      ],
      "stateMutability": "view",
      "type": "function"
    },
    {
      "inputs": [],
      "name": "MAX_PARTICIPANTS",
      "outputs": [
        {
          "internalType": "uint256",
          "name": "",
          "type": "uint256"
        }
      ],
      "stateMutability": "view",
      "type": "function"
    },
    {
      "inputs": [],
      "name": "MAX_PURCHASES_PER_BLOCK",
      "outputs": [
        {
          "internalType": "uint256",
          "name": "",
          "type": "uint256"
        }
      ],
      "stateMutability": "view",
      "type": "function"
    },
    {
      "inputs": [],
      "name": "MAX_TICKETS_PER_PURCHASE",
      "outputs": [
        {
          "internalType": "uint256",
          "name": "",
          "type": "uint256"
        }
      ],
      "stateMutability": "view",
      "type": "function"
    },
    {
      "inputs": [],
      "name": "MAX_TICKETS_PER_USER_PER_ROUND",
      "outputs": [
        {
          "internalType": "uint256",
          "name": "",
          "type": "uint256"
        }
      ],
      "stateMutability": "view",
      "type": "function"
    },
    {
      "inputs": [],
      "name": "TICKET_PRICE",
      "outputs": [
        {
          "internalType": "uint256",
          "name": "",
          "type": "uint256"
        }
      ],
      "stateMutability": "view",
      "type": "function"
    },
    {
      "inputs": [],
      "name": "acceptOwnership",
      "outputs": [],
      "stateMutability": "nonpayable",
      "type": "function"
    },
    {
      "inputs": [
        {
          "internalType": "uint256",
          "name": "",
          "type": "uint256"
        }
      ],
      "name": "allTickets",
      "outputs": [
        {
          "internalType": "uint256",
          "name": "position",
          "type": "uint256"
        },
        {
          "internalType": "address",
          "name": "owner",
          "type": "address"
        },
        {
          "internalType": "uint256",
          "name": "purchaseTime",
          "type": "uint256"
        },
        {
          "internalType": "uint256",
          "name": "roundNumber",
          "type": "uint256"
        }
      ],
      "stateMutability": "view",
      "type": "function"
    },
    {
      "inputs": [],
      "name": "areWinnersSelected",
      "outputs": [
        {
          "internalType": "bool",
          "name": "",
          "type": "bool"
        }
      ],
      "stateMutability": "view",
      "type": "function"
    },
    {
      "inputs": [
        {
          "internalType": "uint256[]",
          "name": "positions",
          "type": "uint256[]"
        }
      ],
      "name": "buySpecificPositions",
      "outputs": [],
      "stateMutability": "nonpayable",
      "type": "function"
    },
    {
      "inputs": [],
      "name": "callbackGasLimit",
      "outputs": [
        {
          "internalType": "uint32",
          "name": "",
          "type": "uint32"
        }
      ],
      "stateMutability": "view",
      "type": "function"
    },
    {
      "inputs": [],
      "name": "claim",
      "outputs": [],
      "stateMutability": "nonpayable",
      "type": "function"
    },
    {
      "inputs": [
        {
          "internalType": "address",
          "name": "",
          "type": "address"
        }
      ],
      "name": "claimable",
      "outputs": [
        {
          "internalType": "uint256",
          "name": "",
          "type": "uint256"
        }
      ],
      "stateMutability": "view",
      "type": "function"
    },
    {
      "inputs": [],
      "name": "currentRound",
      "outputs": [
        {
          "internalType": "uint256",
          "name": "",
          "type": "uint256"
        }
      ],
      "stateMutability": "view",
      "type": "function"
    },
    {
      "inputs": [],
      "name": "getAllTickets",
      "outputs": [
        {
          "components": [
            {
              "internalType": "uint256",
              "name": "position",
              "type": "uint256"
            },
            {
              "internalType": "address",
              "name": "owner",
              "type": "address"
            },
            {
              "internalType": "uint256",
              "name": "purchaseTime",
              "type": "uint256"
            },
            {
              "internalType": "uint256",
              "name": "roundNumber",
              "type": "uint256"
            }
          ],
          "internalType": "struct PoolChain_Hybrid_Auto.Ticket[]",
          "name": "",
          "type": "tuple[]"
        }
      ],
      "stateMutability": "view",
      "type": "function"
    },
    {
      "inputs": [],
      "name": "getAvailablePositions",
      "outputs": [
        {
          "internalType": "uint256[]",
          "name": "",
          "type": "uint256[]"
        }
      ],
      "stateMutability": "view",
      "type": "function"
    },
    {
      "inputs": [
        {
          "internalType": "address",
          "name": "user",
          "type": "address"
        }
      ],
      "name": "getClaimable",
      "outputs": [
        {
          "internalType": "uint256",
          "name": "",
          "type": "uint256"
        }
      ],
      "stateMutability": "view",
      "type": "function"
    },
    {
      "inputs": [],
      "name": "getCurrentPool",
      "outputs": [
        {
          "internalType": "uint256",
          "name": "",
          "type": "uint256"
        }
      ],
      "stateMutability": "view",
      "type": "function"
    },
    {
      "inputs": [],
      "name": "getGroupAWinners",
      "outputs": [
        {
          "internalType": "uint256[]",
          "name": "",
          "type": "uint256[]"
        }
      ],
      "stateMutability": "view",
      "type": "function"
    },
    {
      "inputs": [],
      "name": "getGroupBWinners",
      "outputs": [
        {
          "internalType": "uint256[]",
          "name": "",
          "type": "uint256[]"
        }
      ],
      "stateMutability": "view",
      "type": "function"
    },
    {
      "inputs": [],
      "name": "getGroupCWinners",
      "outputs": [
        {
          "internalType": "uint256[]",
          "name": "",
          "type": "uint256[]"
        }
      ],
      "stateMutability": "view",
      "type": "function"
    },
    {
      "inputs": [],
      "name": "getGroupDWinners",
      "outputs": [
        {
          "internalType": "uint256[]",
          "name": "",
          "type": "uint256[]"
        }
      ],
      "stateMutability": "view",
      "type": "function"
    },
    {
      "inputs": [],
      "name": "getRandomWord",
      "outputs": [
        {
          "internalType": "uint256",
          "name": "",
          "type": "uint256"
        }
      ],
      "stateMutability": "view",
      "type": "function"
    },
    {
      "inputs": [
        {
          "internalType": "address",
          "name": "user",
          "type": "address"
        }
      ],
      "name": "getUserPositions",
      "outputs": [
        {
          "internalType": "uint256[]",
          "name": "",
          "type": "uint256[]"
        }
      ],
      "stateMutability": "view",
      "type": "function"
    },
    {
      "inputs": [
        {
          "internalType": "address",
          "name": "user",
          "type": "address"
        }
      ],
      "name": "getUserTicketCount",
      "outputs": [
        {
          "internalType": "uint256",
          "name": "",
          "type": "uint256"
        }
      ],
      "stateMutability": "view",
      "type": "function"
    },
    {
      "inputs": [
        {
          "internalType": "uint256",
          "name": "",
          "type": "uint256"
        }
      ],
      "name": "groupAWinners",
      "outputs": [
        {
          "internalType": "uint256",
          "name": "",
          "type": "uint256"
        }
      ],
      "stateMutability": "view",
      "type": "function"
    },
    {
      "inputs": [
        {
          "internalType": "uint256",
          "name": "",
          "type": "uint256"
        }
      ],
      "name": "groupBWinners",
      "outputs": [
        {
          "internalType": "uint256",
          "name": "",
          "type": "uint256"
        }
      ],
      "stateMutability": "view",
      "type": "function"
    },
    {
      "inputs": [
        {
          "internalType": "uint256",
          "name": "",
          "type": "uint256"
        }
      ],
      "name": "groupCWinners",
      "outputs": [
        {
          "internalType": "uint256",
          "name": "",
          "type": "uint256"
        }
      ],
      "stateMutability": "view",
      "type": "function"
    },
    {
      "inputs": [
        {
          "internalType": "uint256",
          "name": "",
          "type": "uint256"
        }
      ],
      "name": "groupDWinners",
      "outputs": [
        {
          "internalType": "uint256",
          "name": "",
          "type": "uint256"
        }
      ],
      "stateMutability": "view",
      "type": "function"
    },
    {
      "inputs": [],
      "name": "isPoolFilled",
      "outputs": [
        {
          "internalType": "bool",
          "name": "",
          "type": "bool"
        }
      ],
      "stateMutability": "view",
      "type": "function"
    },
    {
      "inputs": [
        {
          "internalType": "uint256",
          "name": "",
          "type": "uint256"
        }
      ],
      "name": "isPositionTaken",
      "outputs": [
        {
          "internalType": "bool",
          "name": "",
          "type": "bool"
        }
      ],
      "stateMutability": "view",
      "type": "function"
    },
    {
      "inputs": [],
      "name": "isVRFRequested",
      "outputs": [
        {
          "internalType": "bool",
          "name": "",
          "type": "bool"
        }
      ],
      "stateMutability": "view",
      "type": "function"
    },
    {
      "inputs": [],
      "name": "keyHash",
      "outputs": [
        {
          "internalType": "bytes32",
          "name": "",
          "type": "bytes32"
        }
      ],
      "stateMutability": "view",
      "type": "function"
    },
    {
      "inputs": [
        {
          "internalType": "address",
          "name": "",
          "type": "address"
        }
      ],
      "name": "lastPurchaseBlock",
      "outputs": [
        {
          "internalType": "uint256",
          "name": "",
          "type": "uint256"
        }
      ],
      "stateMutability": "view",
      "type": "function"
    },
    {
      "inputs": [],
      "name": "numWords",
      "outputs": [
        {
          "internalType": "uint32",
          "name": "",
          "type": "uint32"
        }
      ],
      "stateMutability": "view",
      "type": "function"
    },
    {
      "inputs": [],
      "name": "owner",
      "outputs": [
        {
          "internalType": "address",
          "name": "",
          "type": "address"
        }
      ],
      "stateMutability": "view",
      "type": "function"
    },
    {
      "inputs": [],
      "name": "platformWallet",
      "outputs": [
        {
          "internalType": "address",
          "name": "",
          "type": "address"
        }
      ],
      "stateMutability": "view",
      "type": "function"
    },
    {
      "inputs": [],
      "name": "poolFilled",
      "outputs": [
        {
          "internalType": "bool",
          "name": "",
          "type": "bool"
        }
      ],
      "stateMutability": "view",
      "type": "function"
    },
    {
      "inputs": [],
      "name": "randomWord",
      "outputs": [
        {
          "internalType": "uint256",
          "name": "",
          "type": "uint256"
        }
      ],
      "stateMutability": "view",
      "type": "function"
    },
    {
      "inputs": [
        {
          "internalType": "uint256",
          "name": "requestId",
          "type": "uint256"
        },
        {
          "internalType": "uint256[]",
          "name": "randomWords",
          "type": "uint256[]"
        }
      ],
      "name": "rawFulfillRandomWords",
      "outputs": [],
      "stateMutability": "nonpayable",
      "type": "function"
    },
    {
      "inputs": [],
      "name": "requestConfirmations",
      "outputs": [
        {
          "internalType": "uint16",
          "name": "",
          "type": "uint16"
        }
      ],
      "stateMutability": "view",
      "type": "function"
    },
    {
      "inputs": [],
      "name": "s_vrfCoordinator",
      "outputs": [
        {
          "internalType": "contract IVRFCoordinatorV2Plus",
          "name": "",
          "type": "address"
        }
      ],
      "stateMutability": "view",
      "type": "function"
    },
    {
      "inputs": [
        {
          "internalType": "address",
          "name": "_vrfCoordinator",
          "type": "address"
        }
      ],
      "name": "setCoordinator",
      "outputs": [],
      "stateMutability": "nonpayable",
      "type": "function"
    },
    {
      "inputs": [],
      "name": "subscriptionId",
      "outputs": [
        {
          "internalType": "uint256",
          "name": "",
          "type": "uint256"
        }
      ],
      "stateMutability": "view",
      "type": "function"
    },
    {
      "inputs": [],
      "name": "ticketsSold",
      "outputs": [
        {
          "internalType": "uint256",
          "name": "",
          "type": "uint256"
        }
      ],
      "stateMutability": "view",
      "type": "function"
    },
    {
      "inputs": [
        {
          "internalType": "address",
          "name": "to",
          "type": "address"
        }
      ],
      "name": "transferOwnership",
      "outputs": [],
      "stateMutability": "nonpayable",
      "type": "function"
    },
    {
      "inputs": [],
      "name": "usdt",
      "outputs": [
        {
          "internalType": "contract IERC20",
          "name": "",
          "type": "address"
        }
      ],
      "stateMutability": "view",
      "type": "function"
    },
    {
      "inputs": [
        {
          "internalType": "address",
          "name": "",
          "type": "address"
        },
        {
          "internalType": "uint256",
          "name": "",
          "type": "uint256"
        }
      ],
      "name": "userPositions",
      "outputs": [
        {
          "internalType": "uint256",
          "name": "",
          "type": "uint256"
        }
      ],
      "stateMutability": "view",
      "type": "function"
    },
    {
      "inputs": [
        {
          "internalType": "address",
          "name": "",
          "type": "address"
        }
      ],
      "name": "userTicketCount",
      "outputs": [
        {
          "internalType": "uint256",
          "name": "",
          "type": "uint256"
        }
      ],
      "stateMutability": "view",
      "type": "function"
    },
    {
      "inputs": [],
      "name": "vrfRequested",
      "outputs": [
        {
          "internalType": "bool",
          "name": "",
          "type": "bool"
        }
      ],
      "stateMutability": "view",
      "type": "function"
    },
    {
      "inputs": [],
      "name": "winnersSelected",
      "outputs": [
        {
          "internalType": "bool",
          "name": "",
          "type": "bool"
        }
      ],
      "stateMutability": "view",
      "type": "function"
    }
  ],
  "bytecode": "0x61012060405260016004553480156200001757600080fd5b5060405162002aca38038062002aca8339810160408190526200003a9162000306565b60016000908155839033908190816200009a5760405162461bcd60e51b815260206004820152601860248201527f43616e6e6f7420736574206f776e657220746f207a65726f000000000000000060448201526064015b60405180910390fd5b600180546001600160a01b0319166001600160a01b0384811691909117909155811615620000cd57620000cd816200023d565b5050506001600160a01b038116620000f85760405163d92e233d60e01b815260040160405180910390fd5b600380546001600160a01b0319166001600160a01b039283161790558516620001645760405162461bcd60e51b815260206004820152601460248201527f496e76616c696420555344542061646472657373000000000000000000000000604482015260640162000091565b6001600160a01b038416620001bc5760405162461bcd60e51b815260206004820152601760248201527f496e76616c696420706c6174666f726d2077616c6c6574000000000000000000604482015260640162000091565b6001600160a01b038316620002145760405162461bcd60e51b815260206004820152601760248201527f496e76616c69642056524620636f6f7264696e61746f72000000000000000000604482015260640162000091565b6001600160a01b0394851660e05292841661010052921660805260a09190915260c05262000363565b336001600160a01b03821603620002975760405162461bcd60e51b815260206004820152601760248201527f43616e6e6f74207472616e7366657220746f2073656c66000000000000000000604482015260640162000091565b600280546001600160a01b0319166001600160a01b03838116918217909255600154604051919216907fed8889f560326eb138920d842192f0eb3dd22b4f139c87a2c57538e05bae127890600090a350565b80516001600160a01b03811681146200030157600080fd5b919050565b600080600080600060a086880312156200031f57600080fd5b6200032a86620002e9565b94506200033a60208701620002e9565b93506200034a60408701620002e9565b6060870151608090970151959894975095949392505050565b60805160a05160c05160e051610100516126f1620003d9600039600081816107e00152611da001526000818161046f015281816109d6015281816113130152611d7e015260008181610545015261174c0152600081816103cc01526117720152600081816104d3015261171201526126f16000f3fe608060405234801561001057600080fd5b50600436106103a45760003560e01c80638a6cd886116101e9578063c1f8d5cc1161010f578063e23e3b51116100ad578063f2fde38b1161007c578063f2fde38b146107b7578063f3baf070146107ca578063f5684183146107d2578063fa2af9da146107db57600080fd5b8063e23e3b5114610794578063e535dce81461059a578063ecf33f2a1461058a578063f15ed4fa1461058a57600080fd5b8063cb87ce67116100e9578063cb87ce671461071e578063d0a753af1461073e578063d4a66ca014610779578063df265a9f1461078957600080fd5b8063c1f8d5cc146106f8578063c38ec9901461059a578063c421a16e1461070b57600080fd5b8063963ef2a211610187578063a583024b11610156578063a583024b14610699578063a75454f4146106c2578063b0fb162f146106ca578063b7738cc5146106e557600080fd5b8063963ef2a21461064d5780639bf4bdf6146106765780639eccacf61461067e5780639ff860f51461069157600080fd5b80638da5cb5b116101c35780638da5cb5b146106185780638ea98117146106295780638f15024f1461063c578063924d46961461064557600080fd5b80638a6cd886146105e05780638bc53285146105f25780638c44f7151461060557600080fd5b80635e1b4d99116102ce578063766c3e671161026c578063808511a11161023b578063808511a1146105aa578063842a6f9d1461059a57806386cbf53a146105b75780638a19c8bc146105d757600080fd5b8063766c3e671461058a57806379ba5097146105925780637c4578881461059a5780637ccfd7fc146105a257600080fd5b806361728f39116102a857806361728f39146105405780636bd5dfce146105675780636c6e99d71461056f5780636f4e031c1461057757600080fd5b80635e1b4d99146105255780635ecc1df1146105385780635f6f0e631461051557600080fd5b80632e4e9ea1116103465780633b2bcbf1116103155780633b2bcbf1146104ce578063402914f5146104f5578063452dac3a146105155780634e71d92d1461051d57600080fd5b80632e4e9ea1146104625780632f48ab7d1461046a5780632f6f81d9146104a9578063338bd511146104b157600080fd5b80631a95f15f116103825780631a95f15f146104045780631fe543e31461040e57806324f74697146104235780632a6bc2dd1461044257600080fd5b806303e96fe3146103a957806309c1ba2e146103c75780631a595f65146103fc575b600080fd5b6103b1610802565b6040516103be9190612252565b60405180910390f35b6103ee7f000000000000000000000000000000000000000000000000000000000000000081565b6040519081526020016103be565b6103ee61088c565b6103ee621e848081565b61042161041c36600461230b565b6108a4565b005b61042d6207a12081565b60405163ffffffff90911681526020016103be565b610455610450366004612373565b6108f9565b6040516103be9190612395565b6103ee602881565b6104917f000000000000000000000000000000000000000000000000000000000000000081565b6040516001600160a01b0390911681526020016103be565b6103ee600381565b60065462010000900460ff165b60405190151581526020016103be565b6104917f000000000000000000000000000000000000000000000000000000000000000081565b6103ee610503366004612373565b60116020526000908152604090205481565b6103ee600a81565b610421610965565b6103ee6105333660046123d9565b610a6c565b6103ee600181565b6103ee7f000000000000000000000000000000000000000000000000000000000000000081565b610455610a9d565b610455610af5565b6103ee610585366004612403565b610b4b565b6103ee601e81565b610421610b6c565b6103ee601481565b61042d600181565b6006546104be9060ff1681565b6103ee6105c5366004612373565b600c6020526000908152604090205481565b6103ee60045481565b6006546104be90610100900460ff1681565b6006546104be9062010000900460ff1681565b6103ee610613366004612403565b610c1a565b6001546001600160a01b0316610491565b610421610637366004612373565b610c2a565b6103ee60055481565b610455610d1c565b6103ee61065b366004612373565b6001600160a01b03166000908152600b602052604090205490565b610455610d72565b600354610491906001600160a01b031681565b610455610e38565b6103ee6106a7366004612373565b6001600160a01b031660009081526011602052604090205490565b6007546103ee565b6106d2600381565b60405161ffff90911681526020016103be565b6104216106f336600461241c565b610e8e565b6103ee610706366004612403565b6113e8565b6103ee610719366004612403565b6113f8565b6103ee61072c366004612373565b600b6020526000908152604090205481565b61075161074c366004612403565b611408565b604080519485526001600160a01b0390931660208501529183015260608201526080016103be565b600654610100900460ff166104be565b60065460ff166104be565b6104be6107a2366004612403565b60096020526000908152604090205460ff1681565b6104216107c5366004612373565b61144b565b6103ee606481565b6103ee60075481565b6104917f000000000000000000000000000000000000000000000000000000000000000081565b60606008805480602002602001604051908101604052809291908181526020016000905b828210156108835760008481526020908190206040805160808101825260048602909201805483526001808201546001600160a01b0316848601526002820154928401929092526003015460608301529083529092019101610826565b50505050905090565b6000600554621e848061089f9190612474565b905090565b6003546001600160a01b031633146108e95760035460405163073e64fd60e21b81523360048201526001600160a01b0390911660248201526044015b60405180910390fd5b6108f483838361145f565b505050565b6001600160a01b0381166000908152600a602090815260409182902080548351818402810184019094528084526060939283018282801561095957602002820191906000526020600020905b815481526020019060010190808311610945575b50505050509050919050565b61096d6115b2565b33600090815260116020526040902054806109c05760405162461bcd60e51b8152602060048201526013602482015272139bc818db185a5b58589b1948185b5bdd5b9d606a1b60448201526064016108e0565b33600081815260116020526040812055610a05907f00000000000000000000000000000000000000000000000000000000000000006001600160a01b031690836115dc565b336001600160a01b03167f701a77bd5e0b7b1ffffe478c3c19e3caadca855782127fca812c7ccd9646cdc4826001600454610a409190612491565b604080519283526020830191909152429082015260600160405180910390a250610a6a6001600055565b565b600a6020528160005260406000208181548110610a8857600080fd5b90600052602060002001600091509150505481565b6060600d805480602002602001604051908101604052809291908181526020018280548015610aeb57602002820191906000526020600020905b815481526020019060010190808311610ad7575b5050505050905090565b6060600e805480602002602001604051908101604052809291908181526020018280548015610aeb5760200282019190600052602060002090815481526020019060010190808311610ad7575050505050905090565b600f8181548110610b5b57600080fd5b600091825260209091200154905081565b6002546001600160a01b03163314610bbf5760405162461bcd60e51b815260206004820152601660248201527526bab9ba10313290383937b837b9b2b21037bbb732b960511b60448201526064016108e0565b600180546001600160a01b0319808216339081179093556002805490911690556040516001600160a01b03909116919082907f8be0079c531659141344cd1fd0a4f28419497f9722a3daafe3b4186f6b6457e090600090a350565b60108181548110610b5b57600080fd5b6001546001600160a01b03163314801590610c5057506003546001600160a01b03163314155b15610ca15733610c686001546001600160a01b031690565b60035460405163061db9c160e01b81526001600160a01b03938416600482015291831660248301529190911660448201526064016108e0565b6001600160a01b038116610cc85760405163d92e233d60e01b815260040160405180910390fd5b600380546001600160a01b0319166001600160a01b0383169081179091556040519081527fd1a6a14209a385a964d036e404cb5cfb71f4000cdb03c9366292430787261be69060200160405180910390a150565b6060600f805480602002602001604051908101604052809291908181526020018280548015610aeb5760200282019190600052602060002090815481526020019060010190808311610ad7575050505050905090565b606060006005546064610d859190612491565b905060008167ffffffffffffffff811115610da257610da26124a4565b604051908082528060200260200182016040528015610dcb578160200160208202803683370190505b509050600060015b60648111610e2f5760008181526009602052604090205460ff16610e1d5780838381518110610e0457610e046124ba565b602090810291909101015281610e19816124d0565b9250505b80610e27816124d0565b915050610dd3565b50909392505050565b60606010805480602002602001604051908101604052809291908181526020018280548015610aeb5760200282019190600052602060002090815481526020019060010190808311610ad7575050505050905090565b610e966115b2565b60065460ff1615610ed85760405162461bcd60e51b815260206004820152600c60248201526b141bdbdb081a5cc8199d5b1b60a21b60448201526064016108e0565b600654610100900460ff1615610f235760405162461bcd60e51b815260206004820152601060248201526f4472617720696e2070726f677265737360801b60448201526064016108e0565b8015801590610f335750600a8111155b610f775760405162461bcd60e51b81526020600482015260156024820152744d7573742062757920312d3130207469636b65747360581b60448201526064016108e0565b600554606490610f889083906124e9565b1115610fd65760405162461bcd60e51b815260206004820152601860248201527f45786365656473206d6178207061727469636970616e7473000000000000000060448201526064016108e0565b336000908152600c602052604090205443116110345760405162461bcd60e51b815260206004820152601f60248201527f4d6178207075726368617365732070657220626c6f636b20726561636865640060448201526064016108e0565b336000908152600c60209081526040808320439055600b90915290205460149061105f9083906124e9565b11156110ad5760405162461bcd60e51b815260206004820152601f60248201527f45786365656473206d6178203230207469636b6574732070657220757365720060448201526064016108e0565b60005b818110156112b55760008383838181106110cc576110cc6124ba565b905060200201359050600181101580156110e7575060648111155b6111265760405162461bcd60e51b815260206004820152601060248201526f24b73b30b634b2103837b9b4ba34b7b760811b60448201526064016108e0565b60008181526009602052604090205460ff161561117e5760405162461bcd60e51b81526020600482015260166024820152752837b9b4ba34b7b71030b63932b0b23c903a30b5b2b760511b60448201526064016108e0565b6000818152600960209081526040808320805460ff1916600190811790915533808552600a845282852080548084018255908652848620018690558251608081018452958652928501928352429185019182526004805460608701908152600880549384018155909552945194027ff3f7a9fe364faab93b216da50a3214154f22a0a2b415b23a84c8169e8b636ee381019490945590517ff3f7a9fe364faab93b216da50a3214154f22a0a2b415b23a84c8169e8b636ee4840180546001600160a01b03929092166001600160a01b0319909216919091179055517ff3f7a9fe364faab93b216da50a3214154f22a0a2b415b23a84c8169e8b636ee5830155517ff3f7a9fe364faab93b216da50a3214154f22a0a2b415b23a84c8169e8b636ee690910155806112ad816124d0565b9150506110b0565b50336000908152600b6020526040812080548392906112d59084906124e9565b9091555050600580548291906000906112ef9084906124e9565b909155506000905061130482621e8480612474565b905061133b6001600160a01b037f00000000000000000000000000000000000000000000000000000000000000001633308461163b565b60045460405133907f1dae28b421b911a4474c89d602190e4ced33fc059a827a657b2e8afe37a4e95e906113769087908790819088906124fc565b60405180910390a36064600554036113d9576006805460ff1916600117905560045460408051606481524260208201527f2f175f06e9e98a031b67651e940b202eb5594b8c635aeb92bdac6fce470183d4910160405180910390a26113d961167a565b506113e46001600055565b5050565b600e8181548110610b5b57600080fd5b600d8181548110610b5b57600080fd5b6008818154811061141857600080fd5b600091825260209091206004909102018054600182015460028301546003909301549193506001600160a01b0316919084565b61145361188c565b61145c816118df565b50565b600654610100900460ff166114aa5760405162461bcd60e51b8152602060048201526011602482015270159491881b9bdd081c995c5d595cdd1959607a1b60448201526064016108e0565b60065462010000900460ff16156115035760405162461bcd60e51b815260206004820152601860248201527f57696e6e65727320616c72656164792073656c6563746564000000000000000060448201526064016108e0565b60646005541461154c5760405162461bcd60e51b8152602060048201526014602482015273125b9d985b1a59081d1a58dad95d0818dbdd5b9d60621b60448201526064016108e0565b8181600081811061155f5761155f6124ba565b905060200201356007819055506004547f936fe18cf1ae151e1bc53947d9b72671fb007ae8fb2ec8ad96d98a23c8d51dc16007546040516115a291815260200190565b60405180910390a26108f4611989565b6002600054036115d557604051633ee5aeb560e01b815260040160405180910390fd5b6002600055565b6040516001600160a01b038381166024830152604482018390526108f491859182169063a9059cbb906064015b604051602081830303815290604052915060e01b6020820180516001600160e01b038381831617835250505050611e2e565b6040516001600160a01b0384811660248301528381166044830152606482018390526116749186918216906323b872dd90608401611609565b50505050565b60065460ff166116be5760405162461bcd60e51b815260206004820152600f60248201526e141bdbdb081b9bdd08199a5b1b1959608a1b60448201526064016108e0565b600654610100900460ff161561170e5760405162461bcd60e51b815260206004820152601560248201527415949188185b1c9958591e481c995c5d595cdd1959605a1b60448201526064016108e0565b60007f00000000000000000000000000000000000000000000000000000000000000006001600160a01b0316639b1c385e6040518060c001604052807f000000000000000000000000000000000000000000000000000000000000000081526020017f00000000000000000000000000000000000000000000000000000000000000008152602001600361ffff1681526020016207a12063ffffffff168152602001600163ffffffff1681526020016117d7604051806020016040528060001515815250611e9f565b8152506040518263ffffffff1660e01b81526004016117f69190612542565b6020604051808303816000875af1158015611815573d6000803e3d6000fd5b505050506040513d601f19601f8201168201806040525081019061183991906125de565b6006805461ff001916610100179055600454604051919250907fc6f253de430148d7581a940518a73a6d98efc85ea9162887a3918443ba67c212906118819084815260200190565b60405180910390a250565b6001546001600160a01b03163314610a6a5760405162461bcd60e51b815260206004820152601660248201527527b7363c9031b0b63630b1363290313c9037bbb732b960511b60448201526064016108e0565b336001600160a01b038216036119375760405162461bcd60e51b815260206004820152601760248201527f43616e6e6f74207472616e7366657220746f2073656c6600000000000000000060448201526064016108e0565b600280546001600160a01b0319166001600160a01b03838116918217909255600154604051919216907fed8889f560326eb138920d842192f0eb3dd22b4f139c87a2c57538e05bae127890600090a350565b6000611993611f10565b905060006119a56064621e8480612474565b9050600060646119b6600384612474565b6119c0919061260d565b905060006119ce8284612491565b90506000600a60646119e1601e85612474565b6119eb919061260d565b6119f5919061260d565b9050600060146064611a08601e86612474565b611a12919061260d565b611a1c919061260d565b90506000601e6064611a2f601487612474565b611a39919061260d565b611a43919061260d565b9050600060286064611a56601488612474565b611a60919061260d565b611a6a919061260d565b90506000805b600a811015611b2d5760008a8381518110611a8d57611a8d6124ba565b6020908102919091010151600d805460018101825560009182527fd7b6990105719101dabeb77144f2a3385c8033acd3af97e9423a695e81ad1eb501829055909150611ad882612067565b6001600160a01b038116600090815260116020526040812080549293508a92909190611b059084906124e9565b90915550849050611b15816124d0565b94505050508080611b25906124d0565b915050611a70565b5060005b6014811015611bee5760008a8381518110611b4e57611b4e6124ba565b6020908102919091010151600e805460018101825560009182527fbb7b4a454dc3493923482f07822329ed19e8244eff582cc204f8554c3620c3fd01829055909150611b9982612067565b6001600160a01b038116600090815260116020526040812080549293508992909190611bc69084906124e9565b90915550849050611bd6816124d0565b94505050508080611be6906124d0565b915050611b31565b5060005b601e811015611caf5760008a8381518110611c0f57611c0f6124ba565b6020908102919091010151600f805460018101825560009182527f8d1108e10bcb7c27dddfc02ed9d693a074039d026cf4ea4240b40f7d581ac80201829055909150611c5a82612067565b6001600160a01b038116600090815260116020526040812080549293508892909190611c879084906124e9565b90915550849050611c97816124d0565b94505050508080611ca7906124d0565b915050611bf2565b5060005b6028811015611d705760008a8381518110611cd057611cd06124ba565b60209081029190910101516010805460018101825560009182527f1b6847dc741a1b0cd08d278845f9d819d87b734759afb55fe2de5cb82a9ae67201829055909150611d1b82612067565b6001600160a01b038116600090815260116020526040812080549293508792909190611d489084906124e9565b90915550849050611d58816124d0565b94505050508080611d68906124d0565b915050611cb3565b50611dc56001600160a01b037f0000000000000000000000000000000000000000000000000000000000000000167f0000000000000000000000000000000000000000000000000000000000000000896115dc565b6006805462ff00001916620100001790556004546040517fd8bcf583aca15996ae7bc790ea5ea477ec328b9e7c092799726f67c5d1404fb990611e1390600d90600e90600f90601090612661565b60405180910390a2611e23612127565b505050505050505050565b600080602060008451602086016000885af180611e51576040513d6000823e3d81fd5b50506000513d91508115611e69578060011415611e76565b6001600160a01b0384163b155b1561167457604051635274afe760e01b81526001600160a01b03851660048201526024016108e0565b60607f92fd13387c7fe7befbc38d303d6468778fb9731bc4583f17d92989c6fcfdeaaa82604051602401611ed891511515815260200190565b60408051601f198184030181529190526020810180516001600160e01b03166001600160e01b03199093169290921790915292915050565b604080516064808252610ca082019092526060916000919060208201610c808036833701905050905060005b6064811015611f7f57611f508160016124e9565b828281518110611f6257611f626124ba565b602090810291909101015280611f77816124d0565b915050611f3c565b506000611f8e60016064612491565b90505b8015612061576000611fa48260016124e9565b60075460408051602081019290925281018490526060016040516020818303038152906040528051906020012060001c611fde91906126b9565b9050828181518110611ff257611ff26124ba565b602002602001015183838151811061200c5761200c6124ba565b6020026020010151848481518110612026576120266124ba565b6020026020010185848151811061203f5761203f6124ba565b6020908102919091010191909152525080612059816126cd565b915050611f91565b50919050565b6000805b6008548110156120e9578260088281548110612089576120896124ba565b906000526020600020906004020160000154036120d757600881815481106120b3576120b36124ba565b60009182526020909120600160049092020101546001600160a01b03169392505050565b806120e1816124d0565b91505061206b565b5060405162461bcd60e51b8152602060048201526012602482015271141bdcda5d1a5bdb881b9bdd08199bdd5b9960721b60448201526064016108e0565b612133600860006121c6565b61213f600d60006121e7565b61214b600e60006121e7565b612157600f60006121e7565b612163601060006121e7565b6006805462ffffff191690556000600781905560058190556004805491612189836124d0565b90915550506004546040514281527fb5d9dd711deaba429a82837af3c0430f5046e7668c98075d5ac89f63530a563a9060200160405180910390a2565b508054600082556004029060005260206000209081019061145c9190612205565b508054600082559060005260206000209081019061145c919061223d565b5b808211156122395760008082556001820180546001600160a01b0319169055600282018190556003820155600401612206565b5090565b5b80821115612239576000815560010161223e565b602080825282518282018190526000919060409081850190868401855b828110156122b257815180518552868101516001600160a01b0316878601528581015186860152606090810151908501526080909301929085019060010161226f565b5091979650505050505050565b60008083601f8401126122d157600080fd5b50813567ffffffffffffffff8111156122e957600080fd5b6020830191508360208260051b850101111561230457600080fd5b9250929050565b60008060006040848603121561232057600080fd5b83359250602084013567ffffffffffffffff81111561233e57600080fd5b61234a868287016122bf565b9497909650939450505050565b80356001600160a01b038116811461236e57600080fd5b919050565b60006020828403121561238557600080fd5b61238e82612357565b9392505050565b6020808252825182820181905260009190848201906040850190845b818110156123cd578351835292840192918401916001016123b1565b50909695505050505050565b600080604083850312156123ec57600080fd5b6123f583612357565b946020939093013593505050565b60006020828403121561241557600080fd5b5035919050565b6000806020838503121561242f57600080fd5b823567ffffffffffffffff81111561244657600080fd5b612452858286016122bf565b90969095509350505050565b634e487b7160e01b600052601160045260246000fd5b808202811582820484141761248b5761248b61245e565b92915050565b8181038181111561248b5761248b61245e565b634e487b7160e01b600052604160045260246000fd5b634e487b7160e01b600052603260045260246000fd5b6000600182016124e2576124e261245e565b5060010190565b8082018082111561248b5761248b61245e565b6060808252810184905260006001600160fb1b0385111561251c57600080fd5b8460051b8087608085013760208301949094525060408101919091520160800192915050565b6000602080835283518184015280840151604084015261ffff6040850151166060840152606084015163ffffffff80821660808601528060808701511660a0860152505060a084015160c08085015280518060e086015260005b818110156125b9578281018401518682016101000152830161259c565b506101009250600083828701015282601f19601f830116860101935050505092915050565b6000602082840312156125f057600080fd5b5051919050565b634e487b7160e01b600052601260045260246000fd5b60008261261c5761261c6125f7565b500490565b6000815480845260208085019450836000528060002060005b838110156126565781548752958201956001918201910161263a565b509495945050505050565b6080815260006126746080830187612621565b82810360208401526126868187612621565b9050828103604084015261269a8186612621565b905082810360608401526126ae8185612621565b979650505050505050565b6000826126c8576126c86125f7565b500690565b6000816126dc576126dc61245e565b50600019019056fea164736f6c6343000814000a",
  "linkReferences": {},
  "deployedLinkReferences": {}
}