{
  "_format": "hh-sol-artifact-1",
  "contractName": "PoolChain_Micro_Mock",
  "sourceName": "contracts/PoolChain_Micro_Mock.sol",
  "abi": [
    {
      "inputs": [
        {
          "internalType": "address",
          "name": "_usdt",
          "type": "address"
        },
        {
          "internalType": "address",
          "name": "_platformWallet",
          "type": "address"
        }
      ],
      "stateMutability": "nonpayable",
      "type": "constructor"
    },
    {
      "inputs": [
        {
          "internalType": "address",
          "name": "owner",
          "type": "address"
        }
      ],
      "name": "OwnableInvalidOwner",
      "type": "error"
    },
    {
      "inputs": [
        {
          "internalType": "address",
          "name": "account",
          "type": "address"
        }
      ],
      "name": "OwnableUnauthorizedAccount",
      "type": "error"
    },
    {
      "inputs": [],
      "name": "ReentrancyGuardReentrantCall",
      "type": "error"
    },
    {
      "inputs": [
        {
          "internalType": "address",
          "name": "token",
          "type": "address"
        }
      ],
      "name": "SafeERC20FailedOperation",
      "type": "error"
    },
    {
      "anonymous": false,
      "inputs": [
        {
          "indexed": true,
          "internalType": "address",
          "name": "previousOwner",
          "type": "address"
        },
        {
          "indexed": true,
          "internalType": "address",
          "name": "newOwner",
          "type": "address"
        }
      ],
      "name": "OwnershipTransferred",
      "type": "event"
    },
    {
      "anonymous": false,
      "inputs": [
        {
          "indexed": false,
          "internalType": "uint256",
          "name": "round",
          "type": "uint256"
        },
        {
          "indexed": false,
          "internalType": "uint256",
          "name": "totalParticipants",
          "type": "uint256"
        },
        {
          "indexed": false,
          "internalType": "uint256",
          "name": "timestamp",
          "type": "uint256"
        }
      ],
      "name": "PoolFilled",
      "type": "event"
    },
    {
      "anonymous": false,
      "inputs": [
        {
          "indexed": true,
          "internalType": "address",
          "name": "user",
          "type": "address"
        },
        {
          "indexed": false,
          "internalType": "uint256",
          "name": "amount",
          "type": "uint256"
        },
        {
          "indexed": false,
          "internalType": "uint256",
          "name": "timestamp",
          "type": "uint256"
        }
      ],
      "name": "PrizeClaimed",
      "type": "event"
    },
    {
      "anonymous": false,
      "inputs": [
        {
          "indexed": false,
          "internalType": "uint256",
          "name": "newRound",
          "type": "uint256"
        },
        {
          "indexed": false,
          "internalType": "uint256",
          "name": "timestamp",
          "type": "uint256"
        }
      ],
      "name": "RoundReset",
      "type": "event"
    },
    {
      "anonymous": false,
      "inputs": [
        {
          "indexed": true,
          "internalType": "address",
          "name": "user",
          "type": "address"
        },
        {
          "indexed": false,
          "internalType": "uint256",
          "name": "round",
          "type": "uint256"
        },
        {
          "indexed": false,
          "internalType": "uint256",
          "name": "position",
          "type": "uint256"
        },
        {
          "indexed": false,
          "internalType": "uint256",
          "name": "timestamp",
          "type": "uint256"
        }
      ],
      "name": "TicketPurchased",
      "type": "event"
    },
    {
      "anonymous": false,
      "inputs": [
        {
          "indexed": false,
          "internalType": "uint256",
          "name": "round",
          "type": "uint256"
        },
        {
          "indexed": false,
          "internalType": "address[]",
          "name": "groupA",
          "type": "address[]"
        },
        {
          "indexed": false,
          "internalType": "address[]",
          "name": "groupB",
          "type": "address[]"
        },
        {
          "indexed": false,
          "internalType": "address[]",
          "name": "groupC",
          "type": "address[]"
        },
        {
          "indexed": false,
          "internalType": "address[]",
          "name": "groupD",
          "type": "address[]"
        },
        {
          "indexed": false,
          "internalType": "uint256",
          "name": "timestamp",
          "type": "uint256"
        }
      ],
      "name": "WinnersSelected",
      "type": "event"
    },
    {
      "inputs": [],
      "name": "GAS_FEE_PERCENT",
      "outputs": [
        {
          "internalType": "uint256",
          "name": "",
          "type": "uint256"
        }
      ],
      "stateMutability": "view",
      "type": "function"
    },
    {
      "inputs": [],
      "name": "GROUP_A_COUNT",
      "outputs": [
        {
          "internalType": "uint256",
          "name": "",
          "type": "uint256"
        }
      ],
      "stateMutability": "view",
      "type": "function"
    },
    {
      "inputs": [],
      "name": "GROUP_A_PERCENT",
      "outputs": [
        {
          "internalType": "uint256",
          "name": "",
          "type": "uint256"
        }
      ],
      "stateMutability": "view",
      "type": "function"
    },
    {
      "inputs": [],
      "name": "GROUP_B_COUNT",
      "outputs": [
        {
          "internalType": "uint256",
          "name": "",
          "type": "uint256"
        }
      ],
      "stateMutability": "view",
      "type": "function"
    },
    {
      "inputs": [],
      "name": "GROUP_B_PERCENT",
      "outputs": [
        {
          "internalType": "uint256",
          "name": "",
          "type": "uint256"
        }
      ],
      "stateMutability": "view",
      "type": "function"
    },
    {
      "inputs": [],
      "name": "GROUP_C_COUNT",
      "outputs": [
        {
          "internalType": "uint256",
          "name": "",
          "type": "uint256"
        }
      ],
      "stateMutability": "view",
      "type": "function"
    },
    {
      "inputs": [],
      "name": "GROUP_C_PERCENT",
      "outputs": [
        {
          "internalType": "uint256",
          "name": "",
          "type": "uint256"
        }
      ],
      "stateMutability": "view",
      "type": "function"
    },
    {
      "inputs": [],
      "name": "GROUP_D_COUNT",
      "outputs": [
        {
          "internalType": "uint256",
          "name": "",
          "type": "uint256"
        }
      ],
      "stateMutability": "view",
      "type": "function"
    },
    {
      "inputs": [],
      "name": "GROUP_D_PERCENT",
      "outputs": [
        {
          "internalType": "uint256",
          "name": "",
          "type": "uint256"
        }
      ],
      "stateMutability": "view",
      "type": "function"
    },
    {
      "inputs": [],
      "name": "MAX_PARTICIPANTS",
      "outputs": [
        {
          "internalType": "uint256",
          "name": "",
          "type": "uint256"
        }
      ],
      "stateMutability": "view",
      "type": "function"
    },
    {
      "inputs": [],
      "name": "TICKET_PRICE",
      "outputs": [
        {
          "internalType": "uint256",
          "name": "",
          "type": "uint256"
        }
      ],
      "stateMutability": "view",
      "type": "function"
    },
    {
      "inputs": [],
      "name": "areWinnersSelected",
      "outputs": [
        {
          "internalType": "bool",
          "name": "",
          "type": "bool"
        }
      ],
      "stateMutability": "view",
      "type": "function"
    },
    {
      "inputs": [],
      "name": "buyTicket",
      "outputs": [],
      "stateMutability": "nonpayable",
      "type": "function"
    },
    {
      "inputs": [],
      "name": "claim",
      "outputs": [],
      "stateMutability": "nonpayable",
      "type": "function"
    },
    {
      "inputs": [
        {
          "internalType": "address",
          "name": "",
          "type": "address"
        }
      ],
      "name": "claimable",
      "outputs": [
        {
          "internalType": "uint256",
          "name": "",
          "type": "uint256"
        }
      ],
      "stateMutability": "view",
      "type": "function"
    },
    {
      "inputs": [],
      "name": "currentRound",
      "outputs": [
        {
          "internalType": "uint256",
          "name": "",
          "type": "uint256"
        }
      ],
      "stateMutability": "view",
      "type": "function"
    },
    {
      "inputs": [],
      "name": "executeDraw",
      "outputs": [],
      "stateMutability": "nonpayable",
      "type": "function"
    },
    {
      "inputs": [
        {
          "internalType": "address",
          "name": "user",
          "type": "address"
        }
      ],
      "name": "getClaimable",
      "outputs": [
        {
          "internalType": "uint256",
          "name": "",
          "type": "uint256"
        }
      ],
      "stateMutability": "view",
      "type": "function"
    },
    {
      "inputs": [],
      "name": "getCurrentPool",
      "outputs": [
        {
          "internalType": "uint256",
          "name": "",
          "type": "uint256"
        }
      ],
      "stateMutability": "view",
      "type": "function"
    },
    {
      "inputs": [],
      "name": "getGroupAWinners",
      "outputs": [
        {
          "internalType": "address[]",
          "name": "",
          "type": "address[]"
        }
      ],
      "stateMutability": "view",
      "type": "function"
    },
    {
      "inputs": [],
      "name": "getGroupBWinners",
      "outputs": [
        {
          "internalType": "address[]",
          "name": "",
          "type": "address[]"
        }
      ],
      "stateMutability": "view",
      "type": "function"
    },
    {
      "inputs": [],
      "name": "getGroupCWinners",
      "outputs": [
        {
          "internalType": "address[]",
          "name": "",
          "type": "address[]"
        }
      ],
      "stateMutability": "view",
      "type": "function"
    },
    {
      "inputs": [],
      "name": "getGroupDWinners",
      "outputs": [
        {
          "internalType": "address[]",
          "name": "",
          "type": "address[]"
        }
      ],
      "stateMutability": "view",
      "type": "function"
    },
    {
      "inputs": [],
      "name": "getParticipantCount",
      "outputs": [
        {
          "internalType": "uint256",
          "name": "",
          "type": "uint256"
        }
      ],
      "stateMutability": "view",
      "type": "function"
    },
    {
      "inputs": [],
      "name": "getParticipants",
      "outputs": [
        {
          "internalType": "address[]",
          "name": "",
          "type": "address[]"
        }
      ],
      "stateMutability": "view",
      "type": "function"
    },
    {
      "inputs": [
        {
          "internalType": "uint256",
          "name": "",
          "type": "uint256"
        }
      ],
      "name": "groupA",
      "outputs": [
        {
          "internalType": "address",
          "name": "",
          "type": "address"
        }
      ],
      "stateMutability": "view",
      "type": "function"
    },
    {
      "inputs": [
        {
          "internalType": "uint256",
          "name": "",
          "type": "uint256"
        }
      ],
      "name": "groupB",
      "outputs": [
        {
          "internalType": "address",
          "name": "",
          "type": "address"
        }
      ],
      "stateMutability": "view",
      "type": "function"
    },
    {
      "inputs": [
        {
          "internalType": "uint256",
          "name": "",
          "type": "uint256"
        }
      ],
      "name": "groupC",
      "outputs": [
        {
          "internalType": "address",
          "name": "",
          "type": "address"
        }
      ],
      "stateMutability": "view",
      "type": "function"
    },
    {
      "inputs": [
        {
          "internalType": "uint256",
          "name": "",
          "type": "uint256"
        }
      ],
      "name": "groupD",
      "outputs": [
        {
          "internalType": "address",
          "name": "",
          "type": "address"
        }
      ],
      "stateMutability": "view",
      "type": "function"
    },
    {
      "inputs": [
        {
          "internalType": "address",
          "name": "",
          "type": "address"
        }
      ],
      "name": "hasParticipated",
      "outputs": [
        {
          "internalType": "bool",
          "name": "",
          "type": "bool"
        }
      ],
      "stateMutability": "view",
      "type": "function"
    },
    {
      "inputs": [],
      "name": "isPoolFilled",
      "outputs": [
        {
          "internalType": "bool",
          "name": "",
          "type": "bool"
        }
      ],
      "stateMutability": "view",
      "type": "function"
    },
    {
      "inputs": [],
      "name": "owner",
      "outputs": [
        {
          "internalType": "address",
          "name": "",
          "type": "address"
        }
      ],
      "stateMutability": "view",
      "type": "function"
    },
    {
      "inputs": [
        {
          "internalType": "uint256",
          "name": "",
          "type": "uint256"
        }
      ],
      "name": "participants",
      "outputs": [
        {
          "internalType": "address",
          "name": "",
          "type": "address"
        }
      ],
      "stateMutability": "view",
      "type": "function"
    },
    {
      "inputs": [],
      "name": "platformWallet",
      "outputs": [
        {
          "internalType": "address",
          "name": "",
          "type": "address"
        }
      ],
      "stateMutability": "view",
      "type": "function"
    },
    {
      "inputs": [],
      "name": "poolFilled",
      "outputs": [
        {
          "internalType": "bool",
          "name": "",
          "type": "bool"
        }
      ],
      "stateMutability": "view",
      "type": "function"
    },
    {
      "inputs": [],
      "name": "renounceOwnership",
      "outputs": [],
      "stateMutability": "nonpayable",
      "type": "function"
    },
    {
      "inputs": [],
      "name": "resetRound",
      "outputs": [],
      "stateMutability": "nonpayable",
      "type": "function"
    },
    {
      "inputs": [
        {
          "internalType": "address",
          "name": "newOwner",
          "type": "address"
        }
      ],
      "name": "transferOwnership",
      "outputs": [],
      "stateMutability": "nonpayable",
      "type": "function"
    },
    {
      "inputs": [
        {
          "internalType": "address",
          "name": "_newWallet",
          "type": "address"
        }
      ],
      "name": "updatePlatformWallet",
      "outputs": [],
      "stateMutability": "nonpayable",
      "type": "function"
    },
    {
      "inputs": [],
      "name": "usdt",
      "outputs": [
        {
          "internalType": "contract IERC20",
          "name": "",
          "type": "address"
        }
      ],
      "stateMutability": "view",
      "type": "function"
    },
    {
      "inputs": [],
      "name": "winnersSelected",
      "outputs": [
        {
          "internalType": "bool",
          "name": "",
          "type": "bool"
        }
      ],
      "stateMutability": "view",
      "type": "function"
    }
  ],
  "bytecode": "0x60a06040523480156200001157600080fd5b5060405162001b5738038062001b578339810160408190526200003491620001b7565b33806200005c57604051631e4fbdf760e01b8152600060048201526024015b60405180910390fd5b62000067816200014a565b50600180556001600160a01b038216620000c45760405162461bcd60e51b815260206004820152601460248201527f496e76616c696420555344542061646472657373000000000000000000000000604482015260640162000053565b6001600160a01b0381166200011c5760405162461bcd60e51b815260206004820152601760248201527f496e76616c696420706c6174666f726d2077616c6c6574000000000000000000604482015260640162000053565b6001600160a01b03918216608052600280546001600160a01b031916919092161790556001600355620001ef565b600080546001600160a01b038381166001600160a01b0319831681178455604051919092169283917f8be0079c531659141344cd1fd0a4f28419497f9722a3daafe3b4186f6b6457e09190a35050565b80516001600160a01b0381168114620001b257600080fd5b919050565b60008060408385031215620001cb57600080fd5b620001d6836200019a565b9150620001e6602084016200019a565b90509250929050565b60805161193762000220600039600081816102bf0152818161069401528181610c0401526112e301526119376000f3fe608060405234801561001057600080fd5b50600436106102535760003560e01c80637d6ec37c11610146578063ad605729116100c3578063ecf33f2a11610087578063ecf33f2a14610388578063edca914c14610481578063f15ed4fa14610388578063f2fde38b14610489578063f3baf0701461049c578063fa2af9da146104a457600080fd5b8063ad60572914610438578063ada4ef3014610440578063b4fb3ee314610453578063c38ec990146103a3578063df265a9f1461047657600080fd5b80638bc532851161010a5780638bc53285146103dc5780638da5cb5b146103ee578063924d4696146103ff5780639ff860f514610407578063a583024b1461040f57600080fd5b80637d6ec37c146103ab578063808511a1146103be578063842a6f9d146103a357806384d452ff146103cb5780638a19c8bc146103d357600080fd5b8063452dac3a116101d45780636c6e99d7116101985780636c6e99d714610378578063715018a614610380578063766c3e67146103885780637ae26c1a146103905780637c457888146103a357600080fd5b8063452dac3a146103385780634e71d92d146103405780635aa68ac014610348578063655d49191461035d5780636bd5dfce1461037057600080fd5b80632f48ab7d1161021b5780632f48ab7d146102ba5780632f6f81d9146102e1578063338bd511146102e957806335c1d34914610305578063402914f51461031857600080fd5b80631273bd34146102585780631a595f65146102885780631a95f15f1461029e5780632d49a7bf146102a85780632e4e9ea1146102b2575b600080fd5b61026b6102663660046116f1565b6104b7565b6040516001600160a01b0390911681526020015b60405180910390f35b6102906104e1565b60405190815260200161027f565b610290621e848081565b6102b06104fa565b005b610290602881565b61026b7f000000000000000000000000000000000000000000000000000000000000000081565b610290600381565b600754610100900460ff165b604051901515815260200161027f565b61026b6103133660046116f1565b610616565b61029061032636600461170a565b60066020526000908152604090205481565b610290600a81565b6102b0610626565b610350610709565b60405161027f919061173a565b61026b61036b3660046116f1565b61076b565b61035061077b565b6103506107db565b6102b061083b565b610290601e81565b61026b61039e3660046116f1565b61084d565b610290601481565b61026b6103b93660046116f1565b61085d565b6007546102f59060ff1681565b6102b061086d565b61029060035481565b6007546102f590610100900460ff1681565b6000546001600160a01b031661026b565b6103506109d2565b610350610a32565b61029061041d36600461170a565b6001600160a01b031660009081526006602052604090205490565b600454610290565b6102b061044e36600461170a565b610a92565b6102f561046136600461170a565b60056020526000908152604090205460ff1681565b60075460ff166102f5565b6102b0610b04565b6102b061049736600461170a565b610d41565b610290606481565b60025461026b906001600160a01b031681565b600b81815481106104c757600080fd5b6000918252602090912001546001600160a01b0316905081565b6004546000906104f590621e84809061179d565b905090565b610502610d7c565b60075460ff1661054b5760405162461bcd60e51b815260206004820152600f60248201526e141bdbdb081b9bdd08199a5b1b1959608a1b60448201526064015b60405180910390fd5b600754610100900460ff16156105a35760405162461bcd60e51b815260206004820152601860248201527f57696e6e65727320616c72656164792073656c656374656400000000000000006044820152606401610542565b6004546040516000916105e79142914491339060200193845260208401929092526040830152606090811b6bffffffffffffffffffffffff19169082015260740190565b6040516020818303038152906040528051906020012060001c905061060b81610da9565b610613611296565b50565b600481815481106104c757600080fd5b61062e611531565b336000908152600660205260409020548061067e5760405162461bcd60e51b815260206004820152601060248201526f4e6f7468696e6720746f20636c61696d60801b6044820152606401610542565b336000818152600660205260408120556106c3907f00000000000000000000000000000000000000000000000000000000000000006001600160a01b0316908361155b565b6040805182815242602082015233917f256642a903d86ec186d0ad895b74bdbe7f9e5a72db568f4c4d58c2fa38b39e1c910160405180910390a25061070760018055565b565b6060600480548060200260200160405190810160405280929190818152602001828054801561076157602002820191906000526020600020905b81546001600160a01b03168152600190910190602001808311610743575b5050505050905090565b600881815481106104c757600080fd5b60606008805480602002602001604051908101604052809291908181526020018280548015610761576020028201919060005260206000209081546001600160a01b03168152600190910190602001808311610743575050505050905090565b60606009805480602002602001604051908101604052809291908181526020018280548015610761576020028201919060005260206000209081546001600160a01b03168152600190910190602001808311610743575050505050905090565b610843610d7c565b61070760006115bf565b600a81815481106104c757600080fd5b600981815481106104c757600080fd5b610875610d7c565b600754610100900460ff166108cc5760405162461bcd60e51b815260206004820152601860248201527f57696e6e657273206e6f742073656c65637465642079657400000000000000006044820152606401610542565b60005b60045481101561093857600060056000600484815481106108f2576108f26117ba565b6000918252602080832091909101546001600160a01b031683528201929092526040019020805460ff191691151591909117905580610930816117d0565b9150506108cf565b50610945600460006116bf565b610951600860006116bf565b61095d600960006116bf565b610969600a60006116bf565b610975600b60006116bf565b6007805461ffff1916905560038054906000610990836117d0565b9091555050600354604080519182524260208301527fb5d9dd711deaba429a82837af3c0430f5046e7668c98075d5ac89f63530a563a910160405180910390a1565b6060600a805480602002602001604051908101604052809291908181526020018280548015610761576020028201919060005260206000209081546001600160a01b03168152600190910190602001808311610743575050505050905090565b6060600b805480602002602001604051908101604052809291908181526020018280548015610761576020028201919060005260206000209081546001600160a01b03168152600190910190602001808311610743575050505050905090565b610a9a610d7c565b6001600160a01b038116610ae25760405162461bcd60e51b815260206004820152600f60248201526e496e76616c6964206164647265737360881b6044820152606401610542565b600280546001600160a01b0319166001600160a01b0392909216919091179055565b610b0c611531565b60075460ff1615610b4e5760405162461bcd60e51b815260206004820152600c60248201526b141bdbdb081a5cc8199d5b1b60a21b6044820152606401610542565b600454606411610ba05760405162461bcd60e51b815260206004820152601860248201527f4d6178207061727469636970616e7473207265616368656400000000000000006044820152606401610542565b3360009081526005602052604090205460ff1615610bf75760405162461bcd60e51b8152602060048201526014602482015273105b1c9958591e481c185c9d1a58da5c185d195960621b6044820152606401610542565b610c2f6001600160a01b037f0000000000000000000000000000000000000000000000000000000000000000163330621e848061160f565b60048054600181810183557f8a35acfbc15ff81a39ae7d344fd709f28e8600b4aa8c65c6b64bfe7fe36bd19b90910180546001600160a01b0319163390811790915560008181526005602052604090819020805460ff19169093179092556003549254915190927f96541f70da731142b18e96f1def4d2a7733deb7d784723106d52c1d906d4c67a92610cd49242909283526020830191909152604082015260600190565b60405180910390a260045460631901610d38576007805460ff19166001179055600354604080519182526064602083015242908201527f2f175f06e9e98a031b67651e940b202eb5594b8c635aeb92bdac6fce470183d49060600160405180910390a15b61070760018055565b610d49610d7c565b6001600160a01b038116610d7357604051631e4fbdf760e01b815260006004820152602401610542565b610613816115bf565b6000546001600160a01b031633146107075760405163118cdaa760e01b8152336004820152602401610542565b604080516064808252610ca0820190925260009160208201610c808036833701905050905060005b6064811015610e475760048181548110610ded57610ded6117ba565b9060005260206000200160009054906101000a90046001600160a01b0316828281518110610e1d57610e1d6117ba565b6001600160a01b039092166020928302919091019091015280610e3f816117d0565b915050610dd1565b50606460005b600a811015610f75576000828583604051602001610e8e929190918252606060208301819052600190830152604160f81b6080830152604082015260a00190565b6040516020818303038152906040528051906020012060001c610eb191906117ff565b90506008848281518110610ec757610ec76117ba565b60209081029190910181015182546001808201855560009485529290932090920180546001600160a01b0319166001600160a01b03909316929092179091558490610f129085611813565b81518110610f2257610f226117ba565b6020026020010151848281518110610f3c57610f3c6117ba565b6001600160a01b039092166020928302919091019091015282610f5e81611826565b935050508080610f6d906117d0565b915050610e4d565b5060005b60148110156110a1576000828583604051602001610fba929190918252606060208301819052600190830152602160f91b6080830152604082015260a00190565b6040516020818303038152906040528051906020012060001c610fdd91906117ff565b90506009848281518110610ff357610ff36117ba565b60209081029190910181015182546001808201855560009485529290932090920180546001600160a01b0319166001600160a01b0390931692909217909155849061103e9085611813565b8151811061104e5761104e6117ba565b6020026020010151848281518110611068576110686117ba565b6001600160a01b03909216602092830291909101909101528261108a81611826565b935050508080611099906117d0565b915050610f79565b5060005b601e8110156111cd5760008285836040516020016110e6929190918252606060208301819052600190830152604360f81b6080830152604082015260a00190565b6040516020818303038152906040528051906020012060001c61110991906117ff565b9050600a84828151811061111f5761111f6117ba565b60209081029190910181015182546001808201855560009485529290932090920180546001600160a01b0319166001600160a01b0390931692909217909155849061116a9085611813565b8151811061117a5761117a6117ba565b6020026020010151848281518110611194576111946117ba565b6001600160a01b0390921660209283029190910190910152826111b681611826565b9350505080806111c5906117d0565b9150506110a5565b5060005b8181101561123a57600b8382815181106111ed576111ed6117ba565b60209081029190910181015182546001810184556000938452919092200180546001600160a01b0319166001600160a01b0390921691909117905580611232816117d0565b9150506111d1565b506007805461ff0019166101001790556003546040517f1ed1db068c590830411fc68d371186c6d60f6fa5c63564321dd4f5237f187d9d9161128991600890600990600a90600b904290611886565b60405180910390a1505050565b60006112a6621e8480606461179d565b9050600060646112b760038461179d565b6112c191906118ed565b905060006112cf8284611813565b60025490915061130c906001600160a01b037f0000000000000000000000000000000000000000000000000000000000000000811691168461155b565b6000606461131b601e8461179d565b61132591906118ed565b905060006064611336601e8561179d565b61134091906118ed565b90506000606461135160148661179d565b61135b91906118ed565b90506000606461136c60148761179d565b61137691906118ed565b90506000611385600a866118ed565b905060006113946014866118ed565b905060006113a3601e866118ed565b905060006113b26028866118ed565b905060005b600a81101561140f578460066000600884815481106113d8576113d86117ba565b60009182526020808320909101546001600160a01b0316835282019290925260400190205580611407816117d0565b9150506113b7565b5060005b601481101561146b57836006600060098481548110611434576114346117ba565b60009182526020808320909101546001600160a01b0316835282019290925260400190205580611463816117d0565b915050611413565b5060005b601e8110156114c7578260066000600a8481548110611490576114906117ba565b60009182526020808320909101546001600160a01b03168352820192909252604001902055806114bf816117d0565b91505061146f565b5060005b6028811015611523578160066000600b84815481106114ec576114ec6117ba565b60009182526020808320909101546001600160a01b031683528201929092526040019020558061151b816117d0565b9150506114cb565b505050505050505050505050565b60026001540361155457604051633ee5aeb560e01b815260040160405180910390fd5b6002600155565b6040516001600160a01b038381166024830152604482018390526115ba91859182169063a9059cbb906064015b604051602081830303815290604052915060e01b6020820180516001600160e01b03838183161783525050505061164e565b505050565b600080546001600160a01b038381166001600160a01b0319831681178455604051919092169283917f8be0079c531659141344cd1fd0a4f28419497f9722a3daafe3b4186f6b6457e09190a35050565b6040516001600160a01b0384811660248301528381166044830152606482018390526116489186918216906323b872dd90608401611588565b50505050565b600080602060008451602086016000885af180611671576040513d6000823e3d81fd5b50506000513d91508115611689578060011415611696565b6001600160a01b0384163b155b1561164857604051635274afe760e01b81526001600160a01b0385166004820152602401610542565b508054600082559060005260206000209081019061061391905b808211156116ed57600081556001016116d9565b5090565b60006020828403121561170357600080fd5b5035919050565b60006020828403121561171c57600080fd5b81356001600160a01b038116811461173357600080fd5b9392505050565b6020808252825182820181905260009190848201906040850190845b8181101561177b5783516001600160a01b031683529284019291840191600101611756565b50909695505050505050565b634e487b7160e01b600052601160045260246000fd5b80820281158282048414176117b4576117b4611787565b92915050565b634e487b7160e01b600052603260045260246000fd5b6000600182016117e2576117e2611787565b5060010190565b634e487b7160e01b600052601260045260246000fd5b60008261180e5761180e6117e9565b500690565b818103818111156117b4576117b4611787565b60008161183557611835611787565b506000190190565b6000815480845260208085019450836000528060002060005b8381101561187b5781546001600160a01b031687529582019560019182019101611856565b509495945050505050565b86815260c06020820152600061189f60c083018861183d565b82810360408401526118b1818861183d565b905082810360608401526118c5818761183d565b905082810360808401526118d9818661183d565b9150508260a0830152979650505050505050565b6000826118fc576118fc6117e9565b50049056fea2646970667358221220a2424bc5236b0f69694a02dbc3a0e63b6101875fbfbc6548da937994368bdc7b64736f6c63430008140033",
  "linkReferences": {},
  "deployedLinkReferences": {}
}